:020000040800F2
:10000000881F0020990100084F3300082D2C00089C
:100010004D330008B1070008F13F00080000000060
:10002000000000000000000000000000D9360008B9
:10003000510900080000000095330008DB36000875
:10004000B3010008B3010008B3010008B3010008C0
:10005000B3010008B3010008B3010008B3010008B0
:10006000B3010008B3010008B3010008B3010008A0
:10007000B301000889080008B301000895080008CA
:10008000B3010008A1080008B3010008B30100088B
:10009000B3010008B3010008B3010008B301000870
:1000A000B3010008B3010008B3010008B301000860
:1000B000B301000841370008B3010008B30100088C
:1000C000B3010008B3010008B3010008853400083B
:1000D000B3010008493C0008553C0008B301000882
:1000E000B3010008B3010008B301000800F002F8F2
:1000F00000F042F80AA090E8000C82448344AAF180
:100100000107DA4501D100F037F8AFF2090EBAE87D
:100110000F0013F0010F18BFFB1A43F0010318473B
:1001200098550000B8550000103A24BF78C878C12F
:10013000FAD8520724BF30C830C144BF04680C60ED
:10014000704700000023002400250026103A28BF35
:1001500078C1FBD8520728BF30C148BF0B60704739
:10016000642900F0AB80732900F0158200207047ED
:100170001FB51FBD10B510BD00F065FA1146FFF7A1
:10018000F7FF04F04FFF00F083FA03B4FFF7F2FF2C
:1001900003BC00F08BFA000009488047094800477B
:1001A000FEE7FEE7FEE7FEE7FEE7FEE7FEE7FEE727
:1001B000FEE7FEE704480549054A064B7047000084
:1001C0003D370008ED00000888190020881F002036
:1001D000881B0020881B00200FB41CB5074B06AA03
:1001E0007B4469460090059800F0ABF90020694611
:1001F00000F0BAF91CBC5DF814FB00008503000098
:100200002DE9F0410E460446002020622046E168B8
:10021000884730B3252805D0D4E901219047206ACA
:10022000401CF2E7E168204600278847050018D007
:10023000A5F14100192802D820354FF40067324655
:10024000294620462760FFF78BFF40B1012804D0E4
:10025000F61D26F007060836D8E7361DD6E72846ED
:10026000DAE7206ABDE8F08170B50C460546012A40
:1002700005D02878800600D5EA69002302E0012332
:1002800005E05B1C934202D2E05C0028F9D1A8692A
:10029000E618C01AA861286A184428622846AFF3F5
:1002A000008004E0D5E9012114F8010B9047B44225
:1002B000F8D32846AFF3008070BD00002DE9F0416F
:1002C0000646002410687529314616A510D0AFF3F4
:1002D0000080002802DA404213A507E031688A074F
:1002E00001D512A502E0490704D511A5012401E0BA
:1002F000AFF3008000210A2206F1240709E0B0FBD9
:10030000F2FCB0FBF2F302FB1C00303078541846CC
:10031000491C0028F3D123462A463046BDE8F04167
:1003200000F0B0B8000000002D0000002B0000001D
:100330002000000030B505460B462A4613F8014B55
:1003400012F8010B08B1A042F8D01CB1002802D06D
:100350006D1CF1E7284630BD10B5431C02E010F8D3
:10036000011B71B18107FAD14FF0013202C88C1A1A
:100370008C4314EAC211F9D0C01A0A0603D0C01E79
:1003800010BDC01A10BD0A0401D0801E10BD0902A4
:10039000FCD0401E10BD032A40F2308010F0030C48
:1003A00000F0158011F8013BBCF1020F624498BFC8
:1003B00011F801CB00F8013B38BF11F8013BA2F165
:1003C000040298BF00F801CB38BF00F8013B11F0E0
:1003D000030300F0E480083AC0F0088051F8043BC1
:1003E000083A51F804CBA0E80810F5E7121D5CBFED
:1003F00051F8043B40F8043BAFF30080D20724BF20
:1004000011F8013B11F801CB48BF11F8012B24BFB3
:1004100000F8013B00F801CB48BF00F8012B704702
:1004200002F0FF0343EA032242EA024200F0EBB883
:100430004FF0000200B5134694469646203922BF7D
:10044000A0E80C50A0E80C50B1F12001BFF4F7AFC8
:10045000090728BFA0E80C5048BF0CC05DF804EBAA
:10046000890028BF40F8042B08BF704748BF20F818
:10047000022B11F0804F18BF00F8012B7047704716
:10048000704770472DE9F0470D469946924604465D
:1004900000F124080168880604D5E06921F0100104
:1004A000216000E00120A84201DD471B00E0002799
:1004B000A1697A1902EB0900081AA0612078C00628
:1004C00002D42046AFF30080002608E0D4E90121E1
:1004D0001AF806009047206A401C761C20624E45A0
:1004E000F4DB2078C0060AD52046AFF3008006E092
:1004F000D4E9012130209047206A401C2062381E38
:10050000A7F10107F4DC07E0D4E9012118F80500A0
:100510009047206A401C2062281EA5F10105F3DCEB
:100520002046AFF300802078000602D50220BDE807
:10053000F0870120FBE7000001694A1C026108788E
:10054000704700B58FB0CDE9013100210591054913
:100550007944CDE9031011466846FFF751FE0FB00C
:1005600000BD0000E5FFFFFF0A6802F8010B0A600A
:10057000704710B5436913B1AFF3008001E0FFF796
:1005800073FE012010BD127800F124010A700022D0
:100590004A700122EDE711684FF0FF32E9E710B52C
:1005A000203AC0F00B80B1E81850203AA0E818506B
:1005B000B1E81850A0E81850BFF4F5AF5FEA027C2C
:1005C00024BFB1E81850A0E8185044BF18C918C09B
:1005D000BDE810405FEA827C24BF51F8043B40F83C
:1005E000043B08BF7047D20728BF31F8023B48BF21
:1005F00011F8012B28BF20F8023B48BF00F8012B5F
:1006000070474FF000020429C0F0128010F0030C74
:100610003FF410AFCCF1040CBCF1020F18BF00F88E
:10062000012BA8BF20F8022BA1EB0C01FFF702BFA2
:100630005FEAC17C24BF00F8012B00F8012B48BF02
:1006400000F8012B7047754600F02CF8AE46050007
:100650006946534620F00700854618B020B5FFF7DD
:10066000A9FDBDE820404FF000064FF000074FF015
:1006700000084FF0000B21F00701AC46ACE8C009C0
:10068000ACE8C009ACE8C009ACE8C0098D467047C9
:1006900010B50446AFF300802046BDE81040FFF7D8
:1006A00074BD00000048704724190020014918203B
:1006B000ABBEFEE7260002007047000070B517A031
:1006C00003F082FC0A221EA1214803F0E5FF214C21
:1006D000607208B120A019E04FF40075412229464C
:1006E0002248FFF79DFE1B4B2A461C331F49184822
:1006F00004F004F96072164803F08AFF607A20B9AA
:10070000E069A84201D11AA000E01EA003F05CFC41
:10071000BDE8704020A003F057BC00000D0A3E3E2B
:100720003E20426F6F7420546573742028444D41FD
:1007300020436865636B29203C3C3C0D0A000000A7
:10074000424F4F545F5453542E54585400000000ED
:10075000641400200000002054657374204F7065FD
:100760006E204661696C210D0A000000340E0020E5
:1007700054657374205772697465204F4B210D0ABC
:100780000000000054657374205772697465204638
:1007900061696C210D0A00003E3E3E20456E6420DA
:1007A00054657374203C3C3C0D0A0D0A00000000A7
:1007B000FEE7000030B591B00446FFF7CDFD0828F4
:1007C00001D919A02CE022461EA16846FFF704FDBE
:1007D0001EA003F0F9FB684603F0F6FB1FA003F030
:1007E000F3FB0A2269461F4803F056FF1E4C021E07
:1007F0004FF00005607209D01CA108A8FFF7ECFCBF
:1008000008A803F0E1FB257111B030BD0120A070F4
:10081000E0702570A581FF2060700220207116A075
:1008200003F0D2FBF0E700000D0A5B4552525D2059
:100830004E616D6520746F6F206C6F6E672E0D0AB0
:100840000000000025732E42494E00000D0A43723D
:10085000656174696E673A20000000002E2E2E0D2F
:100860000A00000064140020000000204572723A63
:100870002025640D0A00000046696C6520437265FE
:1008800061746564210D0A00014800F007B9000099
:100890005C170020014800F001B900007818002022
:1008A000014800F0FBB80000BC18002030B590F8FB
:1008B00040500124AC40C56B6C60046863604368C1
:1008C000102B036803D099600068C26030BD9A6045
:1008D0000068C16030BD00002DE9F0470C00814682
:1008E0002BD00A4601460A23164802F04EF9164854
:1008F0000179022921D1C17800291ED081780029EF
:100900001BD00023114D4FF4007C984613E000BF2C
:100910000278818905EB422719F803607E54491C4F
:1009200089B28181614505D3427042B100210170D5
:10093000A0F80C805B1CA342EADBBDE8F087012134
:10094000F5E700003018002000000020340E0020E1
:100950007047000010B50446FFF7FEFC214682B246
:10096000BDE810400A23014802F00FB930180020FA
:1009700072B6FEE7002200F001B8000030B50E4B61
:10098000054601205C7A012C15D8587A00241C54A5
:10099000587A03EB800045605D7A03F108002A5421
:1009A000587A421C5A72303008703A2048702F2012
:1009B0008870CC70002030BD1819002010B590F858
:1009C00021100022022905D00421816380F8202013
:1009D000012010BD01680B6823F00E030B60016855
:1009E0000B6823F001030B6090F84030C46B0121C9
:1009F00001FA03F3636080F8211080F8202010468C
:100A000010BD000010B590F821100024022903D079
:100A10000421816301243DE001680A6822F00E028E
:100A20000A6001680A6822F001020A601A4A016835
:100A3000914201D1012121E0174A1432914201D1A2
:100A400010211BE0144A2832914201D1891515E08A
:100A5000114A3C32914201D189140FE00E4A5032C2
:100A6000914202D14FF4803108E00B4A6432914246
:100A700002D14FF4801101E04FF08071064A083A2C
:100A80005160012180F82110002180F82010416B75
:100A900001B18847204610BD080002402DE9F05FF3
:100AA000C16B0C6801680B68D0F840C0042202FAE0
:100AB0000CF2494DDFF824A1494E4A4FDFF828B126
:100AC000DFF828E122422CD05A072AD50A6892067C
:100AD00003D40A6822F004020A600168A94201D125
:100AE000042219E0514501D1402215E0B14202D162
:100AF0004FF4806210E0B94202D14FF480420BE023
:100B0000594502D14FF4802206E0714502D14FF4DD
:100B1000800201E04FF080622F4908394A60C16AC3
:100B20003BE04FF0020808FA0CF818EA040F4FF007
:100B300000094FF0010235D05FEA837832D50B68A7
:100B40009B0605D40B6823F00A030B6080F8212074
:100B50000168A94201D1022219E0514501D12022A8
:100B600015E0B14202D14FF4007210E0B94202D157
:100B70004FF400520BE0594502D14FF4003206E029
:100B8000714502D14FF4001201E04FF0007212499A
:100B900008394A6080F82090816A00291AD0BDE89F
:100BA000F05F0847082505FA0CF5254212D01B070F
:100BB00010D50B6823F00E030B6090F84010C36B48
:100BC00002FA01F15960826380F8212080F82090B8
:100BD000016BE2E7BDE8F09F080002401C00024004
:100BE0003000024044000240580002406C000240C5
:100BF00030B528B308C8134914221944B1FBF2F1E7
:100C00008900C16310498163022141771A6843F664
:100C1000F0718A43D0E900142143D0E902452C4306
:100C200021430469214344692143846921431143D9
:100C3000196000214163012242770177084630BDE7
:100C4000012030BDF8FFFDBF0000024070B5044632
:100C500090F82000002501280CD0012084F8200005
:100C600094F821600020012E06D084F8200002258F
:100C7000284670BD022070BD022684F82160A06362
:100C80002068066826F0010606602046FFF70EFE83
:100C9000E06A00282068016802D041F00E0106E0F9
:100CA00021F0040101602068016841F00A0101603F
:100CB0002068016841F001010160D9E770B5044680
:100CC00000F004F90546601C02D004480078044492
:100CD00000F0FCF8401BA042FAD370BD20000020B9
:100CE0002DE9F84FDFF8B8910024A9F1040B234651
:100CF0000F2709F1040AABF1040EC9E00125A54054
:100D00002A40AA427DD1674ED1F804C0ACEB060858
:100D1000B44532D014DCBCF1030F3AD009DCBCF18D
:100D2000000F2AD0BCF1010F1CD0BCF1020F31D151
:100D30001DE0BCF1110F17D0BCF1120F2AD119E040
:100D4000B8F5881F19D006DCB8F5803F15D0B8F586
:100D5000801F1FD111E0B8F5001F0ED0B8F5041F99
:100D600018D10AE0CB6815E0CB681B1D12E0CB68F8
:100D700008330FE0CB680C330CE08B682BB1012BF0
:100D80004FF0080303D0456104E0042302E005614D
:100D900000E00023FF2A01D8064601E000F1040626
:100DA0004FEA840501D9A5F12005D6F8008007FA9D
:100DB00005FC28EA0C0803FA05F548EA0508C6F818
:100DC00000804D68ED0062D5374DAE6946F00106F2
:100DD000AE61AD6924F0030605F001050095334DC1
:100DE00006EB050CDCF80850A607360F07FA06F8E4
:100DF00025EA0805DFF8B880404503D14FF0000828
:100E000017E044E0DFF8AC80404502D14FF0010824
:100E10000FE0DFF8A480404502D14FF0020808E05F
:100E2000DFF89880404502D14FF0030801E04FF011
:100E3000040808FA06F848EA0508CCF808804D6866
:100E4000D9F80060ED024D4601D5164300E0964307
:100E50002E604D68DAF80060AD02554601D51643A4
:100E600000E096432E604D68DBF80060AD035D4600
:100E700001D5164300E096432E604D68DEF8006011
:100E8000ED03754601D5164300E096432E60641CC1
:100E90000D682A46E5407FF431AFBDE8F88F0000C9
:100EA0000804014000001110001002400000014041
:100EB00000080140000C01400010014000140140F6
:100EC0000AB1016170470904FBE70000014880682E
:100ED000704700002000002070B5040025D094F871
:100EE0003D00002520B984F83C50204600F034FB3A
:100EF000242084F83D002068016821F00101016090
:100F00002068016841F4004101602068016821F413
:100F10000041016000F07EFC4D4A6168914201D8B9
:100F20004C4900E04C49884201D2012070BD4B4938
:100F30002368B0FBF1F15E6826F03F060E435E6069
:100F40006368934206D94FF4967359434FF47A730A
:100F5000B1FBF3F12368491C1E6A26F03F063143BA
:100F600019626168914210D84900401EB0FBF1F24D
:100F7000521CC2F30B02042A01D2042022E0B0FB6F
:100F8000F1F0401CC0F30B001CE0A268F2B301EBCF
:100F9000C10303EB0116431EB3FBF6F35B1C43F4E2
:100FA00080431B0549D092B301EBC10202EB011152
:100FB000401EB0FBF1F0401CC0F30B0040F4804039
:100FC00040F400402168CA694CF6FF739A4310430D
:100FD000C861D4E9071001432068026822F0C0020A
:100FE00011430160D4E9030101432068826848F29B
:100FF000FF339A4311438160D4E905010843216816
:10100000CA6822F0FF021043C86001E00EE016E05B
:101010002068016841F0010101602564202084F806
:101020003D00256384F83E50002070BD01EB410671
:10103000431EB3FBF6F35B1CB3E70120C2E701EBF1
:101040004101401EB0FBF1F0401CC0F30B00B7E7BC
:10105000A086010080841E0000093D0040420F0070
:101060002DE9FF4F81B089460446FFF72FFF054663
:1010700094F83D004FF0000820287DD1192301226B
:1010800050492046009501F0E7FE002874D194F8FD
:101090003C00012870D0012084F83C0020680168E1
:1010A000C90703D1016841F00101016020680168AE
:1010B00021F400610160242084F83D0000262664AC
:1010C0004148E0624FF0011B20272068016841F48D
:1010D000807101600095002259462046049B01F072
:1010E000BBFE50B120680068C00502D54FF4007007
:1010F0002064032005B0BDE8F08F216809F0FE00F0
:101100000861FFF7E3FE2168054648694969C0F3B5
:101110004000C1F380214FF0A00A0FE0FFF7D6FE98
:10112000411B0498814200D808B984F83DA0216889
:1011300048694969C0F34000C1F3802194F83D201B
:10114000A02A02D008B90029E8D084F83D702068B0
:101150004169C943890716D4016841F400710160EF
:1011600020684169806919230122164920460095AB
:1011700001F072FEB8B900E021E084F83D7084F817
:101180003C600020B6E7016841F40071016021680D
:101190006FF480604861192301220A4920460095B6
:1011A00001F05AFE08B10120A4E7039808F10108F4
:1011B00080458AD384F83D7084F83C60F3E70220D0
:1011C00098E70000020010000000FFFF2DE9FF4F2C
:1011D00083B00025DDE910799A4693460446DDF890
:1011E00048800095FFF772FE064694F83D002028DF
:1011F0007CD11923012288492046009601F02CFE5B
:101200000028F5D194F83C0001286FD0012084F823
:101210003C0020680168C90703D1016841F0010161
:1012200001602068016821F400610160222084F8D7
:101230003D00402084F83E0025646762A4F82A90AF
:10124000608D20857548E062CDE9008653465A4698
:101250002046049901F002FD00287CD1208DDFF8A2
:10126000C091202768B1012814D0022820680168A5
:101270001ED041F48061016020684169806900905E
:10128000BCE02068416981690091016841F4007106
:101290000160B3E02068016821F48061016072B6EA
:1012A0002068416981690091016841F400710AE098
:1012B00041F40061016072B6206841698169009162
:1012C000016821F48061016062B697E0032865D867
:1012D00001280CD0022843464FF000024946204620
:1012E00000960BD001F0B8FDA8BB0CE091E03246AF
:1012F0004146204601F056FE68BB72E001F0ACFDAD
:1013000048BB72B633E02068016821F48061016057
:1013100072B620680069616A0870606A401C606289
:10132000208D401E2085608D401E60853D4846F220
:10133000A8110068B0FBF1F0C0EBC00000EB80002A
:101340000090401E009007D020684069C0434007CD
:101350000DD50098F5E727E044F8305F6773A57373
:10136000206940F02000206162B625731CE02068EF
:10137000016841F40071016020680069616A0870C9
:10138000606A401C6062218D491E2185618D491E65
:10139000618562B621680969017026E032464146DE
:1013A000204601F0FFFD18B1012007B0BDE8F08F25
:1013B00020680069616A0870606A401C6062208D64
:1013C000401E81B22185608D401E60852068426983
:1013D000D243520712D4032903D1016821F480615A
:1013E000016020680069616A0870606A401C606280
:1013F000208D401E2085608D401E6085208D002838
:101400007FF464AF84F83D7084F83E5084F83C501B
:10141000CBE70220C9E70000020010000000FFFF38
:10142000040001002C0000202DE9FF4F83B09A46F4
:10143000DDE9119793460446DDF84080FFF746FD4D
:10144000054694F83D0020287FD119230122404908
:101450002046009501F000FD002876D194F83C006C
:10146000012872D0012084F83C0020680168C90777
:1014700003D1016841F0010101602068016821F495
:1014800000610160212084F83D00402084F83E0086
:1014900000262664C4F82480A4F82A90608D208554
:1014A0002C48E062CDE9007553465A46204604991F
:1014B00001F052FC70B930E02A463946204601F06E
:1014C000A9FD58B1206C042804D12068016841F4BA
:1014D00000710160012007B0BDE8F08F606A2168EB
:1014E00000780861606A401C6062218D491E89B2E3
:1014F0002185628D521E628522685369DB435B073A
:101500000BD469B100781061606A401C6062208D64
:10151000401E2085608D401E6085208D0028CBD127
:101520002A463946204601F06BFC0028CAD154F8FF
:101530003D0B016841F400710160202004F81E0990
:10154000E67766770020C6E7FFE70220C3E70000E2
:10155000020010000000FFFF10B586B000210091CE
:101560000191029103910068104988421BD1104CEF
:10157000A06940F00800A061A069694600F0080079
:1015800004904FF4406000901220019003200390DB
:101590000848FFF7A5FBE06940F48000E061E069DE
:1015A00000F48000049006B010BD00000058004018
:1015B00000100240000C014002488168027811448A
:1015C0008160704720000020074810B5016841F095
:1015D00010010160032000F075F80F2000F006F8FC
:1015E00000F024F8002010BD0020024070B50D4D21
:1015F00004464FF47A712878B1FBF0F00A49096883
:10160000B1FBF0F000F0FBFD48B9102C07D200222E
:101610002146501E00F036F800206C6070BD01209D
:1016200070BD0000200000202C0000200C4808B5F0
:10163000816941F001018161816901F0010100913D
:10164000C16941F08051C161C06900F080500090D3
:101650000448416821F0E06141F00071416008BD3B
:101660000010024000000140002809DB00F01F02CA
:10167000012191404009800000F1E020C0F80011F4
:1016800070470000F0B40E4B1B680C46C3F30223F6
:10169000C3F10705042D00D90425191D072901D21E
:1016A000002300E0DB1E012606FA05F1491E214059
:1016B00099409E40761E16403143F0BC02F099BC22
:1016C0000CED00E0064900F0070208684FF6FF0342
:1016D000184040EA0220034A1043086070470000A7
:1016E0000CED00E00000FA052DE9F0470F4605007B
:1016F00061D0434E306800F00700B84209D230682C
:1017000020F0070038433060306800F00700B8422E
:1017100051D128683B4C810712D5400703D560683A
:1017200040F4E06060602878000703D5606840F40A
:10173000605060606068A96820F0F0000843606055
:101740002878C00728D06868012810D021680228AE
:1017500010D0890700292EDA616821F003010143C6
:101760006160FFF7B3FB804641F288390DE02168E4
:101770008903EFE78901EDE7FFF7A8FBA0EB08017C
:10178000494502D90320BDE8F0876068696800F028
:101790000C00B0EB810FEFD1306800F00700B842C9
:1017A0000BD9306820F0070038433060306800F013
:1017B0000700B84201D00120E5E72878400705D5A9
:1017C0006068E96820F4E0600843606028780007FA
:1017D00006D56068296920F4605040EAC100606065
:1017E00000F038F86168084AC1F30311515CC84041
:1017F0000649086006480068FFF7F8FE0020C2E7C7
:101800000020024000100240F25500082C00002089
:10181000240000200448054900684968044AC1F3CF
:101820000221515CC84070472C000020001002408B
:10183000025600080448054900684968044AC1F393
:10184000C221515CC84070472C00002000100240AB
:10185000025600080E4A51680E4801F00C03042B92
:1018600011D0082B0FD10C48C1F38343C903C05CCE
:101870000AD55168084AC1F34041921E515C054A9D
:101880005043B0FBF1F070470449484370470000F3
:101890000010024000127A00E255000800093D00E5
:1018A0002DE9F84F040070D02078C04DC00749D012
:1018B0006868C0F38100012807D06868C0F3810020
:1018C000022809D16868C00306D52868800339D585
:1018D00060680028E7D035E06068B0F5803F0BD045
:1018E00010B1B0F5A02F11D0286820F48030286006
:1018F000286820F4802002E0286840F480302860C6
:10190000606890B1FFF7E2FA06460AE0286840F402
:1019100080202860F0E700BFFFF7D8FA801B64281A
:1019200073D828688003F7D50CE0FFF7CFFA064696
:1019300005E000BFFFF7CAFA801B6428F0D82868CA
:101940008003F7D420789A4E80074FF001094FF0BA
:10195000000839D5686810F00C0F07D06868C0F32C
:101960008100022809D16868C00306D4286880076E
:1019700014D52069012808D110E02069B0B1C6F85B
:101980000090FFF7A3FA074605E00AE1FFF79EFA89
:10199000C01B0228C4D828688007F7D52868616969
:1019A00020F0F80040EAC10028600DE0C6F8008091
:1019B000FFF78CFA074604E0FFF788FAC01B0228FD
:1019C00023D828688007F7D4207800072CD57948D9
:1019D000A169D9B1C0F80090FFF778FA074604E092
:1019E000FFF774FAC01B02280FD8686A8007F7D582
:1019F00071484FF4FA510068B0FBF1F0009000BF5D
:101A00000098411E0091FAD20EE080E0C0F80080FC
:101A1000FFF75CFA074604E0FFF758FAC01B0228FC
:101A200075D8686A8007F7D42078400760D5E869E0
:101A30000027C00008D4E86940F08050E861E869F8
:101A4000012700F0805000905C480168C90513D45C
:101A50000168834641F480710160FFF737FA8246DE
:101A600006E000BFFFF732FAA0EB0A0064284ED868
:101A7000DBF80000C005F5D5E06801280AD008B100
:101A8000052813D0286A20F001002862286A20F077
:101A9000040002E0286A40F001002862E06841F298
:101AA000883B98B1FFF712FA82460BE0286A40F0B3
:101AB00004002862EEE700BFFFF708FAA0EB0A0176
:101AC00059455AD8286A8007F6D50CE0FFF7FEF989
:101AD000824605E0FFF7FAF9A0EB0A0159454CD818
:101AE000286A8007F6D41FB1E86920F08050E861C9
:101AF000E06988B36968C1F38101022944D00228F2
:101B0000C6F8608004D0FFF7E1F9044638E034E01D
:101B1000FFF7DCF9074604E0FFF7D8F9C01B0228FD
:101B20002BD828688001F7D4206AB0F5803F05D112
:101B30006868A16820F4003008436860D4E90801AF
:101B40000843696821F4741108436860C6F860901E
:101B5000FFF7BCF9044606E025E000BFFFF7B6F941
:101B6000001B022809D828688001F7D51BE000BFB8
:101B7000FFF7ACF9001B022802D90320BDE8F88F5B
:101B800028688001F4D40EE00128F7D06868226A42
:101B900000F48031914204D1616A00F470108842EF
:101BA00001D00120EAE70020E8E700000010024031
:101BB00000004242800442422C000020007000409D
:101BC0002DE9FC410446434845F6C0510026006813
:101BD000B0FBF1F064214843019000902068416817
:101BE00021F0200141602068416809060CD53A497E
:101BF0006164009900295AD0491E009194F851104F
:101C00000729F6D101990091416849060BD533495E
:101C100021640099F1B3491E009194F851100729ED
:101C2000F7D10199009140684FF0400780074FF0CD
:101C3000000514D5A06C90B14563A06CFEF7BEFE04
:101C400000B167652068416821F0020141602068A9
:101C5000009989B3491E009181688907F8D52068E9
:101C60004068C00711D0E06C78B14563E06CFEF7C6
:101C7000A5FE00B167652068016821F040010160A0
:101C80002068416821F001014160E587E586606DCB
:101C9000402800E011E01AD065652068C1688068BE
:101CA0000090012084F851003046BDE8FC81616D50
:101CB00041F040016165A5E704E0616D41F040013C
:101CC0006165AEE7606D40F040006065C7E70126E2
:101CD000E3E700002C000020E934000891340008FC
:101CE0007047000038B50446006842688168C943FF
:101CF0004B0606D5CB0704D1D3435B0601D4216C38
:101D000005E08B0708D4D3431B0605D4616C01B0F2
:101D10002046BDE8304008478B0601D54B0646D427
:101D2000D3439B0643D44B060AD494F85130032B7B
:101D30003ED0636D43F004036365C368836800931A
:101D4000890609D4616D41F00101616581680091E6
:101D5000016821F040010160606D002827D02068F3
:101D6000416821F0E0014160012084F851009007B2
:101D700022D02068416821F003014160104DE06CE1
:101D800040B14563E06CFEF73DFE18B1606D40F078
:101D900040006065A06C002809D04563A06CFEF788
:101DA00031FE002803D0606D40F04000606538BD12
:101DB000C1688068009038BD2046FFF791FF38BDAC
:101DC0000535000870B5040009D0606A002540B1EF
:101DD00025616561A56294F8510040B10CE00120D5
:101DE00070BD6068B0F5827FF4D0E561F2E784F8F9
:101DF0005050204600F040F8022084F8510020683E
:101E0000016821F040010160A088218900F48270FE
:101E100001F404410843A18901F400610843217CD5
:101E200001F002010843217D01F001010843218BEB
:101E300001F400710843217F01F03801084394F850
:101E4000201001F080010843218D01F40051084366
:101E500021680860A069042101EA104021684860F7
:101E60002068C16921F40061C1616565012084F8C1
:101E70005100002070BD000070B586B000250646F8
:101E800000950195029503950068224988423FD14B
:101E90002149886940F480508861886900F4805045
:101EA0000490886940F00400886188691B4C00F048
:101EB00004000490A02000900220019003200390D1
:101EC00069462046FEF70CFF4020CDE90005694633
:101ED00020460295FEF704FF124C114820601020A6
:101EE000C4E901058020C4E903056561A5612046B8
:101EF000E561FEF77DFE08B1FEF73AFDB46400220D
:101F0000114623206662FFF7BDFB2320FFF7ACFBE1
:101F100006B070BD003001400010024000080140D2
:101F2000300002405C1700202DE9FF4F81B01D46B4
:101F3000934604464FF001090E9EFEF7C7FF074681
:101F400094F851006168012806D0B1F5827F3CD138
:101F5000A168C9BB042838D10298002871D0BBF110
:101F6000000FFBD0002DF9D094F8500001282CD0A0
:101F70004FF0010A84F850A094F85100042802D0D0
:101F8000052084F851004FF00008C4F85480C4F8CC
:101F900038B0E587A58702992163E586A586C4F850
:101FA0004080C4F8448020680168490603D4016871
:101FB00041F040010160E068B0F5006F606808D052
:101FC000F0B3012D49D081E0FFE7022005B0BDE864
:101FD000F08F08B1012D39D1206B21680088C860CD
:101FE000206B801C2063E08E401EE0862EE020687F
:101FF000816889070FD5E18E69B1B9F1010F0AD166
:10200000216B0988C160206B801C2063E08E401E1C
:10201000E0864FF0000920688168C9070CD0E18F85
:1020200051B1C068A16B0880A06B801CA063E08FD9
:10203000401EE0874FF00109FEF748FFC01B01E09A
:102040000BE067E0B04201D3701C50D1E08E002855
:10205000CDD1E08F0028CAD13EE0206B2168007806
:102060000873206B401C2063E08E401EE0862DE04C
:102070002068816889070FD5E18E69B1B9F1010F38
:102080000AD1216B09780173206B401C2063E08E1C
:10209000401EE0864FF0000920688168C9070CD017
:1020A000E18F51B1C068A16B0870A06B401CA063A8
:1020B000E08F401EE0874FF00109FEF707FFC01BCD
:1020C000B04202D3701C01D011E086B1E08E00282E
:1020D000CED1E08F0028CBD13A463146204601F0E0
:1020E00061FA50B12020606584F8508012E084F8D5
:1020F00051A084F85080032068E7A06818B92068D0
:10210000C1688068009084F851A084F85080606DA8
:102110000028F1D0012059E770B5044690F851002D
:1021200001281CD1C9B1C2B194F85000012816D0C1
:10213000012084F85000032084F8510000256565D3
:102140002163A286E286A56365642564A587E58789
:10215000A068B0F5004F04D00DE0012070BD022052
:1021600070BD2068016821F04001016020680168AD
:1021700041F480410160A16C1748C862A16C174806
:102180008862A16C16480863A06C4563E38E2268E0
:10219000216B0C32A06CFEF759FD30B1606D40F040
:1021A0001000606584F85050D7E720680168490640
:1021B00003D4016841F04001016084F85050206868
:1021C000416841F0200141602068416841F002010E
:1021D0004160002070BD000037350008413500081F
:1021E0001535000800680349884202D102490120E0
:1021F000087070470030014031000020704710B572
:10220000401EB0F1807F01D3012010BD4FF0E024CB
:1022100060610F21601701F0ECFE0020A061072033
:102220002061002010BD70477047000070B590F825
:102230003C20012A26D0012480F83C40022280F86C
:102240003D2003685A689D6822F070060A68324390
:102250005A600D4B02689A4208D0B2F1804F05D007
:102260000A4B9A4202D00A4B9A4204D1496825F09F
:1022700080031943916080F83D40002180F83C10B4
:10228000084670BD022070BD002C014000040040D3
:102290000008004010B5040003D094F83D0010B1D0
:1022A00007E0012010BD002084F83C00204600F02B
:1022B0001FF8022084F83D00211D206801F046FA35
:1022C000012084F8460084F83E0084F83F0084F83A
:1022D000400084F8410084F8420084F8430084F808
:1022E000440084F8450084F83D00002010BD000043
:1022F00008B500680B49884212D10B48C16941F00A
:102300000201C161C069002200F002000090114684
:102310001D20FFF7B7F9BDE808401D20FFF7A4B95D
:1023200008BD0000000400400010024090F83D107D
:10233000012901D001207047022180F83D10016879
:10234000CA6842F00102CA6000680B49884208D09E
:10235000B0F1804F05D00949884202D0084988422F
:1023600004D1816801F00701062903D0016841F01A
:102370000101016000207047002C01400004004072
:102380000008004070B5044690F83C000025012884
:1023900017D0012684F83C60022084F83D002068B4
:1023A000826822F0770222F47F4282600868502817
:1023B00038D00DDC20284FD005DC90B3102811D187
:1023C0004AE0022070BD302846D040280AD13BE0C8
:1023D00060282FD070280DD0B0F5805F03D0B0F505
:1023E000005F12D0012584F83D60002084F83C0095
:1023F000284670BDCB68D1E90121206801F0E2F9DF
:102400002068816841F0770109E0CB68D1E90121BA
:10241000206801F0D7F92068816841F4804181602B
:10242000E1E719E0CA684968206801F0DDF9502148
:10243000206806E0CA684968206801F0E6F9602172
:10244000206801F0C9F9CEE7CA684968206801F040
:10245000CBF940212068F4E7226801461046F0E7F6
:1024600070472DE9F04104460068C66805694FF0E1
:102470000007A90713D5B10711D5F91E0161012085
:102480002077206880698007204602D0FFF7E8FFA8
:1024900004E000F07EF8204600F07CF8277768071B
:1024A00016D5700714D521686FF00400086102206A
:1024B00020772068806910F4407F204602D0FFF723
:1024C000CFFF04E000F065F8204600F063F82777BE
:1024D000280715D5300713D521686FF0080008616B
:1024E000042020772068C0698007204602D0FFF7CB
:1024F000B7FF04E000F04DF8204600F04BF82777D6
:10250000E80616D5F00614D521686FF010000861B2
:10251000082020772068C06910F4407F204602D050
:10252000FFF79EFF04E000F034F8204600F032F898
:102530002777E80708D0F00706D021686FF0010080
:102540000861204600F028F8280608D5300606D590
:1025500021686FF0800008612046FFF764FE68067E
:1025600008D5700606D521686FF040000861204646
:1025700000F01EF8A8060AD5B00608D521686FF04D
:10258000200008612046BDE8F041FFF74DBEBDE8E0
:10259000F08170477047000000680349884202D10B
:1025A00002490120C871704700040040000000206B
:1025B0007047704710B504460068406994F84110B0
:1025C000C0F3C010212911D180B12068143050E827
:1025D000001F21F0800140E80012002AF5D1A06B15
:1025E00008B1FEF7EBF9204601F0C7F92068406911
:1025F00094F84210C0F38010222911D180B12068D4
:10260000143050E8001F21F0400140E80012002A79
:10261000F5D1E06B08B1FEF7D1F9204601F086F95B
:10262000002010BD08B500680649884208D101683D
:10263000416800910168416800910168406800901C
:1026400008BD000000380140F8B50168044608687C
:10265000CA684B6910F00F0F4FF0000559D003F016
:10266000010602F49077374365D0C10705D0D10544
:1026700003D5616C41F001016164410705D5D907BB
:1026800003D0616C41F002016164810705D5D9076F
:1026900003D0616C41F004016164010707D502F0C9
:1026A0002001314303D0616C41F008016164616C29
:1026B00000293AD0800604D5900602D5204601F0C4
:1026C0006AF920684069616CC0F38010090700D482
:1026D00060B3204601F02AF920684069400621D500
:1026E0002068143050E8001F21F0400140E800123B
:1026F000002AF5D1E06BA8B16D494163E06BFEF7AC
:1027000081F9002811D0E06B416B01B0BDE8F040C9
:10271000084783060FD593060DD52046BDE8F8403F
:1027200001F039B92046FFF77DFFF8BD2046FFF7DD
:1027300079FF6564F8BD266B2023012E7CD1C60687
:102740007AD5D60678D508684868009048694FF071
:102750000206400640D5E16B086840680004000CA2
:10276000E8D0A28D8242E5D9E085886920282DD065
:1027700020680C3050E8001F21F4807140E80012FE
:10278000002AF5D12068143050E8001F21F0010123
:1027900040E80012002AF5D12068143050E8001FEC
:1027A00021F0400140E80012002AF5D184F84230BF
:1027B000256320680C3050E8001F21F0100140E82C
:1027C0000012002AF5D1E06BFEF7F8F86663A08DE1
:1027D000E18D401A81B22AE0A08DE18D401A81B2CC
:1027E000E08D0028A6D00029A4D022680C3252E83F
:1027F000000F20F4907042E80007002FF5D1206808
:10280000143050E8002F22F0010240E80027002F8A
:10281000F5D184F84230256320680C3050E8002F51
:1028200022F0100240E80023002BF5D16663204619
:10283000FFF7BFFEF8BDFFE705062BD5150629D526
:1028400094F841002128F5D1A068B0F5805F01D14E
:102850002069B0B1206A411C21622168007848607B
:10286000E08C401E0004000CE084E3D12068C168C5
:1028700021F08001C1602068C16841F04001C16061
:10288000D8E7206A0088C0F308004860206A801CEE
:102890002062E5E74006CDD55006CBD5CA68204674
:1028A00022F04002CA6084F8413000F0BEF9C1E76E
:1028B0002F38000870B5040004D094F841000025BA
:1028C00010B106E0012070BD84F84050204600F0B1
:1028D00023F8242084F841002068C16821F40051C5
:1028E000C160204601F0B8F82068016921F49041E8
:1028F00001612068416921F02A0141612068C168B5
:1029000041F40051C1606564202084F8410084F8DE
:1029100042006563002070BDF0B585B000240094CE
:102920000194029403940646DFF810C103684448FA
:1029300002220321434D802763453BD1836943F441
:1029400080438361836903F480430493836943F084
:10295000040383618069039100F004000490100275
:10296000CDE9000269462846FEF7BAF92815CDE9F7
:102970000004694628460294FEF7B2F9334D324806
:10298000C5E90004C5E9024720202C61C5E90540DE
:102990004FF44050E8612846FEF72AF908B1FDF7E8
:1029A000E7FFF5630022114625206E62FEF76AFEFE
:1029B00025203FE0DFF898C063453DD1C36943F46B
:1029C0000033C361C36903F400330493836943F0A4
:1029D000040383618069039100F0040004900420E3
:1029E000CDE9000269462846FEF77AF90820CDE9CC
:1029F0000004694628460294FEF772F9134D124806
:102A00004435283001C5102091C5000245F8104911
:102A10006C61C5E906400D484430FEF7E9F808B19D
:102A2000FDF7A6FFB5630022114626206E62FEF771
:102A300029FE2620FEF718FE05B0F0BD0038014043
:102A400000100240000801405800024078180020A1
:102A50000044004090F84230202B01D00220704703
:102A600021B11AB10023036301F052B8012070476D
:102A700090F84230202B01D00220704721B11AB1CA
:102A80000023036301F08CB80120704770B5006823
:102A90002D49884256D1FEF719FA40F6B8318842DE
:102AA0000CD32A4C2A4AA17A0A290FD00D290DD01D
:102AB00060791F2802D21154401C6071BDE870403B
:102AC000224901220A312348FFF7D2BF607900254D
:102AD000002831D0155420A11D48FDF72BFC08B16A
:102AE000257129E01EA11A48FDF724FC60B1BFF34F
:102AF0004F8F1D4801681D4A01F4E06111430160D8
:102B0000BFF34F8F00BFFDE7207950B918A11048DF
:102B1000FDF710FC28B10120207117A001F054FA34
:102B20000AE02079012807D111A10948FDF702FC2C
:102B300010B90748FDF73EFE657120210448FDF7F6
:102B400077FCBBE770BD000000440040000000209F
:102B5000901600203018002073746F700000000081
:102B600072657365740000000CED00E00400FA0566
:102B700073746172740000000D0A5B434D445D2064
:102B80004E616D653F0D0A0070472DE9F84304461C
:102B900090F84100984616460D46202802D00220A3
:102BA000BDE8F88385B17EB100206064212084F8FF
:102BB0004100FEF78BF9A6848146E684A0682027B1
:102BC000B0F5805F02D003E00120E9E7206910B191
:102BD0002E4600250EE000260CE08021204600F065
:102BE000FAFFA8B9C6B116F8010B21684860E08C5D
:102BF000401EE084E08C4B464FF00002CDF8008090
:102C00000028EAD14FF04001204600F0E4FF40B137
:102C100084F841700320C3E735F8020BC0F30800C5
:102C2000E3E784F841700020BAE77047FEE70168E7
:102C30004A69D24352050FD46FF480624A61002181
:102C400040F8301F202242738173026942F004026F
:102C50000261017301207047002070472DE9F84F91
:102C60000446006889460B9D01689846174641F462
:102C7000806101602068016841F480710160009505
:102C80004FF0011B0022594620460A9B00F0E4F851
:102C90004FF4007A40B120680068C00501D5C4F83F
:102CA00040A00320BDE8F88F216809F0FE0008610C
:102CB0002B46284920460A9A00F016F9F0BB2068F6
:102CC0004169806900902A4620460A9900F0A2F9DD
:102CD00040B1206C04283AD12068016841F40071A9
:102CE000016034E0FEB2B8F1010F09D02168380A62
:102CF00008612A4620460A9900F08CF90028E8D19C
:102D0000206806612A4620460A9900F083F90028C7
:102D1000DFD12068016841F48071016000950022D4
:102D2000594620460A9B00F097F80028B3D1216845
:102D300009F0FF0040F00100086100E007E02B46C9
:102D4000044920460A9A00F0CFF80028AAD00120B2
:102D5000A8E70000020001002DE9F84304460068DE
:102D60000D46DDE9089701689846164641F48071E2
:102D700001604B4600224FF001112046009700F001
:102D80006BF848B120680068C00502D54FF40070A8
:102D900020640320BDE8F883216805F0FE00086187
:102DA0003B464A461549204600F09EF888B92068FF
:102DB0004169806900903A464946204600F02AF968
:102DC00048B1206C042804D12068016841F40071E6
:102DD00001600120DEE7F5B2B8F1010F09D02168EA
:102DE000300A08613A464946204600F013F90028A7
:102DF000E7D1206805610020CCE700000200010057
:102E000070B516460D4604461EE02046FFF70FFF3C
:102E100008B1012070BD681C16D0FEF757F8801B62
:102E2000A84200D885B920684069C04340070BD547
:102E3000002044F8300F20216173A073216941F014
:102E4000200121612073E4E720684069C043400706
:102E5000DBD4002070BD00002DE9F04798461746EE
:102E60000D460446C1F30746DDF820902AE000BF76
:102E7000B8F1FF3F26D0FEF729F8A0EB0901414544
:102E800002D8B8F1000F1DD12068012E16D080693C
:102E900025EA00000004000C12D00020B84211D135
:102EA000002044F8300F20216173A073216941F0A4
:102EB0002001216120730120BDE8F0874069E7E728
:102EC0000120EBE72068012E0AD0806925EA000086
:102ED0000004000C06D00020B842C9D00020EBE767
:102EE0004069F3E70120F7E72DE9F04798461646D9
:102EF0000D4604464FF000094FF0200AC1F3074782
:102F000023E020684069C043400515D4206801686B
:102F100041F40071016021686FF480604861C4F879
:102F2000309084F83DA084F83E90216C41F004017B
:102F3000216484F83C9021E0701C06D0FDF7C6FFA8
:102F4000A0EB0800B04203D816B1012F1FD021E03A
:102F50002068012F15D0806925EA00000004000CCC
:102F600018D000BF44F8309F84F80DA084F80E906C
:102F7000216941F02001216184F80C900120BDE815
:102F8000F087406925EA00000004000CEAD12068BF
:102F9000406901E02068806925EA00000004000C17
:102FA000AFD1ECE72DE9F041002590460E460446EE
:102FB000202728E04069C043C0060CD454F8301BD9
:102FC0006FF01000486144F810596777A577206AC0
:102FD0002062257714E0FDF779FFA0EB0800B042EE
:102FE00000D886B920684069C04340060BD544F834
:102FF000305F6773A573206940F02000206125735E
:103000000120BDE8F08120684169C9434906D1D457
:103010000020F6E770B516460D4604461EE0204631
:10302000FFF705FE08B1012070BD681C16D0FDF742
:103030004DFF801BA84200D885B920684069C04375
:1030400000060BD5002044F8300F20216173A073D7
:10305000216941F0200121612073E4E72068406983
:10306000C0430006DBD4002070BD00001FB5002067
:103070008DF80C0064230222D0210848FDF7F0FFF0
:1030800000280AD10121642203A88DE807000B461D
:103090006B22D0210148FEF7C7F91FBDB0160020F2
:1030A00010B588B0044602220E2103A88DE807005F
:1030B00001233B22D0211248FEF788F810B10020EE
:1030C00008B010BDBDF80C0040BA2080BDF80E005D
:1030D00040BA6080BDF8100040BAA080BDF8120070
:1030E00040BAE080BDF8140040BA2081BDF8160057
:1030F00040BA6081BDF8180040BAA0810120DFE726
:10310000B0160020114808B5416941F00101416144
:103110004069002200F00100009011460D20FEF7EA
:10312000B1FA0D20FEF7A0FA002211460F20FEF79B
:10313000A9FA0F20FEF798FA002211461120FEF797
:10314000A1FABDE808401120FEF78EBA0010024037
:1031500010B504490448FDF70DFC0249491E0870EA
:1031600010BD0000490000203400002030B585B0BB
:1031700000241C480094019402940394816941F056
:1031800010018161816901F010010491816941F0B0
:1031900020018161816901F020010491816941F080
:1031A00004018161816901F004010491816941F0A8
:1031B0000801816180690C4D00F008000490012233
:1031C00010212846FDF77CFE102000900120CDE95B
:1031D00001040220039069462846FDF781FD05B0F1
:1031E00030BD000000100240000801400D4810B53D
:1031F0000B4901600C49416000214FF4804281601D
:10320000C0E9031241618161C1610162FDF764FEA1
:10321000002803D0BDE81040FDF7AABB10BD000098
:1032200000580040B0160020801A0600104810B563
:103230000E4901604FF48271416000218160C160DC
:103240004FF400720161C0E905123822C0E907217C
:10325000416281620A21C162FEF7B4FD002803D0F9
:10326000BDE81040FDF784BB10BD000000300140F8
:103270000417002010B586B000241748009401946C
:1032800002940394049413490594016041F61F418C
:10329000C0E90114C721C0E903148461FEF7FAFFF5
:1032A00008B1FDF765FB4FF48050009069460A486D
:1032B000FFF768F808B1FDF75BFB049404A9064822
:1032C0000594FEF7B3FF002801D0FDF751FB06B0CF
:1032D00010BD000000040040A01700200C4810B5ED
:1032E0000A4901604FF461414160002181600C2274
:1032F000C160C0E904128161C161FFF7DBFA0028F7
:1033000003D0BDE81040FDF733BB10BD00380140CD
:10331000E81700200C4810B50A4901604FF46121FC
:103320004160002181600C22C160C0E9041281610A
:10333000C161FFF7BFFA002803D0BDE81040FDF7D8
:1033400017BB10BD0044004030180020FEE7FEE728
:103350002DE9F0470E4D00244FF6FF76AA274FF0D7
:103360005508A5F52F7900BF06EA0410C4EBC40286
:103370002F54284409EB420180F801800E22801C62
:10338000FDF709F8641C322CEEDBBDE8F087000085
:103390001403002070470000012210210148FDF7AE
:1033A0008FBD000000080140002210210148FDF7F8
:1033B00087BD00000008014070B516460C46054662
:1033C000FFF7EAFFFF2000F007F9FFF7EDFF45F0F8
:1033D000400000F001F9200E00F0FEF8C4F30740B1
:1033E00000F0FAF8C4F3072000F0F6F8E0B200F0BD
:1033F000F3F8304600F0F0F80C2D02D1FF2000F079
:10340000EBF81424FF2000F0E7F8010602D5641E53
:10341000E4B2F7D270BD000010B5144C88B06078EB
:10342000FF281FD0207902281AD1E078C0B1A078F7
:10343000B0B10F48617804F11C0300EB41214FF457
:10344000007200F5C66001F059FA6072021E0BD0DE
:1034500008A16846FCF7C0FE4FEA0D0000F0B4FD7D
:10346000FF20607008B010BD05A0F7E70000002045
:10347000340E00205B4572723A25645D0000000046
:103480002E0000000148FEF72DBC000004170020AC
:1034900008B500210091134945F6C0520968B1FBF7
:1034A000F2F16422514300910168009AA2B1521EC8
:1034B00000928A689207F8D50A6822F040020A60F2
:1034C00001684A6822F0E0024A600168C968009118
:1034D000072180F8511008BD426D42F0400242655C
:1034E000EAE700002C00002001684A6822F0800210
:1034F0004A6001680A6822F040020A60072180F8E9
:103500005110704710B5406A0021C187C186FEF78F
:10351000E7FB10BD10B5406A01684A6822F003025B
:103520004A60416D41F010014165012180F8511060
:10353000FEF7D6FB10BD10B5406AFEF75FFE10BD6A
:1035400038B50546446AFDF7C1FC024628680068A4
:10355000800623D42068416821F020014160206862
:10356000416821F0020141606421204600F01AF810
:1035700018B1606D40F020006065A068002118B9A6
:103580002068C26880680090E186012084F85100BC
:10359000606D18B12046FEF7A3FB38BD2046FEF74C
:1035A00021FE38BDF8B515460E460B46009204467E
:1035B0000122022100F034F840B933460022802174
:1035C0002046009500F02CF8002804D0606D40F0F3
:1035D000200060650320F8BD01B582B00A2000908C
:1035E000012301AA02A90348FEF79EFC9DF80400EE
:1035F0000EBD00000417002010B5084C21680A68B1
:1036000022F040020A60E0612046FEF7DBFB206802
:10361000016841F04001016010BD00000417002066
:103620002DE9F8431E46914688460446089DFDF75D
:103630004DFC401B351AFDF749FC0746254800683C
:10364000C0F3CB30684338E0701C37D0FDF73EFC48
:10365000C01BA84203D215B1009860B32CE02068CB
:10366000416821F0E00141606068B0F5827F0BD1D4
:10367000A068B0F5004F02D0B0F5806F04D120688B
:10368000016821F040010160A06AB0F5005F09D136
:103690002068016821F4005101602068016841F44C
:1036A00000510160012084F85100002084F850008E
:1036B0000320BDE8F8830025401E00902068816843
:1036C00038EA010004D000214945BDD10020F0E7CF
:1036D0000121F9E72C0000207047FDF76DBF30B5E0
:1036E0008FB028216846FCF7A3FE14210AA8FCF736
:1036F0009FFE01210804CDE9001000240294022558
:103700000491CDE907504FF4E01009906846FEF7A8
:10371000C7F808B172B6FEE70F20CDE90A054FF4ED
:103720008060CDE90C4002210AA80E94FDF7DCFF71
:10373000002801D072B6FEE70FB030BD7047000020
:103740000148FEF78EBE0000A0170020F0B5026809
:10375000194B1A4C1A4D4FF08047984205D0B84289
:1037600003D0A04201D0A84203D122F070064A68DB
:103770003243984205D0B84203D0A04201D0A842BB
:1037800003D122F44074CA6822434C6922F08002BB
:10379000224302608A68C2620A688262984201D14A
:1037A00009690163012141610169C90703D0016908
:1037B00021F001010161F0BD002C01400004004036
:1037C0000008004010B5846842EA032224F47F44D4
:1037D0000A432243826010BD826822F070020A43CD
:1037E00042F007018160704710B5036A046A24F053
:1037F00001040462846924F0F00444EA021423F012
:103800000A020A438461026210BD10B5036A046AA9
:1038100024F010040462846923F0A00324F47044AB
:1038200044EA023243EA01118261016210BD10B51F
:10383000406A0021C185C184FEF7F4FE10BD70B559
:10384000446A2068406994F84110C0F3C010002514
:10385000212904D118B1E584204600F08EF82068B3
:10386000406994F84210C0F38010222904D118B1A5
:10387000E585204600F05AF8606C40F01000606466
:103880002046FEF7CFFE70BD10B50146406A0968BC
:1038900009684FF0000289062ED4C28501680C31F8
:1038A00051E8003F23F4807341E80034002CF5D147
:1038B0000168143151E8003F23F0010341E800346E
:1038C000002CF5D10168143151E8003F23F040038A
:1038D00041E80034002CF5D1202180F84210016B22
:1038E000012909D101680C3151E8003F23F0100390
:1038F00041E80034002CF5D14263016B012902D06C
:10390000FFF7C4F810BD818DFEF753FE10BD10B552
:10391000406A01214163016B012902D0FFF734F9AC
:1039200010BD818D4908FEF744FE10BD01680C31C1
:1039300051E8002F22F4907241E80023002BF5D1CA
:103940000168143151E8002F22F0010241E8002300
:10395000002BF5D1016B012909D101680C3151E827
:10396000002F22F0100241E80023002BF5D1202186
:1039700080F8421000210163704701680C3151E862
:10398000002F22F0C00241E80023002BF5D12021B6
:1039900080F84110704708B590F84210222901D0F4
:1039A000022008BD82684FF480539A4201D1016918
:1039B00021B1816A9A421BD04AB10AE00268816A49
:1039C0005268C2F308020A80816A891C08E0026911
:1039D00072B10268526802F07F020A70816A491C63
:1039E0008162C18D491E0904090CC18503D01BE009
:1039F00002685268F1E70168CA6822F02002CA60D2
:103A00000168CA6822F48072CA6001684A6922F0BB
:103A100001024A61202180F8421000214163026BBB
:103A2000012A03D0FFF732F8002008BD01630168C6
:103A30000C3151E8002F22F0100241E80023002B46
:103A4000F5D101680A68D20602D50A684968009172
:103A5000818DFEF7AEFDE7E770B5044600680169A9
:103A6000E26821F44051114301612169A0680843D3
:103A7000616908432168CA6841F20C639A430243B2
:103A8000CA6020684169A26921F440711143416113
:103A90001E492068884202D1FDF7CCFE01E0FDF707
:103AA000B9FE00EBC00101EB0012606864218000E8
:103AB000B2FBF0F3B3FBF1F36FF018067343B2FB04
:103AC000F0F5B2FBF0F605EB8305322303EB0515A9
:103AD000B5FBF1F5B6FBF1F605F0F00505EB0615C3
:103AE000B2FBF0F6B2FBF0F0B0FBF1F06FF01802B1
:103AF000504306EB800003EB0010B0FBF1F02168AF
:103B000000F00F002844886070BD000000380140BC
:103B100038B5816204468285002013466064222203
:103B200084F84220E56B1B4AAA62E56B1A4AEA62F6
:103B3000E56B1A4A2A63E26B50630A462168E06B20
:103B4000091DFDF783F8206801684068009020692E
:103B500048B120680C3050E8001F41F4807140E803
:103B60000012002AF5D12068143050E8001F41F0FF
:103B7000010140E80012002AF5D12068143050E815
:103B8000001F41F0400140E80012002AF5D100205A
:103B900038BD0000893800080F3900083F38000898
:103BA00081628285C28500214164222180F8421011
:103BB000016921B10168CA6842F48072CA60016873
:103BC0004A6942F001024A610068C16841F020017F
:103BD000C160002070472DE9F843984617460D460E
:103BE0000446089E24E0701C22D0FDF76FF9A0EB7C
:103BF0000800B0421AD8CEB12068C168490717D56D
:103C0000802D15D0402D13D00168C94309070FD46A
:103C100001680025406800902046FFF787FE0820D5
:103C2000606484F840500120BDE8F8830320FBE77E
:103C30002068006835EA000004D00020B842D2D0E5
:103C40000020F1E70120F9E70148FEF7FDBC000084
:103C5000E81700200148FEF7F7BC000030180020EC
:103C60002DE9F84310B10120BDE8F883FFF794FB7C
:103C70000024FF20FFF7B0FC641CE4B20A2CF8D348
:103C80003820FFF7B9FC4FF4FA740021952208465A
:103C9000FFF792FB012808D0641EA4B2F5D2FFF70B
:103CA0007BFB1020FFF7A8FCDDE7464D00268722AE
:103CB000AE704FF4D5710820FFF77EFB44F6206408
:103CC0004FF0010801281CD0012200213720FFF706
:103CD00073FB012200212920FFF76EFB01284BD83E
:103CE0000220A870012200213720FFF765FB012286
:103CF00000212920FFF760FBD0B3641EA4B2F1D2EB
:103D000045E000266F46FF20FFF766FCB855761C9D
:103D1000F6B2042EF7D39DF8020001283FD19DF89A
:103D20000300AA283BD14607012200213720FFF7D4
:103D300043FB012231462920FFF73EFB10B1641EF0
:103D4000A4B2F1D25CB3012200213A20FFF734FB88
:103D500028BB0024FF20FFF73FFC3855641CE4B269
:103D6000042CF7D39DF80000400602D5062001E0A0
:103D70000DE00420A87012E085F8028001220021E5
:103D80001046FFF719FB10B1641EA4B2F6D22CB195
:103D9000012251021020FFF70FFB00B1AE70FFF7B8
:103DA000FBFAFF20FFF718FC1020FFF725FCA8788E
:103DB00018B1287820F0010000E0404628702878EB
:103DC00052E700003000002070B5012408B1042043
:103DD00070BD31B1012914D0022915D0032917D1A2
:103DE00018E0FFF7E1FA0D4DFF20FFF7F5FBFF2884
:103DF00002D06D1EF8D200E005B10024FFF7CCFA26
:103E000006E04FF4000006E04FF40070108000243C
:103E1000204670BD01201060F9E7000020A10700D6
:103E200070B51E4614460D4630B92EB11E480178B5
:103E3000C90703D0032070BD042070BD8078062818
:103E400002D0042800D05402FFF7AEFA012E29D187
:103E5000012221461120FFF7AFFAD0B94CF25034BD
:103E6000FF20FFF7B9FBFE2802D0641EF8D200E065
:103E7000B4B100244FF40076FF20FFF7ADFB2855C6
:103E8000641CB442F8DBFF20FFF7A6FBFF20FFF71E
:103E9000A3FBFFF781FAFF20FFF79EFB002070BD18
:103EA000FFF77AFA012070BD300000200148007849
:103EB00070470000300000202DE9F0411D461646F5
:103EC0000F4638B935B1374C2078C00704D00320ED
:103ED000BDE8F0810420FBE72078400701D50220EF
:103EE000F6E7A078062802D0042800D05602FFF793
:103EF0005BFA012D3DD1012231461820FFF75CFA13
:103F000088BBFF20FFF768FBFF20FFF765FBFF2062
:103F1000FFF762FBFE20FFF75FFB002060706A0284
:103F200039462148FEF7F8F808B120A008E06FF004
:103F30007F4008E0401E06D21B48FDF741FE1EA050
:103F4000FCF708FD15E061780029F3D0FF20FFF7AA
:103F500043FBFF20FFF740FBFF20FFF73DFB00F096
:103F60001F00052807D0FFF717FAFF20FFF734FBE3
:103F700085B10120ACE7134CFF20FFF72DFBFF2894
:103F800002D0641EF8D200E034B1FFF705FAFF203A
:103F9000FFF722FB00209BE7FFF7FEF9FF20FFF76A
:103FA0001BFBE6E730000020041700205B48414C73
:103FB0005F4552525D0000005B54494D454F5554DA
:103FC0005D00000020A1070010B504460748006806
:103FD00000280AD02046FCF7BFF9214682B2BDE88E
:103FE000104064230148FEF7D0BD10BD30180020FA
:103FF000FEE70907090E002804DB00F1E02080F845
:104000000014704700F00F0000F1E02080F8141D4C
:104010007047000010B50446002084F80402401EDA
:10402000C4F82C02204601F065F908B1032010BD48
:10403000B4F8FE01A0F52A41553901D0022010BD87
:1040400094F8360094F8391094F8372040EA01616A
:1040500094F83800000440EA022001430A48B0EB1B
:10406000012F0DD014F8521FE278637841EA026103
:10407000A278120442EA03221143B0EB012F01D1CE
:10408000002010BD012010BD00464154F0B50022B3
:10409000184B144602EB420653F8265085B1D0F86F
:1040A0000072BD420DD103EB8605D0F808626F683F
:1040B000B74206D12D89B0F80662B54204D000E0BF
:1040C0000124521C022AE5D3022A01D079B904E066
:1040D0005CB9022909D01220F0BD02EB420003EBCB
:1040E00080004089B0F5807F01D00020F0BD102015
:1040F000F0BD00000019002030B50021064A0C4632
:1041000001EB410352F82350854201D142F823408C
:10411000491C0229F4D330BD00190020D0F8242214
:10412000D0F80002490A90F80202B1FBF0F0121D2B
:1041300002CA19B1884203D3401AF8E70020704739
:10414000116808447047D0F81422891E921E8A42D2
:1041500001D800207047D0F8282290F8020201FB15
:10416000002070472DE9F0410F00054606D000F011
:1041700079FE02280BD20120BDE8F081D5F80C624F
:104180001EB1D5F81402B04208D8012606E0411C41
:10419000F2D0D5F814128142EED83E463446D5F816
:1041A0001402641CA04202D80224022E0AD3214623
:1041B000284600F057FE38B1411CDDD00128DBD085
:1041C000B442ECD10020D7E76FF070422146284678
:1041D00001F0ABF830B957B122463946284601F014
:1041E000A4F820B1012812D001242046C4E7C5F864
:1041F0000C42D5F81002411CF7D0401EC5F8100241
:1042000095F8050240F0010085F80502EDE74FF052
:10421000FF34EAE72DE9F04789460C6800E0641CAA
:1042200021782F29FBD05C29F9D0D0F818520B2225
:104230002021284601F057F8002001460B460826A9
:10424000E25C5B1C202A35D92F2A33D05C2A31D07E
:104250002E2A01D0B04208D3082E38D12E2A36D1CA
:1042600008200B268906090EEAE7802A05D3244F89
:1042700041F003013A4412F8802C22A700E07F1C91
:1042800097F800C0BCF1000F02D09445F7D11EE0B2
:10429000A2F14107192F02D841F0020107E0A2F173
:1042A0006107192F03D8203A41F00101D2B22A54F4
:1042B000401CC5E71C44C9F80040202A01D804224C
:1042C00000E0002218B12878E52803D004E0062099
:1042D000BDE8F08705202870082E01D18806010E60
:1042E00001F00300012801D142F01002C1F3810066
:1042F000012801D142F00802EA720020E8E700003C
:104300000A560008222A2B2C3A3B3C3D3E3F5B5D7F
:104310007C7F0000401E022815D20C4B00EB4002AF
:1043200003EB82014889B0F5807F05D008B1401EBB
:1043300080B2488110B104E00020FAE7002043F881
:104340002200002070470220704700000019002062
:104350002DE9F041B0F806620446761C30040F46A1
:10436000000C37D0D4F8100298B3310773D1401C39
:10437000C4F81002D4F80C12D4F8000231B190F84D
:104380000222521E12EA161F05D064E0B0F808029D
:10439000B0421FD95FE000F065FD054601281ED937
:1043A000681C3AD0D4F80002D0F81412A94249D8B7
:1043B0007FB1D4F80C12FFF7D5FE05000DD0012D0A
:1043C0000DD0681C29D0D4F8000201F0C3F820BB3E
:1043D00007E0FFE70420BDE8F0810720FBE70220AB
:1043E000F9E74FF400720021D4F8000200F07BFFDF
:1043F0002946D4F80002FFF7A6FED4F800120027E1
:104400004FF00108C1F82C0211E000BF80F80482CF
:10441000D4F8000201F09EF808B10120DBE7D4F8DF
:104420000002D0F82C12491C7F1CC0F82C12D4F8C2
:10443000000290F80212B942E8D8D0F82C12C91B39
:10444000C0F82C12C4F80C522946D4F80002FFF729
:104450007AFEC4F81002A4F80662D4F8000206F04E
:104460000F0100EB4110C4F814020020B3E770B54F
:104470000446002100F036F810E0D4F81012D4F809
:10448000000200F037FF58B9D4F814020078E5288C
:1044900009D040B101212046FFF75AFF0028ECD097
:1044A000042809D009E0D4F81012D4F8000200F072
:1044B00021FF050003D013E00720054610E0D4F8E3
:1044C00014022022002104F5007400F00CFFD4E94E
:1044D00005010B2200F0FEFE2168012081F8040294
:1044E000284670BD70B5A0F80612D0F808320D4607
:1044F0000446012B40D0D4F80002D0F8141299429F
:104500003AD933B990F80012032906D1D0F82432F1
:104510001BB190F80202060114E0B0F80812A9429B
:104520002AD9D0F8240214E000F09CFC0346401C79
:1045300020D0022B20D3D4F80002D0F814029842E5
:104540001AD9AD1BD4F80002B5421946ECD2FFF7D8
:10455000FAFDC4F80C3278B100EB1510C4F8100263
:10456000D4F8000205F00F0100EB4110C4F814026A
:10457000002070BD012070BD022070BD084910B53B
:104580000B5C002253B901220A540A1801EB800087
:10459000127A40680168104688470246104610BDEE
:1045A0001819002030B4054C231804EB80001B7A46
:1045B000406804691846A44630BC604718190020BA
:1045C00030B4054D2C1805EB8000247A40688568CE
:1045D0002046AC4630BC604718190020044A111828
:1045E00002EB8000097A40684268084610470000E4
:1045F0001819002030B4054D2C1805EB8000247AE2
:104600004068C5682046AC4630BC60471819002099
:1046100010B5044600F016F900280DD1204600F030
:10462000C9FF002808D1D4F82802FFF773FE00283C
:1046300002D10021C4F8001210BD00002DE9F7419D
:1046400081B0904602980090684600F073FC040028
:1046500003D50B2004B0BDE8F0810E4E002756F8BC
:10466000245025B12846FFF747FD85F800720198D0
:10467000002801D080F8007246F8240002D0B8F17A
:10468000010F01D00020E5E7002202A901A800F0F7
:1046900021FADFE7540000202DE9F747ADF50B7D47
:1046A00006000ED04FF0000802F01F0727F00102AD
:1046B0008CA980A8C6F8008200F00CFA040005D08E
:1046C000B9E009200DF50E7DBDE8F08788A8869039
:1046D00068468C9900F066FB859D04000BD11DB1E6
:1046E000780803D0012102E0062404E00021684696
:1046F000FFF7CCFC044617F01C0F5FD04FF0010A07
:10470000D4B1042C13D100204D4902E0401C0228F2
:1047100005D200EB400251F82220002AF6D10228EF
:1047200004D06846FFF7A3FE044600E01224859DEE
:1047300047F0080754B17EE0E87A10F0110F01D07D
:10474000072478E0780701D5082474E0380743D5BA
:1047500000F0EEFBA873010AE973010C2974000E46
:10476000687485F80B8085F81C8085F81D8085F8B5
:104770001E8085F81F802946809800F049FC8146FC
:104780000021284600F083FE8099B9F1000F81F8DE
:1047900004A21FD080984946D0F82CA200F040FE19
:1047A000040048D18099A9F10100C1F80C025146DA
:1047B000809800F09FFD04000AD03CE0DCBBE87A62
:1047C000C10601D5042436E0B90701D5C007B7D129
:1047D000380701D547F020078098D0F82C02C6E9A9
:1047E0008705780801D0012100E00021684600F02B
:1047F000BFFBC6F8280200B386F8067286F8078267
:104800004746294606F50076809800F001FC3061A5
:10481000287FE97F6A7F40EA0160A97F090441EAB5
:1048200002210843C6E90270B76177628098306060
:10483000B0F80602B080204644E70224FBE70000FF
:104840000019002070B5044600F0B4FE002811D114
:1048500094F806128A060DD5480612D5D4F800023F
:104860000123214690F80102D4F81822FFF7C2FE76
:1048700008B1012070BD94F8060220F0400084F8D1
:104880000602D4F81C12D4F8000200F033FD002810
:10489000F0D1D4F82052E87A40F02000E87294F881
:1048A0000C022877B4F80C02000A6877D4F80C02DE
:1048B000000CA877D4F80C02000EE877D4F8101298
:1048C000284604F5007400F0E2FD00F031FBA87505
:1048D000010AE975010C2976000E68760020A8749B
:1048E000E874A07920F02000A0712168012081F8EF
:1048F00004022068BDE8704000F0D1BD2DE9F84FFA
:1049000088460021994615460446196000F052FE7B
:10491000002808D194F80702002804D194F8060270
:10492000800702D40720BDE8F88FD4F808020127D9
:1049300041194FF0020A81427BD3B9E0D4F8081242
:10494000C80577D1D4F8002292F80202401E00EA8E
:10495000512010F0FF061ED131B1D4F8240240B12D
:104960002046FFF7DBFB09E0D4F8100240B9002134
:1049700001E0D4F814121046FFF7F4FB002858D0D9
:1049800001283DD0411C6CD0C4F81402D4F8101298
:1049900009B9C4F8100294F80602400610D5D4F8FC
:1049A00000020123214690F80102D4F81822FFF7F3
:1049B00021FEE8BB94F8060220F0400084F80602CD
:1049C000D4F81412D4F80002FFF7BDFBC0B1304494
:1049D0000090680A5FEA000B30D0D4F8000206EBC2
:1049E0000B0290F802128A4201D9A1EB060B90F853
:1049F00001025B464146009AFFF7FCFDC0B903E0A7
:104A000084F807A202208EE7D4F818120098081A3A
:104A100058450CD208EB40214FF40072204600F0BC
:104A200059FC94F8060220F0400084F8060202E0E7
:104A300017E040E01CE04FEA4B262DE0D4F81812B6
:104A40000098814211D0D4E9820188420DD2D4F875
:104A500000020123214690F80102009AFFF7B0FD01
:104A600018B184F8077201205DE70098C4F81802B5
:104A7000B4F80802C0F30800C0F50076AE4200D9D1
:104A80002E4620443246414600F024FC94F80602AB
:104A900040F0400084F80602D4F80802B0443044E4
:104AA000C4F80802D9F800008119AD1BC9F800103C
:104AB000002D7FF443AFD4E98201884201D9C4F8C4
:104AC0000C0294F8060240F0200084F80602002050
:104AD00029E700002DE9FF474FF000090746C0F81D
:104AE00000901646084600F025FA050003D50B2075
:104AF00004B0BDE8F087A84850F82540A4B13C6058
:104B000094F8000228B194F80102FFF767FDC1078D
:104B10000CD084F80092E8B284F80102FFF72EFD71
:104B2000C10708D00320E3E70C20E1E70EB14007FE
:104B300004D40020DCE71EB1400701D50A20D7E7E6
:104B4000002529462046FFF765FA012827D10021D4
:104B50004FEA0D0704EB011090F8C22100F5DF7059
:104B60004AB1027AC37A42EA0362837A407A1B042A
:104B700043EA0020024347F82120491C0429E9D3D5
:104B80005FF0000657F826502DB129462046FFF762
:104B900041FA08B909E00220761C042EF2D303285A
:104BA00001D0E8BB01E00120A2E7B4F80B00B0F5AA
:104BB000007F70D1E28A6AB994F8240094F8271033
:104BC00040EA016294F8260094F82510000440EAB7
:104BD00001200243C4F81822217C84F80312012921
:104BE00001D0022957D1607B514384F80202B8B149
:104BF000431E18424FD1B4F81130A4F808321E07F2
:104C000049D1B4F813607EB994F8206094F8237009
:104C100094F821C046EA076694F822703F0400E049
:104C200039E047EA0C273E43B4F80EC0BCF1000F50
:104C300031D00CEB010707EB1317BE422BD3F61B49
:104C4000B6FBF0F038B3012640F6F678404500D3C5
:104C500002264FF6F678404500D30326801C2F44E9
:104C6000C4F82872AC44C4F81402C4E9875C032E6B
:104C700013D083B16144C4F82412022E21D000F075
:104C8000010100EB400001EB500000BF00F2FF10FB
:104C9000B2EB502F17D20D202AE7002BFBD194F84E
:104CA0002C1094F82F3094F82D7041EA036194F899
:104CB0002E301B0443EA072319438000C4F8241252
:104CC000E4E74000E2E74FF0FF30C4F81002C4F818
:104CD0000C02802084F80502032E4FD1208E01287B
:104CE0004CD12046691C00F005FBE0BB84F805921E
:104CF000B4F8FE01A0F52A4155393FD12078E1787A
:104D0000627840EA0160A178090441EA022108437F
:104D10002249884232D194F8E40194F8E71194F8DA
:104D2000E52140EA016094F8E611090441EA022114
:104D300008431B49884221D194F8E80194F8EB110B
:104D400094F8E92140EA016094F8EA11090441EA83
:104D500002210843C4F8100294F8EC0194F8EF1112
:104D600040EA016000E009E094F8EE1194F8ED21CA
:104D7000090441EA02210843C4F80C02064984F8F8
:104D80000062091F0888401C0880A4F8060220461B
:104D9000FFF7B2F9CDE60000540000205252614105
:104DA0007272416173B50446019908782F2801D0C9
:104DB0005C2801D1491C01910025C4F808520198D2
:104DC0000078202806D200212046FFF78BFBC4F88C
:104DD00014527CBD01A92046FFF71CFA0028F8D127
:104DE00000212046FFF77EFB20BB00BFD4F8101245
:104DF000D4F8000200F07EFAE0B9D4F814120A7870
:104E000032B1CA7A12070FD40A23D4F8182203E069
:104E100004200FE05B1E06D311F8015B12F8016B52
:104E2000AD1BF7D000E02DB100212046FFF790FA2E
:104E30000028DBD0D4F81812C97A28B10428C8D1C8
:104E40004907C6D405207CBD4907FCD4D4F8141208
:104E5000C87AC006F6D5D4F8000200F0D9F8C4F834
:104E60000802B7E72DE9F0410D46044602290DD3AB
:104E7000D4F81402A84209D994F800024FF0FF3682
:104E8000012807D002282AD0032836D00126304630
:104E9000BDE8F081D4F8200205EB550700EB57215F
:104EA000204600F027FA0028F1D1C7F308007F1C44
:104EB00014F80080D4F8200200EB5721204600F0BF
:104EC00019FA0028E3D1C7F30800215C48EA012061
:104ED000E90701D00609DAE7C0F30B06D7E7D4F8F3
:104EE000200200EB1521204600F004FA0028CED164
:104EF000E8B204EB40000688C9E7D4F8200200EBD2
:104F0000D511204600F0F6F90028C0D140F2FF107C
:104F100000EA850020440178C27841EA0261827883
:104F20004078120442EA0020014321F07046AEE7C7
:104F30000020704710B504464FF0FF302268002A69
:104F400013D0114600E0491C0B78212B0ED33A2BCD
:104F5000F9D112F8013B303B0A2B06D28A4204D128
:104F6000002B02D1491C1846216010BD002010BD45
:104F7000F0B50346254AD3F80042002000EB400577
:104F800052F82560A6420BD102EB8505D3F80862E2
:104F90006F68B74204D12D89B3F80662B54202D0DA
:104FA000401C0228EAD302281AD1002002E0401C4B
:104FB000022805D200EB400552F82550002DF6D10D
:104FC000022815D000EB400542F8254002EB85048D
:104FD000D3F808626660B3F8063223810023638148
:104FE000002900EB400102EB8101498902D019B18F
:104FF0000020F0BD491C01E04FF4807100EB40033C
:1050000002EB8302401C5181F0BD0000001900201A
:105010000246488B92F80022032A02D1898A40EA8C
:10502000014070478EB0FCF7CFFAFEF758FBFEF751
:105030009DF8FEF767F8FEF751F9FEF76BF9FEF7FA
:10504000D5F8FEF717F9FEF7F1F8FEF781F800251D
:1050500008200127CDE90205CDE9047502A97148B0
:10506000FBF73EFE4FF4FA60FBF728FE0022012119
:105070000D20FCF707FB0D20FCF7F6FAFEF72EF9E2
:10508000FEF748F96848006801684068674C00907E
:10509000257120216648FBF7CBF9657165A0FEF705
:1050A00093FF01226CA16D48FFF7C8FA60720028D7
:1050B00060D0A5706AA0FEF787FF00BFFDF7D6FF9E
:1050C0005A4901220A315848FDF7D2FC6848FDF7D9
:1050D0002DF9684E3068016840684FF47A78DFF83F
:1050E00098910090FBF7F2FEA169401A404505D95E
:1050F000FBF7ECFEA06161A0FEF766FFFEF78CF9FE
:1051000020790228207A3CD00128EBD15948FDF7BC
:1051100051FA2572F06B006840686269C0F5006062
:10512000904205D9801A81B209EB0200FBF7D4FB4B
:10513000A2894AB1524821783C4B00EB41211C33F3
:1051400000F5C660FFF7DAFBE0780028CAD04DA072
:10515000FEF73AFF4F48FFF75BFA607200285ED017
:1051600002464DA106A8FBF737F806A8FEF72CFF6C
:10517000E570B7E7A7704BA0FEF726FFFBF79EFA96
:105180009CE790B930680168416801910168406806
:10519000009065614FF40062374936482561FDF79C
:1051A00059FC277242A0FEF70FFFF06B00684068C1
:1051B000C0F5006121616069814213D004D9A1EB7F
:1051C000000189B2484409E0C0F5006189B2484451
:1051D000FBF782FB206918B181B22748FBF77CFB03
:1051E00020696061E0790028C3D0E571A079C0EB47
:1051F000C001334800EB4100FDF752FF012802D106
:10520000A079401CA071A0793228B2D3A571FEF715
:105210009FF84FF448712B48FBF75EFB62E72AA02A
:10522000A4E7000000080140301800200000002022
:10523000901600200D0A3D3D3D2052454144592025
:1052400028446F75626C65427566202B20444D4181
:1052500029203D3D3D0D0A000000000034120020D1
:105260004D6F756E74204661696C210D0A00000057
:10527000A0170020E8170020340600202A000000B4
:10528000340E00200D0A436C6F73696E672E2E2E4C
:105290000D0A0000641400204572723A2025640D46
:1052A0000A0000004D6F756E74204F4B2E0D0A00E2
:1052B0005B537461727420526563765D0000000078
:1052C0005800002014030020434C4F5345442E0D3A
:1052D0000A00000004E000BF11F8013B00F8013BA8
:1052E000521EF9D27047C9B201E000F8011B521EEC
:1052F000FBD2704770B50546D0F82C020C4600264C
:10530000A04210D0284600F025F906000BD195F8F0
:105310000102012322462946FFF752F908B1741E03
:105320000126C5F82C42304670BD2DE9F0471746DE
:105330000D460446022903D3D4F81402A84202D829
:105340000220BDE8F08794F8001207F0FF084FF044
:10535000010901291FD002294FD00329F0D1D4F827
:10536000200200EBD5112046FFF7C4FF0028E8D14A
:1053700040F2FF1101EA85010A194FF07043D1781C
:1053800003EA0161394311700B0A53700B0C9370DF
:10539000090ED17041E0D4F8200205EB550600EB70
:1053A00056212046FFF7A6FF0028CAD1C6F3080001
:1053B000761C2044E90703D0017868F31F1100E050
:1053C0003946017084F80492D4F8200200EB56218B
:1053D0002046FFF78FFF0028B3D1C6F30801214410
:1053E000EA0702D0C7F3071205E00A78C7F30323E0
:1053F00002F0F0021A430A700FE0D4F8200200EB2A
:1054000015212046FFF776FF00289AD1E9B204EB78
:1054100041013A0A81F800804A7084F8049290E7CA
:105420002DE9F0410F460646022917D3D6F814029B
:10543000B84213D9002523E039463046FFF712FD64
:10544000040021D0012C09D0601C09D0002239466B
:105450003046FFF76AFF050016D103E0022513E08E
:10546000012511E0D6F81002411C08D0401CC6F8F6
:10547000100296F8050240F0010086F80502274662
:10548000D6F81402B842D7D82846BDE8F081817614
:105490000A0AC2760A0C0275090E4175704770B58A
:1054A000044600F057F8050052D194F80002032892
:1054B00046D194F80502012842D14202002120463B
:1054C000FFF711FF552084F8FE01AA2084F8FF01A0
:1054D0005220207060706120A0704121E170722222
:1054E00084F8E42184F8E52184F8E61184F8E701E2
:1054F000D4F8100284F8E801010A84F8E911010CDB
:1055000084F8EA11000E84F8EB01D4F80C0284F858
:10551000EC01010A84F8ED11010C84F8EE11000E83
:1055200084F8EF01D4F81C220123521CC4F82C2269
:1055300094F801022146FFF75DF8002084F8050287
:10554000002294F801021146FFF72CF800B1012562
:10555000284670BD2DE9F041044690F8040200276A
:1055600028B3D4F82C5294F8010201232A4621468C
:10557000FFF740F808B1012719E0002084F8040281
:10558000D4F82002D4F81812281A88420FD294F8BE
:1055900003620AE0D4F818020123054494F80102DA
:1055A0002A462146FFF726F8761E022EF2D238460A
:1055B000BDE8F08110B588B1D0F8001271B191F852
:1055C00000225AB1B1F80622B0F80402824205D195
:1055D00091F80102FFF702F8C00700D0092010BDC2
:1055E000010202030405060708090A0B0C0D0E0F41
:1055F0001010000000000000000001020304060774
:1056000008090000000001020304809A90B68EB7DA
:105610008F80D2D3D4D8D7DE8E8F909292E299E346
:10562000EAEB59999A9D9C9D9E9FB5D6E0E9A5A568
:10563000A6A7A8A9AAABAC21AEAFB0B1B2B3B4B51E
:10564000B6B7B8B9BABBBCBDBEBFC0C1C2C3C4C582
:10565000C7C7C8C9CACBCCCDCECFD0D1D2D3D4D571
:10566000D6D7D8D9DADBDCDDDEDFE0E1E2E3E5E561
:10567000E6E7E7E9EAEBEDEDEEEFF0F1F2F3F4F552
:10568000F6F7F8F9FAFBFCFDFEFF0004000200014A
:10569000800040002000100008000400020000000C
:1056A0000080004000200010000800400020001092
:1056B0000008000400020000D85600080000002086
:1056C000580000002801000830570008580000204A
:1056D000301F00004401000800FF0000000000002F
:1056E00000000000000000000000000000000000BA
:1056F0000000000000000000010000001000000099
:105700000000000000127A0001000000613C000867
:10571000AD3E0008213E0008B93E0008C93D000822
:105720000000000000000000000000000000000079
:04000005080000ED02
:00000001FF
