:020000040800F2
:10000000101E00208901000837250008BD1E0008C9
:10001000352500087F0300080D2B000800000000B4
:100020000000000000000000000000007F25000824
:10003000C3030008000000007D250008812500089A
:10004000A3010008A3010008A3010008A301000800
:10005000A3010008A3010008A3010008A3010008F0
:10006000A3010008A3010008A3010008A3010008E0
:10007000A3010008A3010008A301000881030008F0
:10008000A30100088D030008A3010008A3010008D4
:10009000A3010008A3010008A3010008A3010008B0
:1000A000A3010008A3010008A3010008A3010008A0
:1000B000A3010008D5250008A3010008A30100083A
:1000C000A3010008A3010008A3010008A301000880
:1000D000A3010008DD2A0008E92A0008A30100089E
:1000E000A3010008A3010008A301000800F002F822
:1000F00000F03AF80AA090E8000C82448344AAF188
:100100000107DA4501D100F02FF8AFF2090EBAE885
:100110000F0013F0010F18BFFB1A43F0010318473B
:10012000602B0000802B0000103A24BF78C878C1F3
:10013000FAD8520724BF30C830C144BF04680C60ED
:10014000704700000023002400250026103A28BF35
:1001500078C1FBD8520728BF30C148BF0B60704739
:100160001FB51FBD10B510BD00F0CFF81146FFF749
:10017000F7FF02F0DDFC00F0EDF803B4FFF7F2FF4B
:1001800003BC00F0F5F80000094880470948004723
:10019000FEE7FEE7FEE7FEE7FEE7FEE7FEE7FEE737
:1001A000FEE7FEE704480549054A064B7047000094
:1001B000D3250008ED00000810180020101E0020B4
:1001C000101A0020101A0020032A40F2308010F08C
:1001D000030C00F0158011F8013BBCF1020F6244E2
:1001E00098BF11F801CB00F8013B38BF11F8013B73
:1001F000A2F1040298BF00F801CB38BF00F8013B20
:1002000011F0030300F04F80083AC0F0088051F865
:10021000043B083A51F804CBA0E80810F5E7121D9A
:100220005CBF51F8043B40F8043BAFF30080D207B9
:1002300024BF11F8013B11F801CB48BF11F8012B85
:1002400024BF00F8013B00F801CB48BF00F8012BA8
:1002500070474FF0000200B5134694469646203989
:1002600022BFA0E80C50A0E80C50B1F12001BFF46F
:10027000F7AF090728BFA0E80C5048BF0CC05DF8D5
:1002800004EB890028BF40F8042B08BF704748BF23
:1002900020F8022B11F0804F18BF00F8012B704797
:1002A00070477047704710B5203AC0F00B80B1E836
:1002B0001850203AA0E81850B1E81850A0E818509B
:1002C000BFF4F5AF5FEA027C24BFB1E81850A0E8A4
:1002D000185044BF18C918C0BDE810405FEA827CBE
:1002E00024BF51F8043B40F8043B08BF7047D207D5
:1002F00028BF31F8023B48BF11F8012B28BF20F876
:10030000023B48BF00F8012B7047754600F02CF8FF
:10031000AE4605006946534620F00700854618B0F2
:1003200020B5FFF73FFFBDE820404FF000064FF03B
:1003300000074FF000084FF0000B21F00701AC461A
:10034000ACE8C009ACE8C009ACE8C009ACE8C00939
:100350008D46704710B50446AFF300802046BDE8D7
:100360001040FFF70ABF000000487047AC1700209C
:1003700001491820ABBEFEE7260002007047FEE7E9
:10038000014800F091B8000024170020014800F057
:100390008BB800006817002030B590F84050012459
:1003A000AC40C56B6C60046863604368102B0368E5
:1003B00003D099600068C26030BD9A600068C16077
:1003C00030BD704772B6FEE710B590F821100022DC
:1003D000022905D00421816380F82020012010BD6E
:1003E00001680B6823F00E030B6001680B6823F0B3
:1003F00001030B6090F84030C46B012101FA03F354
:10040000636080F8211080F82020104610BD0000A5
:1004100010B590F821100024022903D00421816333
:1004200001243DE001680A6822F00E020A600168BA
:100430000A6822F001020A601A4A0168914201D159
:10044000012121E0174A1432914201D110211BE011
:10045000144A2832914201D1891515E0114A3C32E3
:10046000914201D189140FE00E4A5032914202D1DB
:100470004FF4803108E00B4A6432914202D14FF4CC
:10048000801101E04FF08071064A083A5160012165
:1004900080F82110002180F82010416B01B18847BD
:1004A000204610BD080002402DE9F05FC16B0C68CA
:1004B00001680B68D0F840C0042202FA0CF2494DE2
:1004C000DFF824A1494E4A4FDFF828B1DFF828E1D0
:1004D00022422CD05A072AD50A68920603D40A6809
:1004E00022F004020A600168A94201D1042219E045
:1004F000514501D1402215E0B14202D14FF4806252
:1005000010E0B94202D14FF480420BE0594502D1CC
:100510004FF4802206E0714502D14FF4800201E0E1
:100520004FF080622F4908394A60C16A3BE04FF0C2
:10053000020808FA0CF818EA040F4FF000094FF00F
:10054000010235D05FEA837832D50B689B0605D46B
:100550000B6823F00A030B6080F821200168A94290
:1005600001D1022219E0514501D1202215E0B1420A
:1005700002D14FF4007210E0B94202D14FF40052A0
:100580000BE0594502D14FF4003206E0714502D12B
:100590004FF4001201E04FF00072124908394A602E
:1005A00080F82090816A00291AD0BDE8F05F0847E2
:1005B000082505FA0CF5254212D01B0710D50B684B
:1005C00023F00E030B6090F84010C36B02FA01F1A8
:1005D0005960826380F8212080F82090016BE2E767
:1005E000BDE8F09F080002401C00024030000240BD
:1005F00044000240580002406C00024030B528B36D
:1006000008C8134914221944B1FBF2F18900C163EF
:1006100010498163022141771A6843F6F0718A43D9
:10062000D0E900142143D0E902452C432143046959
:100630002143446921438469214311431960002106
:100640004163012242770177084630BD012030BD69
:10065000F8FFFDBF0000024070B5044690F820008E
:10066000002501280CD0012084F8200094F8216096
:100670000020012E06D084F820000225284670BDF7
:10068000022070BD022684F82160A06320680668FD
:1006900026F0010606602046FFF77EFEE06A00288D
:1006A0002068016802D041F00E0106E021F004014B
:1006B00001602068016841F00A010160206801685A
:1006C00041F001010160D9E770B5044600F0FEF881
:1006D0000546601C02D004480078044400F0F6F897
:1006E000401BA042FAD370BD0C0000202DE9F84F4A
:1006F000DFF8B8910024A9F1040B23460F2709F174
:10070000040AABF1040EC9E00125A5402A40AA4223
:100710007DD1674ED1F804C0ACEB0608B44532D0A9
:1007200014DCBCF1030F3AD009DCBCF1000F2AD075
:10073000BCF1010F1CD0BCF1020F31D11DE0BCF1A6
:10074000110F17D0BCF1120F2AD119E0B8F5881F8C
:1007500019D006DCB8F5803F15D0B8F5801F1FD141
:1007600011E0B8F5001F0ED0B8F5041F18D10AE04B
:10077000CB6815E0CB681B1D12E0CB6808330FE097
:10078000CB680C330CE08B682BB1012B4FF00803C6
:1007900003D0456104E0042302E0056100E000238A
:1007A000FF2A01D8064601E000F104064FEA84055D
:1007B00001D9A5F12005D6F8008007FA05FC28EA42
:1007C0000C0803FA05F548EA0508C6F800804D68EC
:1007D000ED0062D5374DAE6946F00106AE61AD69F8
:1007E00024F0030605F001050095334D06EB050CDA
:1007F000DCF80850A607360F07FA06F825EA0805C0
:10080000DFF8B880404503D14FF0000817E044E01E
:10081000DFF8AC80404502D14FF001080FE0DFF86F
:10082000A480404502D14FF0020808E0DFF898802C
:10083000404502D14FF0030801E04FF0040808FAE8
:1008400006F848EA0508CCF808804D68D9F8006039
:10085000ED024D4601D5164300E096432E604D68EB
:10086000DAF80060AD02554601D5164300E0964324
:100870002E604D68DBF80060AD035D4601D5164380
:1008800000E096432E604D68DEF80060ED0375468B
:1008900001D5164300E096432E60641C0D682A467D
:1008A000E5407FF431AFBDE8F88F00000804014057
:1008B000000011100010024000000140000801403B
:1008C000000C014000100140001401400148806804
:1008D000704700000C00002070B5040025D094F88B
:1008E0003D00002520B984F83C50204600F034FB40
:1008F000242084F83D002068016821F00101016096
:100900002068016841F4004101602068016821F419
:100910000041016000F07EFC4D4A6168914201D8BF
:100920004C4900E04C49884201D2012070BD4B493E
:100930002368B0FBF1F15E6826F03F060E435E606F
:100940006368934206D94FF4967359434FF47A7310
:10095000B1FBF3F12368491C1E6A26F03F063143C0
:1009600019626168914210D84900401EB0FBF1F253
:10097000521CC2F30B02042A01D2042022E0B0FB75
:10098000F1F0401CC0F30B001CE0A268F2B301EBD5
:10099000C10303EB0116431EB3FBF6F35B1C43F4E8
:1009A00080431B0549D092B301EBC10202EB011158
:1009B000401EB0FBF1F0401CC0F30B0040F480403F
:1009C00040F400402168CA694CF6FF739A43104313
:1009D000C861D4E9071001432068026822F0C00210
:1009E00011430160D4E9030101432068826848F2A1
:1009F000FF339A4311438160D4E90501084321681C
:100A0000CA6822F0FF021043C86001E00EE016E061
:100A10002068016841F0010101602564202084F80C
:100A20003D00256384F83E50002070BD01EB410677
:100A3000431EB3FBF6F35B1CB3E70120C2E701EBF7
:100A40004101401EB0FBF1F0401CC0F30B00B7E7C2
:100A5000A086010080841E0000093D0040420F0076
:100A60002DE9FF4F81B089460446FFF72FFF054669
:100A700094F83D004FF0000820287DD11923012271
:100A800050492046009501F02FFB002874D194F8BE
:100A90003C00012870D0012084F83C0020680168E7
:100AA000C90703D1016841F00101016020680168B4
:100AB00021F400610160242084F83D0000262664B2
:100AC0004148E0624FF0011B20272068016841F493
:100AD000807101600095002259462046049B01F078
:100AE00003FB50B120680068C00502D54FF40070C8
:100AF0002064032005B0BDE8F08F216809F0FE00F6
:100B00000861FFF7E3FE2168054648694969C0F3BB
:100B10004000C1F380214FF0A00A0FE0FFF7D6FE9E
:100B2000411B0498814200D808B984F83DA021688F
:100B300048694969C0F34000C1F3802194F83D2021
:100B4000A02A02D008B90029E8D084F83D702068B6
:100B50004169C943890716D4016841F400710160F5
:100B600020684169806919230122164920460095B1
:100B700001F0BAFAB8B900E021E084F83D7084F8D9
:100B80003C600020B6E7016841F400710160216813
:100B90006FF480604861192301220A4920460095BC
:100BA00001F0A2FA08B10120A4E7039808F10108B6
:100BB00080458AD384F83D7084F83C60F3E70220D6
:100BC00098E70000020010000000FFFF2DE9FF4F32
:100BD00083B00025DDE910799A4693460446DDF896
:100BE00048800095FFF772FE064694F83D002028E5
:100BF0007CD11923012288492046009601F074FA1D
:100C00000028F5D194F83C0001286FD0012084F829
:100C10003C0020680168C90703D1016841F0010167
:100C200001602068016821F400610160222084F8DD
:100C30003D00402084F83E0025646762A4F82A90B5
:100C4000608D20857548E062CDE9008653465A469E
:100C50002046049901F04AF900287CD1208DDFF864
:100C6000C091202768B1012814D0022820680168AB
:100C70001ED041F480610160206841698069009064
:100C8000BCE02068416981690091016841F400710C
:100C90000160B3E02068016821F48061016072B6F0
:100CA0002068416981690091016841F400710AE09E
:100CB00041F40061016072B6206841698169009168
:100CC000016821F48061016062B697E0032865D86D
:100CD00001280CD0022843464FF000024946204626
:100CE00000960BD001F000FAA8BB0CE091E0324670
:100CF0004146204601F09EFA68BB72E001F0F4F92B
:100D000048BB72B633E02068016821F4806101605D
:100D100072B620680069616A0870606A401C60628F
:100D2000208D401E2085608D401E60853D4846F226
:100D3000A8110068B0FBF1F0C0EBC00000EB800030
:100D40000090401E009007D020684069C0434007D3
:100D50000DD50098F5E727E044F8305F6773A57379
:100D6000206940F02000206162B625731CE02068F5
:100D7000016841F40071016020680069616A0870CF
:100D8000606A401C6062218D491E2185618D491E6B
:100D9000618562B621680969017026E032464146E4
:100DA000204601F047FA18B1012007B0BDE8F08FE6
:100DB00020680069616A0870606A401C6062208D6A
:100DC000401E81B22185608D401E60852068426989
:100DD000D243520712D4032903D1016821F4806160
:100DE000016020680069616A0870606A401C606286
:100DF000208D401E2085608D401E6085208D00283E
:100E00007FF464AF84F83D7084F83E5084F83C5021
:100E1000CBE70220C9E70000020010000000FFFF3E
:100E200004000100180000202DE9FF4F83B09A460E
:100E3000DDE9119793460446DDF84080FFF746FD53
:100E4000054694F83D0020287FD11923012240490E
:100E50002046009501F048F9002876D194F83C002E
:100E6000012872D0012084F83C0020680168C9077D
:100E700003D1016841F0010101602068016821F49B
:100E800000610160212084F83D00402084F83E008C
:100E900000262664C4F82480A4F82A90608D20855A
:100EA0002C48E062CDE9007553465A462046049925
:100EB00001F09AF870B930E02A463946204601F030
:100EC000F1F958B1206C042804D12068016841F47C
:100ED00000710160012007B0BDE8F08F606A2168F1
:100EE00000780861606A401C6062218D491E89B2E9
:100EF0002185628D521E628522685369DB435B0740
:100F00000BD469B100781061606A401C6062208D6A
:100F1000401E2085608D401E6085208D0028CBD12D
:100F20002A463946204601F0B3F80028CAD154F8C1
:100F30003D0B016841F400710160202004F81E0996
:100F4000E67766770020C6E7FFE70220C3E70000E8
:100F5000020010000000FFFF10B586B000210091D4
:100F60000191029103910068104988421BD1104CF5
:100F7000A06940F00800A061A069694600F008007F
:100F800004904FF4406000901220019003200390E1
:100F90000848FFF7ABFBE06940F48000E061E069DE
:100FA00000F48000049006B010BD0000005800401E
:100FB00000100240000C0140024881680278114490
:100FC000816070470C000020074810B5016841F0AF
:100FD00010010160032000F075F80F2000F006F802
:100FE00000F024F8002010BD0020024070B50D4D27
:100FF00004464FF47A712878B1FBF0F00A49096889
:10100000B1FBF0F000F0DCFA48B9102C07D2002256
:101010002146501E00F036F800206C6070BD0120A3
:1010200070BD00000C000020180000200C4808B51E
:10103000816941F001018161816901F00101009143
:10104000C16941F08051C161C06900F080500090D9
:101050000448416821F0E06141F00071416008BD41
:101060000010024000000140002809DB00F01F02D0
:10107000012191404009800000F1E020C0F80011FA
:1010800070470000F0B40E4B1B680C46C3F30223FC
:10109000C3F10705042D00D90425191D072901D224
:1010A000002300E0DB1E012606FA05F1491E21405F
:1010B00099409E40761E16403143F0BC01F027BD9A
:1010C0000CED00E0064900F0070208684FF6FF0348
:1010D000184040EA0220034A1043086070470000AD
:1010E0000CED00E00000FA052DE9F0470F46050081
:1010F00061D0434E306800F00700B84209D2306832
:1011000020F0070038433060306800F00700B84234
:1011100051D128683B4C810712D5400703D5606840
:1011200040F4E06060602878000703D5606840F410
:10113000605060606068A96820F0F000084360605B
:101140002878C00728D06868012810D021680228B4
:1011500010D0890700292EDA616821F003010143CC
:101160006160FFF7B3FB804641F288390DE02168EA
:101170008903EFE78901EDE7FFF7A8FBA0EB080182
:10118000494502D90320BDE8F0876068696800F02E
:101190000C00B0EB810FEFD1306800F00700B842CF
:1011A0000BD9306820F0070038433060306800F019
:1011B0000700B84201D00120E5E72878400705D5AF
:1011C0006068E96820F4E060084360602878000700
:1011D00006D56068296920F4605040EAC10060606B
:1011E00000F038F86168084AC1F30311515CC84047
:1011F0000649086006480068FFF7F8FE0020C2E7CD
:101200000020024000100240662C00081800002058
:10121000100000200448054900684968044AC1F3E9
:101220000221515CC84070471800002000100240A5
:10123000762C00080448054900684968044AC1F34F
:10124000C221515CC84070471800002000100240C5
:10125000762C00080E4A51680E4801F00C03042B4E
:1012600011D0082B0FD10C48C1F38343C903C05CD4
:101270000AD55168084AC1F34041921E515C054AA3
:101280005043B0FBF1F070470449484370470000F9
:101290000010024000127A00562C000800093D00A0
:1012A0002DE9F84F040070D02078C04DC00749D018
:1012B0006868C0F38100012807D06868C0F3810026
:1012C000022809D16868C00306D52868800339D58B
:1012D00060680028E7D035E06068B0F5803F0BD04B
:1012E00010B1B0F5A02F11D0286820F4803028600C
:1012F000286820F4802002E0286840F480302860CC
:10130000606890B1FFF7E2FA06460AE0286840F408
:1013100080202860F0E700BFFFF7D8FA801B642820
:1013200073D828688003F7D50CE0FFF7CFFA06469C
:1013300005E000BFFFF7CAFA801B6428F0D82868D0
:101340008003F7D420789A4E80074FF001094FF0C0
:10135000000839D5686810F00C0F07D06868C0F332
:101360008100022809D16868C00306D42868800774
:1013700014D52069012808D110E02069B0B1C6F861
:101380000090FFF7A3FA074605E00AE1FFF79EFA8F
:10139000C01B0228C4D828688007F7D5286861696F
:1013A00020F0F80040EAC10028600DE0C6F8008097
:1013B000FFF78CFA074604E0FFF788FAC01B022803
:1013C00023D828688007F7D4207800072CD57948DF
:1013D000A169D9B1C0F80090FFF778FA074604E098
:1013E000FFF774FAC01B02280FD8686A8007F7D588
:1013F00071484FF4FA510068B0FBF1F0009000BF63
:101400000098411E0091FAD20EE080E0C0F8008002
:10141000FFF75CFA074604E0FFF758FAC01B022802
:1014200075D8686A8007F7D42078400760D5E869E6
:101430000027C00008D4E86940F08050E861E869FE
:10144000012700F0805000905C480168C90513D462
:101450000168834641F480710160FFF737FA8246E4
:1014600006E000BFFFF732FAA0EB0A0064284ED86E
:10147000DBF80000C005F5D5E06801280AD008B106
:10148000052813D0286A20F001002862286A20F07D
:10149000040002E0286A40F001002862E06841F29E
:1014A000883B98B1FFF712FA82460BE0286A40F0B9
:1014B00004002862EEE700BFFFF708FAA0EB0A017C
:1014C00059455AD8286A8007F6D50CE0FFF7FEF98F
:1014D000824605E0FFF7FAF9A0EB0A0159454CD81E
:1014E000286A8007F6D41FB1E86920F08050E861CF
:1014F000E06988B36968C1F38101022944D00228F8
:10150000C6F8608004D0FFF7E1F9044638E034E023
:10151000FFF7DCF9074604E0FFF7D8F9C01B022803
:101520002BD828688001F7D4206AB0F5803F05D118
:101530006868A16820F4003008436860D4E90801B5
:101540000843696821F4741108436860C6F8609024
:10155000FFF7BCF9044606E025E000BFFFF7B6F947
:10156000001B022809D828688001F7D51BE000BFBE
:10157000FFF7ACF9001B022802D90320BDE8F88F61
:1015800028688001F4D40EE00128F7D06868226A48
:1015900000F48031914204D1616A00F470108842F5
:1015A00001D00120EAE70020E8E700000010024037
:1015B00000004242800442421800002000700040B7
:1015C00010B5401EB0F1807F01D3012010BD4FF057
:1015D000E02460610F21601701F099FA0020A061FA
:1015E00007202061002010BD7047704770B590F84B
:1015F0003C20012A26D0012480F83C40022280F8B9
:101600003D2003685A689D6822F070060A683243DC
:101610005A600D4B02689A4208D0B2F1804F05D053
:101620000A4B9A4202D00A4B9A4204D1496825F0EB
:1016300080031943916080F83D40002180F83C1000
:10164000084670BD022070BD002C0140000400401F
:101650000008004010B5040003D094F83D0010B11C
:1016600007E0012010BD002084F83C00204600F077
:101670001FF8022084F83D00211D206800F0B0FF13
:10168000012084F8460084F83E0084F83F0084F886
:10169000400084F8410084F8420084F8430084F854
:1016A000440084F8450084F83D00002010BD00008F
:1016B00008B500680B49884212D10B48C16941F056
:1016C0000201C161C069002200F0020000901146D1
:1016D0001D20FFF7D7FCBDE808401D20FFF7C4BC64
:1016E00008BD0000000400400010024090F83D10CA
:1016F000012901D001207047022180F83D100168C6
:10170000CA6842F00102CA6000680B49884208D0EA
:10171000B0F1804F05D00949884202D0084988427B
:1017200004D1816801F00701062903D0016841F066
:101730000101016000207047002C014000040040BE
:101740000008004070B5044690F83C0000250128D0
:1017500017D0012684F83C60022084F83D00206800
:10176000826822F0770222F47F4282600868502863
:1017700038D00DDC20284FD005DC90B3102811D1D3
:101780004AE0022070BD302846D040280AD13BE014
:1017900060282FD070280DD0B0F5805F03D0B0F551
:1017A000005F12D0012584F83D60002084F83C00E1
:1017B000284670BDCB68D1E90121206800F04CFFBC
:1017C0002068816841F0770109E0CB68D1E9012107
:1017D000206800F041FF2068816841F48041816009
:1017E000E1E719E0CA684968206800F047FF502126
:1017F000206806E0CA684968206800F050FF602150
:10180000206800F033FFCEE7CA684968206800F01E
:1018100035FF40212068F4E7226801461046F0E7D2
:1018200070472DE9F04104460068C66805694FF02D
:101830000007A90713D5B10711D5F91E01610120D1
:101840002077206880698007204602D0FFF7E8FFF4
:1018500004E000F07EF8204600F07CF82777680767
:1018600016D5700714D521686FF0040008610220B6
:1018700020772068806910F4407F204602D0FFF76F
:10188000CFFF04E000F065F8204600F063F827770A
:10189000280715D5300713D521686FF008000861B7
:1018A000042020772068C0698007204602D0FFF717
:1018B000B7FF04E000F04DF8204600F04BF8277722
:1018C000E80616D5F00614D521686FF010000861FF
:1018D000082020772068C06910F4407F204602D09D
:1018E000FFF79EFF04E000F034F8204600F032F8E5
:1018F0002777E80708D0F00706D021686FF00100CD
:101900000861204600F028F8280608D5300606D5DC
:1019100021686FF0800008612046FFF765FE6806C9
:1019200008D5700606D521686FF040000861204692
:1019300000F01EF8A8060AD5B00608D521686FF099
:10194000200008612046BDE8F041FFF74EBEBDE82B
:10195000F08170477047000000680349884202D157
:1019600002490120887070470004004000000020F8
:101970007047704708B500680649884208D1016879
:1019800041680091016841680091016840680090D9
:1019900008BD000000380140F8B501680446086839
:1019A000CA684B6910F00F0F4FF0000559D003F0D3
:1019B000010602F49077374365D0C10705D0D10501
:1019C00003D5616C41F001016164410705D5D90778
:1019D00003D0616C41F002016164810705D5D9072C
:1019E00003D0616C41F004016164010707D502F086
:1019F0002001314303D0616C41F008016164616CE6
:101A000000293AD0800604D5900602D5204600F081
:101A10000CFF20684069616CC0F38010090700D496
:101A200060B3204600F0CCFE20684069400621D516
:101A30002068143050E8001F21F0400140E80012F7
:101A4000002AF5D1E06BA8B16D494163E06BFEF768
:101A5000DFFC002811D0E06B416B01B0BDE8F04025
:101A6000084783060FD593060DD52046BDE8F840FC
:101A700000F0DBBE2046FFF77DFFF8BD2046FFF7F4
:101A800079FF6564F8BD266B2023012E7CD1C60644
:101A90007AD5D60678D508684868009048694FF02E
:101AA0000206400640D5E16B086840680004000C5F
:101AB000E8D0A28D8242E5D9E085886920282DD022
:101AC00020680C3050E8001F21F4807140E80012BB
:101AD000002AF5D12068143050E8001F21F00101E0
:101AE00040E80012002AF5D12068143050E8001FA9
:101AF00021F0400140E80012002AF5D184F842307C
:101B0000256320680C3050E8001F21F0100140E8E8
:101B10000012002AF5D1E06BFEF756FC6663A08D3B
:101B2000E18D401A81B22AE0A08DE18D401A81B288
:101B3000E08D0028A6D00029A4D022680C3252E8FB
:101B4000000F20F4907042E80007002FF5D12068C4
:101B5000143050E8002F22F0010240E80027002F47
:101B6000F5D184F84230256320680C3050E8002F0E
:101B700022F0100240E80023002BF5D166632046D6
:101B8000FFF7F7FEF8BDFFE705062BD5150629D5AB
:101B900094F841002128F5D1A068B0F5805F01D10B
:101BA0002069B0B1206A411C216221680078486038
:101BB000E08C401E0004000CE084E3D12068C16882
:101BC00021F08001C1602068C16841F04001C1601E
:101BD000D8E7206A0088C0F308004860206A801CAB
:101BE0002062E5E74006CDD55006CBD5CA68204631
:101BF00022F04002CA6084F8413000F05EF9C1E78B
:101C0000C326000870B5040004D094F841000025F4
:101C100010B106E0012070BD84F84050204600F06D
:101C200023F8242084F841002068C16821F4005181
:101C3000C160204600F05AFE2068016921F49041FD
:101C400001612068416921F02A0141612068C16871
:101C500041F40051C1606564202084F8410084F89B
:101C600042006563002070BD2DE9F04186B000247C
:101C700000940194029403940646DFF814C10368AB
:101C8000444802220321444D80274FF48058634585
:101C90003AD1836943F480438361836903F48043C9
:101CA0000493836943F0040383618069039100F026
:101CB000040004901002CDE9000269462846FEF7B0
:101CC00015FD2815CDE90004694628460294FEF763
:101CD0000DFD334D3148C5E90004C5E90247C5F89B
:101CE0001C8020202C61C5E905402846FEF786FCB3
:101CF00008B1FEF767FBF5630022114625206E62EE
:101D0000FFF7C0F925203EE0DFF898C063453CD1DD
:101D1000C36943F40033C361C36903F4003304931C
:101D2000836943F0040383618069039100F0040038
:101D300004900420CDE9000269462846FEF7D6FC4F
:101D40000820CDE90004694628460294FEF7CEFC3F
:101D5000134D12484435283001C5102091C5104854
:101D600045F8104944306C61C5E90648FEF746FC69
:101D700008B1FEF727FBB5630022114626206E62EC
:101D8000FFF780F92620FFF76FF906B0BDE8F08174
:101D90000038014000100240000801405800024095
:101DA000241700200044004090F84230202B01D03E
:101DB0000220704721B11AB10023036300F0F2BD85
:101DC0000120704790F84230202B01D0022070474C
:101DD00021B11AB10023036300F02CBE012070472B
:101DE00000680A49884210D10948C178312902D0D7
:101DF000332902D003E0012100E0002101700449F1
:101E00000122C91C0348FFF7DDBF704700440040B2
:101E100000000020DC16002070472DE9F84304463E
:101E200090F84100984616460D46202802D0022020
:101E3000BDE8F88385B17EB100206064212084F87C
:101E40004100FEF743FDA6848146E684A068202772
:101E5000B0F5805F02D003E00120E9E7206910B10E
:101E60002E4600250EE000260CE08021204600F0E2
:101E7000FCFDA8B9C6B116F8010B21684860E08CDA
:101E8000401EE084E08C4B464FF00002CDF800800D
:101E90000028EAD14FF04001204600F0E6FD40B1B5
:101EA00084F841700320C3E735F8020BC0F3080043
:101EB000E3E784F841700020BAE77047FEE7016865
:101EC0004A69D24352050FD46FF480624A610021FF
:101ED00040F8301F202242738173026942F00402ED
:101EE0000261017301207047002070472DE9F84F0F
:101EF0000446006889460B9D01689846174641F4E0
:101F0000806101602068016841F480710160009582
:101F10004FF0011B0022594620460A9B00F0E4F8CE
:101F20004FF4007A40B120680068C00501D5C4F8BC
:101F300040A00320BDE8F88F216809F0FE00086189
:101F40002B46284920460A9A00F016F9F0BB206873
:101F50004169806900902A4620460A9900F0A2F95A
:101F600040B1206C04283AD12068016841F4007126
:101F7000016034E0FEB2B8F1010F09D02168380ADF
:101F800008612A4620460A9900F08CF90028E8D119
:101F9000206806612A4620460A9900F083F9002845
:101FA000DFD12068016841F4807101600095002252
:101FB000594620460A9B00F097F80028B3D12168C3
:101FC00009F0FF0040F00100086100E007E02B4647
:101FD000044920460A9A00F0CFF80028AAD0012030
:101FE000A8E70000020001002DE9F843044600685C
:101FF0000D46DDE9089701689846164641F4807160
:1020000001604B4600224FF001112046009700F07E
:102010006BF848B120680068C00502D54FF4007025
:1020200020640320BDE8F883216805F0FE00086104
:102030003B464A461549204600F09EF888B920687C
:102040004169806900903A464946204600F02AF9E5
:1020500048B1206C042804D12068016841F4007163
:1020600001600120DEE7F5B2B8F1010F09D0216867
:10207000300A08613A464946204600F013F9002824
:10208000E7D1206805610020CCE7000002000100D4
:1020900070B516460D4604461EE02046FFF70FFFBA
:1020A00008B1012070BD681C16D0FEF70FFC801B24
:1020B000A84200D885B920684069C04340070BD5C5
:1020C000002044F8300F20216173A073216941F092
:1020D000200121612073E4E720684069C043400784
:1020E000DBD4002070BD00002DE9F047984617466C
:1020F0000D460446C1F30746DDF820902AE000BFF4
:10210000B8F1FF3F26D0FEF7E1FBA0EB0901414506
:1021100002D8B8F1000F1DD12068012E16D08069B9
:1021200025EA00000004000C12D00020B84211D1B2
:10213000002044F8300F20216173A073216941F021
:102140002001216120730120BDE8F0874069E7E7A5
:102150000120EBE72068012E0AD0806925EA000003
:102160000004000C06D00020B842C9D00020EBE7E4
:102170004069F3E70120F7E72DE9F0479846164656
:102180000D4604464FF000094FF0200AC1F30747FF
:1021900023E020684069C043400515D420680168E9
:1021A00041F40071016021686FF480604861C4F8F7
:1021B000309084F83DA084F83E90216C41F00401F9
:1021C000216484F83C9021E0701C06D0FEF77EFB71
:1021D000A0EB0800B04203D816B1012F1FD021E0B8
:1021E0002068012F15D0806925EA00000004000C4A
:1021F00018D000BF44F8309F84F80DA084F80E90EA
:10220000216941F02001216184F80C900120BDE892
:10221000F087406925EA00000004000CEAD120683C
:10222000406901E02068806925EA00000004000C94
:10223000AFD1ECE72DE9F041002590460E4604466B
:10224000202728E04069C043C0060CD454F8301B56
:102250006FF01000486144F810596777A577206A3D
:102260002062257714E0FEF731FBA0EB0800B042B6
:1022700000D886B920684069C04340060BD544F8B1
:10228000305F6773A573206940F0200020612573DB
:102290000120BDE8F08120684169C9434906D1D4D5
:1022A0000020F6E770B516460D4604461EE02046AF
:1022B000FFF705FE08B1012070BD681C16D0FEF7BF
:1022C00005FB801BA84200D885B920684069C0433F
:1022D00000060BD5002044F8300F20216173A07355
:1022E000216941F0200121612073E4E72068406901
:1022F000C0430006DBD4002070BD00001FB50020E5
:102300008DF80C0064230222D0210848FEF7A8FBB8
:1023100000280AD10121642203A88DE807000B469A
:102320006B22D0210148FEF77FFD1FBDF81500206C
:1023300010B588B0044602220E2103A88DE80700DC
:1023400001233B22D0211248FEF740FC10B10020AF
:1023500008B010BDBDF80C0040BA2080BDF80E00DA
:1023600040BA6080BDF8100040BAA080BDF81200ED
:1023700040BAE080BDF8140040BA2081BDF81600D4
:1023800040BA6081BDF8180040BAA0810120DFE7A3
:10239000F81500200D4808B5416941F0010141617F
:1023A0004069002200F00100009011460F20FEF766
:1023B00069FE0F20FEF758FE002211461120FEF79D
:1023C00061FEBDE808401120FEF74EBE001002403D
:1023D000114808B5816941F010018161816901F0FE
:1023E00010010091816941F020018161816901F052
:1023F00020010091816941F004018161816901F04E
:1024000004010091816941F008018161806900F057
:102410000800009008BD0000001002400D4810B5F3
:102420000B4901600C49416000214FF480428160FA
:10243000C0E9031241618161C1610162FEF74CFA9A
:10244000002803D0BDE81040FDF7BCBF10BD000060
:1024500000580040F8150020801A060010B586B01C
:10246000002417480094019402940394049413499F
:102470000594016041F61F41C0E90114C721C0E97C
:1024800003148461FFF7E6F808B1FDF79BFF4FF4F2
:102490008050009069460A48FFF754F908B1FDF7EB
:1024A00091FF049404A906480594FFF79FF80028BB
:1024B00001D0FDF787FF06B010BD0000000400400A
:1024C0004C1600200C4810B50A4901604FF46141D8
:1024D0004160002181600C22C160C0E90412816169
:1024E000C161FFF78FFB002803D0BDE81040FDF766
:1024F00069BF10BD00380140941600200C4810B58B
:102500000A4901604FF461214160002181600C2281
:10251000C160C0E904128161C161FFF773FB00284B
:1025200003D0BDE81040FDF74DBF10BD0044004092
:10253000DC160020FEE7FEE72DE9F0470E4D0024F3
:102540004FF6FF76AA274FF05508A5F52F7900BF63
:1025500006EA0410C4EBC4022F54284409EB4201DC
:1025600080F801800E22801CFDF72EFE641C322CA8
:10257000EEDBBDE8F0870000D8020020704770470E
:10258000FEF71ABD30B58FB028216846FDF761FE11
:1025900014210AA8FDF75DFE01210804CDE9001011
:1025A0000024029402250491CDE907504FF4E01075
:1025B00009906846FEF774FE0F20CDE90A0568020F
:1025C000CDE90C4002210AA80E94FEF78DFD0FB054
:1025D00030BD70470148FFF724B900004C160020B9
:1025E000F0B50268194B1A4C1A4D4FF080479842CB
:1025F00005D0B84203D0A04201D0A84203D122F0B6
:1026000070064A683243984205D0B84203D0A042CF
:1026100001D0A84203D122F44074CA6822434C6915
:1026200022F08002224302608A68C2620A688262E3
:10263000984201D109690163012141610169C9071A
:1026400003D0016921F001010161F0BD002C0140BE
:10265000000400400008004010B5846842EA0322EC
:1026600024F47F440A432243826010BD826822F032
:1026700070020A4342F007018160704710B5036A97
:10268000046A24F001040462846924F0F00444EA3A
:10269000021423F00A020A438461026210BD10B5DD
:1026A000036A046A24F010040462846923F0A0031E
:1026B00024F4704444EA023243EA01118261016267
:1026C00010BD10B5406A0021C185C184FFF752F9E1
:1026D00010BD70B5446A2068406994F84110C0F399
:1026E000C0100025212904D118B1E584204600F04E
:1026F0008EF82068406994F84210C0F380102229B7
:1027000004D118B1E585204600F05AF8606C40F01D
:10271000100060642046FFF72DF970BD10B501462A
:10272000406A096809684FF0000289062ED4C28504
:1027300001680C3151E8003F23F4807341E8003414
:10274000002CF5D10168143151E8003F23F001035A
:1027500041E80034002CF5D10168143151E8003F04
:1027600023F0400341E80034002CF5D1202180F80B
:102770004210016B012909D101680C3151E8003F79
:1027800023F0100341E80034002CF5D14263016BC3
:10279000012902D0FFF724FB10BD818DFFF7E9F876
:1027A00010BD10B5406A01214163016B012902D0BF
:1027B000FFF732FB10BD818D4908FFF7DAF810BD35
:1027C00001680C3151E8002F22F4907241E8002397
:1027D000002BF5D10168143151E8002F22F00102DD
:1027E00041E80023002BF5D1016B012909D10168D3
:1027F0000C3151E8002F22F0100241E80023002B99
:10280000F5D1202180F84210002101637047016852
:102810000C3151E8002F22F0C00241E80023002BC8
:10282000F5D1202180F84110704708B590F842108A
:10283000222901D0022008BD82684FF480539A42B9
:1028400001D1016921B1816A9A421BD04AB10AE0E3
:102850000268816A5268C2F308020A80816A891C90
:1028600008E0026972B10268526802F07F020A70E1
:10287000816A491C8162C18D491E0904090CC18508
:1028800003D01BE002685268F1E70168CA6822F0D1
:102890002002CA600168CA6822F48072CA600168B6
:1028A0004A6922F001024A61202180F84210002189
:1028B0004163026B012A03D0FFF792FA002008BDA2
:1028C000016301680C3151E8002F22F0100241E849
:1028D0000023002BF5D101680A68D20602D50A68E8
:1028E00049680091818DFFF744F8E7E770B5044629
:1028F00000680169E26821F44051114301612169D6
:10290000A0680843616908432168CA6841F20C6302
:102910009A430243CA6020684169A26921F4407168
:10292000114341611E492068884202D1FEF782FCB2
:1029300001E0FEF76FFC00EBC00101EB00126068E4
:1029400064218000B2FBF0F3B3FBF1F36FF01806E3
:102950007343B2FBF0F5B2FBF0F605EB83053223CF
:1029600003EB0515B5FBF1F5B6FBF1F605F0F00547
:1029700005EB0615B2FBF0F6B2FBF0F0B0FBF1F0A0
:102980006FF01802504306EB800003EB0010B0FB21
:10299000F1F0216800F00F002844886070BD00004D
:1029A0000038014038B58162044682850020134614
:1029B0006064222284F84220E56B1B4AAA62E56B20
:1029C0001A4AEA62E56B1A4A2A63E26B50630A46C6
:1029D0002168E06B091DFDF73FFE20680168406833
:1029E0000090206948B120680C3050E8001F41F485
:1029F000807140E80012002AF5D12068143050E8B8
:102A0000001F41F0010140E80012002AF5D12068C2
:102A1000143050E8001F41F0400140E80012002A45
:102A2000F5D1002038BD00001D270008A3270008AD
:102A3000D326000881628285C2850021416422215B
:102A400080F84210016921B10168CA6842F48072BD
:102A5000CA6001684A6942F001024A610068C168BF
:102A600041F02001C160002070472DE9F8439846ED
:102A700017460D460446089E24E0701C22D0FDF740
:102A800025FFA0EB0800B0421AD8CEB12068C1687B
:102A9000490717D5802D15D0402D13D00168C943A3
:102AA00009070FD401680025406800902046FFF711
:102AB00087FE0820606484F840500120BDE8F88358
:102AC0000320FBE72068006835EA000004D00020FE
:102AD000B842D2D00020F1E70120F9E70148FEF723
:102AE0005BBF0000941600200148FEF755BF0000B0
:102AF000DC160020002905D00A460146642302485E
:102B0000FFF78BB970470000DC160020FEE70907CD
:102B1000090E002804DB00F1E02080F80014704763
:102B200000F00F0000F1E02080F8141D7047000055
:102B300008B5FEF749FAFFF725FDFFF749FCFFF757
:102B400029FCFFF7BFFCFFF7D9FCFFF767FCFFF795
:102B500085FC4FF4FA70FDF7B7FD16212FA0FFF7A3
:102B6000C9FFFFF7CBFB012233493448FFF72AF9AD
:102B70003348FEF7BBFD334D0026286801684068E6
:102B800000904FF4805230492846FFF70DF92A4C47
:102B90002D4FE41E20780128E86B0068406805D0BE
:102BA000C0F580506060A0606670F3E7C0F58051AA
:102BB0006160A068814213D004D9A1EB000189B201
:102BC000384409E0C0F5805189B23844FFF792FFDC
:102BD000606818B181B21C48FFF78CFF6068A06084
:102BE000A0780028D6D0A67060781849C0EBC00045
:102BF00001EB4000FFF79CFB012802D16078401CEC
:102C0000607060783228C5D36670FFF795FC4FF48A
:102C100048710F48FFF76EFFBCE700000D0A3D3D0D
:102C20003D2053595354454D205245414459203D70
:102C30003D3D0D0A0000000003000020DC160020CE
:102C40004C16002094160020F80500201C000020DF
:102C5000D8020020010202030405060708090A0B36
:102C60000C0D0E0F1010000000000000000001020B
:102C70000304060708090000000001020304000025
:102C8000A02C0008000000201C0000002801000803
:102C9000BC2C00081C000020F41D000044010008AA
:102CA0000000000000000000000000000100000023
:0C2CB000100000000000000000127A007C
:04000005080000ED02
:00000001FF
