:020000040800F2
:10000000403300209D0100080F320008FD2A00083F
:100010000D320008270900085D3E000800000000BE
:10002000000000000000000000000000D5340008BF
:100030001D0B00080000000055320008D7340008EE
:10004000B7010008B7010008B7010008B7010008B0
:10005000B7010008B7010008B7010008B7010008A0
:10006000B7010008B7010008B7010008B701000890
:10007000B7010008B7010008B7010008490A0008E5
:10008000B7010008550A0008B7010008B7010008C9
:10009000B7010008B7010008B7010008B701000860
:1000A000B7010008B7010008B7010008B701000850
:1000B000B70100082D350008B7010008B701000896
:1000C000B7010008B7010008B7010008B701000830
:1000D000B7010008353A0008413A0008B7010008A6
:1000E000B7010008B7010008B701000800F002F8E6
:1000F00000F045F80AA090E8000C82448344AAF17D
:100100000107DA4501D100F03AF8AFF2090EBAE87A
:100110000F0013F0010F18BFFB1A43F0010318473B
:10012000FC5300001C540000103A24BF78C878C16A
:10013000FAD8520724BF30C830C144BF04680C60ED
:10014000704700000023002400250026103A28BF35
:1001500078C1FBD8520728BF30C148BF0B60704739
:10016000642900F0A180782900F0DA80732900F07A
:100170002E83002070471FB51FBD10B510BD00F0C5
:1001800099FB1146FFF7F7FF04F088FE00F0B7FB7C
:1001900003B4FFF7F2FF03BC00F0BEFB0948804741
:1001A00009480047FEE7FEE7FEE7FEE7FEE7FEE759
:1001B000FEE7FEE7FEE7FEE704480549054A064B71
:1001C0007047000029350008ED000008402D002090
:1001D00040330020402F0020402F00200FB41CB5DA
:1001E000084B06AA7B4469460090059800F0C5FAC2
:1001F00004460020694600F0D3FA20461CBC5DF896
:1002000014FB0000B905000070B50446856900685C
:10021000C10601D5302600E02026C00707D070BDFA
:10022000D4E9012130469047206A401C20626D1EAF
:10023000F6D570BD70B5044685690078C00707D152
:1002400070BDD4E9012120209047206A401C206223
:100250006D1EF6D570BD70B50C460546012A05D059
:100260002878800600D5EA69002302E0012305E032
:100270005B1C934202D2E05C0028F9D1A869E61821
:10028000C01AA861286A184428622846FFF7BCFFF4
:1002900004E0D5E9012114F8010B9047B442F8D3EA
:1002A0002846FFF7C7FF70BD2DE9F0410646002440
:1002B00010687529314616A510D0AFF300800028CC
:1002C00002DA404213A507E031688A0701D512A57A
:1002D00002E0490704D511A5012401E0AFF3008035
:1002E00000210A2206F1240709E0B0FBF2FCB0FB72
:1002F000F2F302FB1C00303078541846491C0028E9
:10030000F3D123462A463046BDE8F04100F0D6B985
:10031000000000002D0000002B0000002000000065
:1003200070B504460D4621461068AFF30080218861
:10033000090502D50F4A7A4402E00E4A7A440E3289
:10034000002104F1240305E000F00F060009965D8A
:100350005E54491C0028F7D120780023000704D5FB
:10036000702D02D009B1022311322046BDE8704041
:1003700000F0A4B9A85100002DE9F05F89460446B9
:100380004FF0000ADFF824B1FB44C0F820A020465B
:10039000E168884700287DD0252806D0D4E90121CE
:1003A0009047206A401C2062F1E700255F46204606
:1003B000E16888472028064607DB312E05D2B819A8
:1003C00010F8200C08B10543F1E7A80701D525F086
:1003D0000405C4F81CA00027C4F818A02A2E09D0D0
:1003E000304603F04CFD38B304EB8708303EC8F8C4
:1003F000186019E059F8041B204604EB870291614C
:10040000E1688847012F064618D1E069002820DA04
:1004100025F020051DE0D8F8180000EB800006EB61
:1004200040003038C8F818002046E1688847064682
:1004300003F025FD0028EED1012F0AD02E2E08D181
:100440002046E16888477F1C0646022F45F02005BC
:10045000C4DBA069002803DA404245F00105A06131
:10046000E80701D025F01005A6B1A6F14100192832
:1004700002D8203645F400654A46314620462560BC
:100480004D46FFF76DFE60B1012807D0ED1D25F048
:10049000070000E007E000F1080978E705F104092A
:1004A00075E730467AE7206ABDE8F09F7E5100008C
:1004B00030B505460B462A4613F8014B12F8010BDE
:1004C00008B1A042F8D01CB1002802D06D1CF1E7A1
:1004D000284630BD40EA0103024630B59B0710D1E3
:1004E0004FF0013400E008C208C91D1B9D4315EA06
:1004F000C41FF8D013F0FF0102F8011B0DD01B0A36
:10050000F8E711F8013B002B02F8013B05D011F888
:10051000013B002B02F8013BF3D130BD10B5431C69
:1005200002E010F8011B71B18107FAD14FF00132DE
:1005300002C88C1A8C4314EAC211F9D0C01A0A06F8
:1005400003D0C01E10BDC01A10BD0A0401D0801E09
:1005500010BD0902FCD0401E10BD032A40F23080BD
:1005600010F0030C00F0158011F8013BBCF1020FF4
:10057000624498BF11F801CB00F8013B38BF11F875
:10058000013BA2F1040298BF00F801CB38BF00F88C
:10059000013B11F0030300F01E81083AC0F008800F
:1005A00051F8043B083A51F804CBA0E80810F5E7ED
:1005B000121D5CBF51F8043B40F8043BAFF30080D0
:1005C000D20724BF11F8013B11F801CB48BF11F845
:1005D000012B24BF00F8013B00F801CB48BF00F815
:1005E000012B7047431A28BF9A427FF6B6AF032A01
:1005F0001044114440F2268010F0030F1EBF11F882
:10060000013D521E00F8013D10F0030F7FF4F6AFDC
:1006100011F0030300F02481083AC0F00B8051F878
:10062000043D083A51F804CD40F8043D40F804CDAB
:10063000FFF7F3BF121D5CBF51F8043D40F8043DC5
:10064000AFF30080D20724BF11F8013D11F801CDAE
:1006500048BF11F8012C24BF00F8013D00F801CD7E
:1006600048BF00F8012C70474FF0000200B5134658
:1006700094469646203922BFA0E80C50A0E80C50C2
:10068000B1F12001BFF4F7AF090728BFA0E80C5073
:1006900048BF0CC05DF804EB890028BF40F8042B6C
:1006A00008BF704748BF20F8022B11F0804F18BFD9
:1006B00000F8012B70477047704770472DE9F047ED
:1006C0000D4699469246044600F1240801688806C2
:1006D00004D5E06921F01001216000E00120A8426A
:1006E00001DD471B00E00027A1697A1902EB090030
:1006F000081AA0612078C00602D42046FFF784FDC6
:10070000002608E0D4E901211AF806009047206A83
:10071000401C761C20624E45F4DB2078C0060AD5CA
:100720002046FFF771FD06E0D4E901213020904713
:10073000206A401C2062381EA7F10107F4DC07E0A4
:10074000D4E9012118F805009047206A401C206276
:10075000281EA5F10105F3DC2046FFF76BFD20788C
:10076000000602D50220BDE8F0870120FBE700006B
:1007700001694A1C02610878704700B58FB0CDE965
:1007800001310021059105497944CDE90310114655
:100790006846FFF7F1FD0FB000BD0000E5FFFFFF69
:1007A0000A6802F8010B0A60704710B5436913B17B
:1007B000AFF3008001E0FFF74EFD012010BD12787D
:1007C00000F124010A7000224A700122EDE711684D
:1007D0004FF0FF32E9E710B5203AC0F00B80B1E8E6
:1007E0001850203AA0E81850B1E81850A0E8185066
:1007F000BFF4F5AF5FEA027C24BFB1E81850A0E86F
:10080000185044BF18C918C0BDE810405FEA827C88
:1008100024BF51F8043B40F8043B08BF7047D2079F
:1008200028BF31F8023B48BF11F8012B28BF20F840
:10083000023B48BF00F8012B7047431A28BF9A4279
:100840007FF6C9AF104410F0030F11441EBF11F81A
:10085000013D521E00F8013D10F0030F7FF4F6AF8A
:10086000103AC0F00A8010B531E91850103A20E96A
:100870001850BFF4F9AFBDE81040530724BF31E969
:10088000081020E9081044BF51F8043D40F8043D29
:1008900012F0030F08BF7047D20728BF31F8023D9E
:1008A00048BF11F8012C28BF20F8023D48BF00F8CE
:1008B000012C7047754600F02BF8AE4605006946DE
:1008C000534620F00700854618B020B5FFF774FCAA
:1008D000BDE820404FF000064FF000074FF0000841
:1008E0004FF0000B21F00701AC46ACE8C009ACE8C2
:1008F000C009ACE8C009ACE8C0098D46704710B526
:100900000446AFF300802046BDE81040FFF740BC2E
:1009100000487047E02C002001491820ABBEFEE7DC
:10092000260002007047FEE730B591B00446FFF79D
:10093000F5FD082801D926A046E02CA12046FFF7A6
:10094000B7FD20B92BA12046FFF7B2FD08B3214621
:100950006846FFF7BFFD29A003F06CFA684603F074
:1009600069FA2AA003F066FA0A226946294803F0C8
:10097000CFFD294C021E4FF0000520720FD027A199
:1009800008A8FFF72BFC08A803F054FAA57011B0D3
:1009900030BD224624A16846FFF720FCDBE701209A
:1009A0002070607002206561A07021A42046FFF7CE
:1009B000B5FD194B02461C332146164803F0DAFEFA
:1009C000144803F07BFE1CA003F034FADFE70000BC
:1009D0000D0A5B4552525D204E616D6520746F6F4C
:1009E000206C6F6E672E0D0A000000002E545854C4
:1009F000000000002E747874000000000D0A43729D
:100A0000656174696E673A20000000002E2E2E0D7D
:100A10000A00000064280020000000204572723A9D
:100A20002025640D0A00000025732E545854000040
:100A300053544152540D0A0046696C652043726557
:100A400061746564210D0A00014800F0FDB80000E2
:100A5000342C0020014800F0F7B80000782C00206A
:100A600030B590F840500124AC40C56B6C60046810
:100A700063604368102B036803D099600068C2600C
:100A800030BD9A600068C16030BD00002DE9FC5F98
:100A90000E00834632D01D4CA07802282ED16078FB
:100AA00000282BD02078002828D000254FF480592A
:100AB000DFF85CA04FF0010814E000BF1BF8052030
:100AC00014A16846FFF78AFB07466069C1194945CA
:100AD00016D250443A466946FFF73FFD60696D1CE7
:100AE00038446061B542E9DB6069B0F5006F05D359
:100AF000E178002902D184F80380A061BDE8FC9F61
:100B000084F803806069A061EEE700000000002027
:100B1000341600202530325800000000704772B6AD
:100B2000FEE70022AFF3008030B50E4B05460120F2
:100B30005C7A012C15D8587A00241C54587A03EB9F
:100B4000800045605D7A03F108002A54587A421CFF
:100B50005A72303008703A2048702F208870CC705C
:100B6000002030BDD42C002010B590F821100022B8
:100B7000022905D00421816380F82020012010BDC6
:100B800001680B6823F00E030B6001680B6823F00B
:100B900001030B6090F84030C46B012101FA03F3AC
:100BA000636080F8211080F82020104610BD0000FE
:100BB00010B590F821100024022903D0042181638C
:100BC00001243DE001680A6822F00E020A60016813
:100BD0000A6822F001020A601A4A0168914201D1B2
:100BE000012121E0174A1432914201D110211BE06A
:100BF000144A2832914201D1891515E0114A3C323C
:100C0000914201D189140FE00E4A5032914202D133
:100C10004FF4803108E00B4A6432914202D14FF424
:100C2000801101E04FF08071064A083A51600121BD
:100C300080F82110002180F82010416B01B1884715
:100C4000204610BD080002402DE9F05FC16B0C6822
:100C500001680B68D0F840C0042202FA0CF2494D3A
:100C6000DFF824A1494E4A4FDFF828B1DFF828E128
:100C700022422CD05A072AD50A68920603D40A6861
:100C800022F004020A600168A94201D1042219E09D
:100C9000514501D1402215E0B14202D14FF48062AA
:100CA00010E0B94202D14FF480420BE0594502D125
:100CB0004FF4802206E0714502D14FF4800201E03A
:100CC0004FF080622F4908394A60C16A3BE04FF01B
:100CD000020808FA0CF818EA040F4FF000094FF068
:100CE000010235D05FEA837832D50B689B0605D4C4
:100CF0000B6823F00A030B6080F821200168A942E9
:100D000001D1022219E0514501D1202215E0B14262
:100D100002D14FF4007210E0B94202D14FF40052F8
:100D20000BE0594502D14FF4003206E0714502D183
:100D30004FF4001201E04FF00072124908394A6086
:100D400080F82090816A00291AD0BDE8F05F08473A
:100D5000082505FA0CF5254212D01B0710D50B68A3
:100D600023F00E030B6090F84010C36B02FA01F100
:100D70005960826380F8212080F82090016BE2E7BF
:100D8000BDE8F09F080002401C0002403000024015
:100D900044000240580002406C00024030B528B3C5
:100DA00008C8134914221944B1FBF2F18900C16348
:100DB00010498163022141771A6843F6F0718A4332
:100DC000D0E900142143D0E902452C4321430469B2
:100DD000214344692143846921431143196000215F
:100DE0004163012242770177084630BD012030BDC2
:100DF000F8FFFDBF0000024070B5044690F82000E7
:100E0000002501280CD0012084F8200094F82160EE
:100E10000020012E06D084F820000225284670BD4F
:100E2000022070BD022684F82160A0632068066855
:100E300026F0010606602046FFF712FEE06A002851
:100E40002068016802D041F00E0106E021F00401A3
:100E500001602068016841F00A01016020680168B2
:100E600041F001010160D9E770B5044600F004F9D2
:100E70000546601C02D004480078044400F0FCF8E9
:100E8000401BA042FAD370BD200000202DE9F84F8E
:100E9000DFF8B8910024A9F1040B23460F2709F1CC
:100EA000040AABF1040EC9E00125A5402A40AA427C
:100EB0007DD1674ED1F804C0ACEB0608B44532D002
:100EC00014DCBCF1030F3AD009DCBCF1000F2AD0CE
:100ED000BCF1010F1CD0BCF1020F31D11DE0BCF1FF
:100EE000110F17D0BCF1120F2AD119E0B8F5881FE5
:100EF00019D006DCB8F5803F15D0B8F5801F1FD19A
:100F000011E0B8F5001F0ED0B8F5041F18D10AE0A3
:100F1000CB6815E0CB681B1D12E0CB6808330FE0EF
:100F2000CB680C330CE08B682BB1012B4FF008031E
:100F300003D0456104E0042302E0056100E00023E2
:100F4000FF2A01D8064601E000F104064FEA8405B5
:100F500001D9A5F12005D6F8008007FA05FC28EA9A
:100F60000C0803FA05F548EA0508C6F800804D6844
:100F7000ED0062D5374DAE6946F00106AE61AD6950
:100F800024F0030605F001050095334D06EB050C32
:100F9000DCF80850A607360F07FA06F825EA080518
:100FA000DFF8B880404503D14FF0000817E044E077
:100FB000DFF8AC80404502D14FF001080FE0DFF8C8
:100FC000A480404502D14FF0020808E0DFF8988085
:100FD000404502D14FF0030801E04FF0040808FA41
:100FE00006F848EA0508CCF808804D68D9F8006092
:100FF000ED024D4601D5164300E096432E604D6844
:10100000DAF80060AD02554601D5164300E096437C
:101010002E604D68DBF80060AD035D4601D51643D8
:1010200000E096432E604D68DEF80060ED037546E3
:1010300001D5164300E096432E60641C0D682A46D5
:10104000E5407FF431AFBDE8F88F000008040140AF
:101050000000111000100240000001400008014093
:10106000000C014000100140001401400AB1016170
:1010700070470904FBE700000148806870470000E2
:101080002000002070B5040025D094F83D00002514
:1010900020B984F83C50204600F034FB242084F82A
:1010A0003D002068016821F00101016020680168AD
:1010B00041F4004101602068016821F400410160B1
:1010C00000F08EFC4D4A6168914201D84C4900E025
:1010D0004C49884201D2012070BD4B492368B0FBC6
:1010E000F1F15E6826F03F060E435E60636893424E
:1010F00006D94FF4967359434FF47A73B1FBF3F169
:101100002368491C1E6A26F03F0631431962616854
:10111000914210D84900401EB0FBF1F2521CC2F3BC
:101120000B02042A01D2042022E0B0FBF1F0401CA3
:10113000C0F30B001CE0A268F2B301EBC10303EBA8
:101140000116431EB3FBF6F35B1C43F480431B05FF
:1011500049D092B301EBC10202EB0111401EB0FB7A
:10116000F1F0401CC0F30B0040F4804040F400401C
:101170002168CA694CF6FF739A431043C861D4E9E9
:10118000071001432068026822F0C0021143016089
:10119000D4E9030101432068826848F2FF339A438F
:1011A00011438160D4E9050108432168CA6822F02F
:1011B000FF021043C86001E00EE016E020680168FD
:1011C00041F0010101602564202084F83D00256381
:1011D00084F83E50002070BD01EB4106431EB3FB76
:1011E000F6F35B1CB3E70120C2E701EB4101401EAF
:1011F000B0FBF1F0401CC0F30B00B7E7A086010084
:1012000080841E0000093D0040420F002DE9FF4F81
:1012100081B089460446FFF72FFF054694F83D004C
:101220004FF0000820287DD1192301225049204683
:10123000009501F079FD002874D194F83C00012854
:1012400070D0012084F83C0020680168C90703D1F0
:10125000016841F0010101602068016821F400612A
:101260000160242084F83D00002626644148E062A5
:101270004FF0011B20272068016841F48071016054
:101280000095002259462046049B01F04DFD50B1C7
:1012900020680068C00502D54FF400702064032068
:1012A00005B0BDE8F08F216809F0FE000861FFF786
:1012B000E3FE2168054648694969C0F34000C1F36F
:1012C00080214FF0A00A0FE0FFF7D6FE411B0498E3
:1012D000814200D808B984F83DA02168486949696D
:1012E000C0F34000C1F3802194F83D20A02A02D031
:1012F00008B90029E8D084F83D7020684169C943E5
:10130000890716D4016841F40071016020684169C1
:1013100080691923012216492046009501F004FD39
:10132000B8B900E021E084F83D7084F83C6000200A
:10133000B6E7016841F40071016021686FF48060D4
:101340004861192301220A492046009501F0ECFC6E
:1013500008B10120A4E7039808F1010880458AD369
:1013600084F83D7084F83C60F3E7022098E70000C1
:10137000020010000000FFFF2DE9FF4F83B00025A1
:10138000DDE910799A4693460446DDF848800095D9
:10139000FFF772FE064694F83D0020287CD1192301
:1013A000012288492046009601F0BEFC0028F5D1B4
:1013B00094F83C0001286FD0012084F83C0020689C
:1013C0000168C90703D1016841F00101016020688B
:1013D000016821F400610160222084F83D00402072
:1013E00084F83E0025646762A4F82A90608D208509
:1013F0007548E062CDE9008653465A462046049976
:1014000001F094FB00287CD1208DDFF8C0912027CB
:1014100068B1012814D00228206801681ED041F468
:10142000806101602068416980690090BCE02068AB
:10143000416981690091016841F400710160B3E084
:101440002068016821F48061016072B620684169FA
:1014500081690091016841F400710AE041F4006182
:10146000016072B62068416981690091016821F4C8
:101470008061016062B697E0032865D801280CD02E
:10148000022843464FF000024946204600960BD002
:1014900001F04AFCA8BB0CE091E0324641462046F0
:1014A00001F0E8FC68BB72E001F03EFC48BB72B69C
:1014B00033E02068016821F48061016072B6206821
:1014C0000069616A0870606A401C6062208D401E7D
:1014D0002085608D401E60853D4846F2A811006859
:1014E000B0FBF1F0C0EBC00000EB80000090401EAC
:1014F000009007D020684069C04340070DD5009890
:10150000F5E727E044F8305F6773A573206940F082
:101510002000206162B625731CE02068016841F458
:101520000071016020680069616A0870606A401C8F
:101530006062218D491E2185618D491E618562B6DB
:1015400021680969017026E032464146204601F0D3
:1015500091FC18B1012007B0BDE8F08F2068006948
:10156000616A0870606A401C6062208D401E81B212
:101570002185608D401E608520684269D2435207F4
:1015800012D4032903D1016821F48061016020682D
:101590000069616A0870606A401C6062208D401EAC
:1015A0002085608D401E6085208D00287FF464AF0B
:1015B00084F83D7084F83E5084F83C50CBE702201C
:1015C000C9E70000020010000000FFFF0400010056
:1015D0002C0000202DE9FF4F83B09A46DDE91197DA
:1015E00093460446DDF84080FFF746FD054694F833
:1015F0003D0020287FD11923012240492046009533
:1016000001F092FB002876D194F83C00012872D0BA
:10161000012084F83C0020680168C90703D10168F3
:1016200041F0010101602068016821F4006101605E
:10163000212084F83D00402084F83E0000262664E6
:10164000C4F82480A4F82A90608D20852C48E0629C
:10165000CDE9007553465A462046049901F0E4FA54
:1016600070B930E02A463946204601F03BFC58B1BB
:10167000206C042804D12068016841F400710160E5
:10168000012007B0BDE8F08F606A2168007808612A
:10169000606A401C6062218D491E89B22185628D7D
:1016A000521E628522685369DB435B070BD469B124
:1016B00000781061606A401C6062208D401E2085A9
:1016C000608D401E6085208D0028CBD12A4639468A
:1016D000204601F0FDFA0028CAD154F83D0B0168FC
:1016E00041F400710160202004F81E09E677667756
:1016F0000020C6E7FFE70220C3E700000200100059
:101700000000FFFF10B586B0002100910191029109
:1017100003910068104988421BD1104CA06940F029
:101720000800A061A069694600F0080004904FF429
:101730004060009012200190032003900848FFF7BA
:10174000A5FBE06940F48000E061E06900F48000FE
:10175000049006B010BD0000005800400010024088
:10176000000C014002488168027811448160704792
:1017700020000020074810B5016841F01001016009
:10178000032000F085F80F2000F006F800F024F8A0
:10179000002010BD0020024070B50D4D04464FF4EE
:1017A0007A712878B1FBF0F00A490968B1FBF0F0D2
:1017B00000F076FC48B9102C07D200222146501EBA
:1017C00000F046F800206C6070BD012070BD000084
:1017D000200000202C0000200C4808B5816941F051
:1017E00001018161816901F001010091C16941F04C
:1017F0008051C161C06900F0805000900448416888
:1018000021F0E06141F00071416008BD001002402C
:101810000000014000280DDB00F01F020121914073
:101820004009800000F1E020C0F88011BFF34F8F25
:10183000BFF36F8F7047002809DB00F01F02012102
:1018400091404009800000F1E020C0F8001170478D
:10185000F0B40E4B1B680C46C3F30223C3F107051B
:10186000042D00D90425191D072901D2002300E009
:10187000DB1E012606FA05F1491E214099409E40D3
:10188000761E16403143F0BC02F0E9BA0CED00E0E0
:10189000064900F0070208684FF6FF03184040EAC7
:1018A0000220034A10430860704700000CED00E07E
:1018B0000000FA052DE9F0470F46050061D0434EC0
:1018C000306800F00700B84209D2306820F0070005
:1018D00038433060306800F00700B84251D12868C2
:1018E0003B4C810712D5400703D5606840F4E060A7
:1018F00060602878000703D5606840F4605060603D
:101900006068A96820F0F000084360602878C0078C
:1019100028D06868012810D02168022810D08907D3
:1019200000292EDA616821F0030101436160FFF7AD
:10193000A3FB804641F288390DE021688903EFE777
:101940008901EDE7FFF798FBA0EB0801494502D9B3
:101950000320BDE8F0876068696800F00C00B0EB18
:10196000810FEFD1306800F00700B8420BD9306822
:1019700020F0070038433060306800F00700B842BC
:1019800001D00120E5E72878400705D56068E968BF
:1019900020F4E060084360602878000706D560689E
:1019A000296920F4605040EAC100606000F038F816
:1019B0006168084AC1F30311515CC84006490860D8
:1019C00006480068FFF7E8FE0020C2E7002002405A
:1019D000001002401E5400082C00002024000020AB
:1019E0000448054900684968044AC1F30221515C72
:1019F000C84070472C000020001002402E54000800
:101A00000448054900684968044AC1F3C221515C91
:101A1000C84070472C000020001002402E540008DF
:101A20000E4A51680E4801F00C03042B11D0082B0C
:101A30000FD10C48C1F38343C903C05C0AD5516878
:101A4000084AC1F34041921E515C054A5043B0FB25
:101A5000F1F070470449484370470000001002400D
:101A600000127A000E54000800093D002DE9F84FDD
:101A7000040070D02078C04DC00749D06868C0F31A
:101A80008100012807D06868C0F38100022809D1CD
:101A90006868C00306D52868800339D560680028C7
:101AA000E7D035E06068B0F5803F0BD010B1B0F5FD
:101AB000A02F11D0286820F480302860286820F4F6
:101AC000802002E0286840F480302860606890B18F
:101AD000FFF7D2FA06460AE0286840F48020286022
:101AE000F0E700BFFFF7C8FA801B642873D82868A6
:101AF0008003F7D50CE0FFF7BFFA064605E000BF0C
:101B0000FFF7BAFA801B6428F0D828688003F7D45E
:101B100020789A4E80074FF001094FF0000839D520
:101B2000686810F00C0F07D06868C0F381000228C5
:101B300009D16868C00306D42868800714D52069D5
:101B4000012808D110E02069B0B1C6F80090FFF775
:101B500093FA074605E00AE1FFF78EFAC01B022858
:101B6000C4D828688007F7D52868616920F0F80094
:101B700040EAC10028600DE0C6F80080FFF77CFA5B
:101B8000074604E0FFF778FAC01B022823D828682C
:101B90008007F7D4207800072CD57948A169D9B1FE
:101BA000C0F80090FFF768FA074604E0FFF764FA10
:101BB000C01B02280FD8686A8007F7D571484FF418
:101BC000FA510068B0FBF1F0009000BF0098411E90
:101BD0000091FAD20EE080E0C0F80080FFF74CFAE6
:101BE000074604E0FFF748FAC01B022875D8686A68
:101BF0008007F7D42078400760D5E8690027C00047
:101C000008D4E86940F08050E861E869012700F0F5
:101C1000805000905C480168C90513D40168834670
:101C200041F480710160FFF727FA824606E000BFA9
:101C3000FFF722FAA0EB0A0064284ED8DBF8000078
:101C4000C005F5D5E06801280AD008B1052813D0F1
:101C5000286A20F001002862286A20F0040002E0CF
:101C6000286A40F001002862E06841F2883B98B1A0
:101C7000FFF702FA82460BE0286A40F0040028626F
:101C8000EEE700BFFFF7F8F9A0EB0A0159455AD873
:101C9000286A8007F6D50CE0FFF7EEF9824605E0EA
:101CA000FFF7EAF9A0EB0A0159454CD8286A8007EA
:101CB000F6D41FB1E86920F08050E861E06988B38C
:101CC0006968C1F38101022944D00228C6F8608006
:101CD00004D0FFF7D1F9044638E034E0FFF7CCF93F
:101CE000074604E0FFF7C8F9C01B02282BD8286874
:101CF0008001F7D4206AB0F5803F05D16868A168FB
:101D000020F4003008436860D4E90801084369689A
:101D100021F4741108436860C6F86090FFF7ACF9CD
:101D2000044606E025E000BFFFF7A6F9001B0228E5
:101D300009D828688001F7D51BE000BFFFF79CF9A0
:101D4000001B022802D90320BDE8F88F2868800113
:101D5000F4D40EE00128F7D06868226A00F48031DC
:101D6000914204D1616A00F47010884201D00120D0
:101D7000EAE70020E8E700000010024000004242CD
:101D8000800442422C0000200070004070B5040026
:101D900009D0606A002540B125616561A56294F8AB
:101DA000510040B10CE0012070BD6068B0F5827F49
:101DB000F4D0E561F2E784F85050204600F040F896
:101DC000022084F851002068016821F04001016080
:101DD000A088218900F4827001F404410843A1899C
:101DE00001F400610843217C01F002010843217DD8
:101DF00001F001010843218B01F400710843217FA8
:101E000001F03801084394F8201001F080010843E4
:101E1000218D01F40051084321680860A069042164
:101E200001EA1040216848602068C16921F400611E
:101E3000C1616565012084F85100002070BD00007B
:101E400030B585B000240094019402940394006896
:101E50001449884223D11448816941F48051816139
:101E6000816901F480510491816941F0040181612B
:101E700080690E4D00F004000490A0200090022024
:101E800001900320039069462846FEF7FFFF40209B
:101E9000CDE90004694628460294FEF7F7FF05B035
:101EA00030BD000000300140001002400008014039
:101EB0002DE9FF4F81B01D46934604464FF00109BE
:101EC0000E9EFFF7D9F8074694F851006168012883
:101ED00006D0B1F5827F3CD1A168C9BB042838D1B6
:101EE0000298002871D0BBF1000FFBD0002DF9D073
:101EF00094F8500001282CD04FF0010A84F850A02B
:101F000094F85100042802D0052084F851004FF0C5
:101F10000008C4F85480C4F838B0E587A587029952
:101F20002163E586A586C4F84080C4F84480206813
:101F30000168490603D4016841F040010160E0688E
:101F4000B0F5006F606808D0F0B3012D49D081E092
:101F5000FFE7022005B0BDE8F08F08B1012D39D1AF
:101F6000206B21680088C860206B801C2063E08E95
:101F7000401EE0862EE02068816889070FD5E18E3B
:101F800069B1B9F1010F0AD1216B0988C160206BD9
:101F9000801C2063E08E401EE0864FF00009206820
:101FA0008168C9070CD0E18F51B1C068A16B08806E
:101FB000A06B801CA063E08F401EE0874FF00109FA
:101FC000FFF75AF8C01B01E00BE067E0B04201D315
:101FD000701C50D1E08E0028CDD1E08F0028CAD1EE
:101FE0003EE0206B216800780873206B401C206362
:101FF000E08E401EE0862DE02068816889070FD5BD
:10200000E18E69B1B9F1010F0AD1216B0978017331
:10201000206B401C2063E08E401EE0864FF00009DC
:1020200020688168C9070CD0E18F51B1C068A16BED
:102030000870A06B401CA063E08F401EE0874FF04B
:102040000109FFF719F8C01BB04202D3701C01D080
:1020500011E086B1E08E0028CED1E08F0028CBD1F0
:102060003A463146204601F079F950B120206065AA
:1020700084F8508012E084F851A084F85080032046
:1020800068E7A06818B92068C1688068009084F883
:1020900051A084F85080606D0028F1D0012059E7EC
:1020A00010B5401EB0F1807F01D3012010BD4FF06C
:1020B000E02460610F21601701F0D1FE0020A061D3
:1020C00007202061002010BD7047704770B590F860
:1020D0003C20012A26D0012480F83C40022280F8CE
:1020E0003D2003685A689D6822F070060A683243F2
:1020F0005A600D4B02689A4208D0B2F1804F05D069
:102100000A4B9A4202D00A4B9A4204D1496825F000
:1021100080031943916080F83D40002180F83C1015
:10212000084670BD022070BD002C01400004004034
:102130000008004010B5040003D094F83D0010B131
:1021400007E0012010BD002084F83C00204600F08C
:102150001FF8022084F83D00211D206801F0ECF9F1
:10216000012084F8460084F83E0084F83F0084F89B
:10217000400084F8410084F8420084F8430084F869
:10218000440084F8450084F83D00002010BD0000A4
:1021900008B500680B49884212D10B48C16941F06B
:1021A0000201C161C069002200F0020000901146E6
:1021B0001D20FFF74DFBBDE808401D20FFF73BBB8E
:1021C00008BD0000000400400010024090F83D10DF
:1021D000012901D001207047022180F83D100168DB
:1021E000CA6842F00102CA6000680B49884208D000
:1021F000B0F1804F05D00949884202D00849884291
:1022000004D1816801F00701062903D0016841F07B
:102210000101016000207047002C014000040040D3
:102220000008004070B5044690F83C0000250128E5
:1022300017D0012684F83C60022084F83D00206815
:10224000826822F0770222F47F4282600868502878
:1022500038D00DDC20284FD005DC90B3102811D1E8
:102260004AE0022070BD302846D040280AD13BE029
:1022700060282FD070280DD0B0F5805F03D0B0F566
:10228000005F12D0012584F83D60002084F83C00F6
:10229000284670BDCB68D1E90121206801F088F99A
:1022A0002068816841F0770109E0CB68D1E901211C
:1022B000206801F07DF92068816841F480418160E7
:1022C000E1E719E0CA684968206801F083F9502104
:1022D000206806E0CA684968206801F08CF960212E
:1022E000206801F06FF9CEE7CA684968206801F0FC
:1022F00071F940212068F4E7226801461046F0E7B2
:1023000070472DE9F04104460068C66805694FF042
:102310000007A90713D5B10711D5F91E01610120E6
:102320002077206880698007204602D0FFF7E8FF09
:1023300004E000F07EF8204600F07CF8277768077C
:1023400016D5700714D521686FF0040008610220CB
:1023500020772068806910F4407F204602D0FFF784
:10236000CFFF04E000F065F8204600F063F827771F
:10237000280715D5300713D521686FF008000861CC
:10238000042020772068C0698007204602D0FFF72C
:10239000B7FF04E000F04DF8204600F04BF8277737
:1023A000E80616D5F00614D521686FF01000086114
:1023B000082020772068C06910F4407F204602D0B2
:1023C000FFF79EFF04E000F034F8204600F032F8FA
:1023D0002777E80708D0F00706D021686FF00100E2
:1023E0000861204600F028F8280608D5300606D5F2
:1023F00021686FF0800008612046FFF765FE6806DF
:1024000008D5700606D521686FF0400008612046A7
:1024100000F01EF8A8060AD5B00608D521686FF0AE
:10242000200008612046BDE8F041FFF74EBEBDE840
:10243000F08170477047000000680349884202D16C
:10244000024901208871704700040040000000200C
:102450007047704710B504460068406994F8411011
:10246000C0F3C010212911D180B12068143050E888
:10247000001F21F0800140E80012002AF5D1A06B76
:1024800008B1FEF771FB204601F06DF92068406944
:1024900094F84210C0F38010222911D180B1206835
:1024A000143050E8001F21F0400140E80012002ADB
:1024B000F5D1E06B08B1FEF757FB204601F02CF98F
:1024C000002010BD08B500680649884208D101689F
:1024D000416800910168416800910168406800907E
:1024E00008BD000000380140F8B5016804460868DE
:1024F000CA684B6910F00F0F4FF0000559D003F078
:10250000010602F49077374365D0C10705D0D105A5
:1025100003D5616C41F001016164410705D5D9071C
:1025200003D0616C41F002016164810705D5D907D0
:1025300003D0616C41F004016164010707D502F02A
:102540002001314303D0616C41F008016164616C8A
:1025500000293AD0800604D5900602D5204601F025
:1025600010F920684069616CC0F38010090700D43D
:1025700060B3204601F0D0F820684069400621D5BC
:102580002068143050E8001F21F0400140E800129C
:10259000002AF5D1E06BA8B16D494163E06BFEF70D
:1025A00007FB002811D0E06B416B01B0BDE8F040A3
:1025B000084783060FD593060DD52046BDE8F840A1
:1025C00001F0DFB82046FFF77DFFF8BD2046FFF79A
:1025D00079FF6564F8BD266B2023012E7CD1C606E9
:1025E0007AD5D60678D508684868009048694FF0D3
:1025F0000206400640D5E16B086840680004000C04
:10260000E8D0A28D8242E5D9E085886920282DD0C6
:1026100020680C3050E8001F21F4807140E800125F
:10262000002AF5D12068143050E8001F21F0010184
:1026300040E80012002AF5D12068143050E8001F4D
:1026400021F0400140E80012002AF5D184F8423020
:10265000256320680C3050E8001F21F0100140E88D
:102660000012002AF5D1E06BFEF77EFA6663A08DBA
:10267000E18D401A81B22AE0A08DE18D401A81B22D
:10268000E08D0028A6D00029A4D022680C3252E8A0
:10269000000F20F4907042E80007002FF5D1206869
:1026A000143050E8002F22F0010240E80027002FEC
:1026B000F5D184F84230256320680C3050E8002FB3
:1026C00022F0100240E80023002BF5D1666320467B
:1026D000FFF7BFFEF8BDFFE705062BD5150629D588
:1026E00094F841002128F5D1A068B0F5805F01D1B0
:1026F0002069B0B1206A411C2162216800784860DD
:10270000E08C401E0004000CE084E3D12068C16826
:1027100021F08001C1602068C16841F04001C160C2
:10272000D8E7206A0088C0F308004860206A801C4F
:102730002062E5E74006CDD55006CBD5CA682046D5
:1027400022F04002CA6084F8413000F0D6F9C1E7B7
:102750001B36000870B5040004D094F84100002531
:1027600010B106E0012070BD84F84050204600F012
:1027700023F8242084F841002068C16821F4005126
:10278000C160204601F05EF82068016921F49041A3
:1027900001612068416921F02A0141612068C16816
:1027A00041F40051C1606564202084F8410084F840
:1027B00042006563002070BDF0B585B00024009430
:1027C0000194029403940646DFF810C1036844485C
:1027D00002220321434D802763453BD1836943F4A3
:1027E00080438361836903F480430493836943F0E6
:1027F000040383618069039100F0040004901002D7
:10280000CDE9000269462846FEF740FB2815CDE9D0
:102810000004694628460294FEF738FB334D3248DF
:10282000C5E90004C5E9024720202C61C5E905403F
:102830004FF44050E8612846FEF7B0FA08B1FEF7C1
:102840006EF9F5630022114625206E62FFF700F84D
:1028500025203FE0DFF898C063453DD1C36943F4CC
:102860000033C361C36903F400330493836943F005
:10287000040383618069039100F004000490042044
:10288000CDE9000269462846FEF700FB0820CDE9A5
:102890000004694628460294FEF7F8FA134D1248E0
:1028A0004435283001C5102091C5000245F8104973
:1028B0006C61C5E906400D484430FEF76FFA08B177
:1028C000FEF72DF9B5630022114626206E62FEF751
:1028D000BFFF2620FEF7AFFF05B0F0BD0038014076
:1028E000001002400008014058000240342C002033
:1028F0000044004090F84230202B01D00220704765
:1029000021B11AB10023036300F0F8BF0120704722
:1029100090F84230202B01D00220704721B11AB12B
:102920000023036301F032B80120704770B50068DE
:102930003249884260D1FEF79FFB40F6B8318842A9
:1029400052D32F4C2F4A607A0A280BD00D2809D079
:1029500021791F2948D2A0F130034A2B41D92E28D2
:102960003FD041E020790025002834D0155426A11D
:102970002448FDF79DFD08B1A5702CE024A1214855
:10298000FDF796FD78B124A001F054FABFF34F8F04
:1029900026480168264A01F4E06111430160BFF353
:1029A0004F8F00BFFDE7A07850B922A11548FDF771
:1029B0007FFD28B10120A07020A001F03BFA0AE0C1
:1029C000A078012807D11BA10E48FDF771FD10B9B1
:1029D0000C48FDF7A9FF257120210A48FDF744FEA8
:1029E00002E05054491C2171BDE8704004490122A5
:1029F00009311848FFF78CBF70BD0000004400404B
:102A000000000020902A002073746F700000000006
:102A100072657365740000000D0A5265626F6F7411
:102A2000696E672E2E2E0D0A000000000CED00E0EE
:102A30000400FA0573746172740000000D0A5B43B0
:102A40004D445D20456E746572204E616D653A0D92
:102A50000A000000EC2B002070472DE9F8430446E3
:102A600090F84100984616460D46202802D00220D4
:102A7000BDE8F88385B17EB100206064212084F830
:102A80004100FEF7F9FAA6848146E684A068202773
:102A9000B0F5805F02D003E00120E9E7206910B1C2
:102AA0002E4600250EE000260CE08021204600F096
:102AB00088FFA8B9C6B116F8010B21684860E08C00
:102AC000401EE084E08C4B464FF00002CDF80080C1
:102AD0000028EAD14FF04001204600F072FF40B1DB
:102AE00084F841700320C3E735F8020BC0F30800F7
:102AF000E3E784F841700020BAE77047FEE7016819
:102B00004A69D24352050FD46FF480624A610021B2
:102B100040F8301F202242738173026942F00402A0
:102B20000261017301207047002070472DE9F84FC2
:102B30000446006889460B9D01689846174641F493
:102B4000806101602068016841F480710160009536
:102B50004FF0011B0022594620460A9B00F0E4F882
:102B60004FF4007A40B120680068C00501D5C4F870
:102B700040A00320BDE8F88F216809F0FE0008613D
:102B80002B46284920460A9A00F016F9F0BB206827
:102B90004169806900902A4620460A9900F0A2F90E
:102BA00040B1206C04283AD12068016841F40071DA
:102BB000016034E0FEB2B8F1010F09D02168380A93
:102BC00008612A4620460A9900F08CF90028E8D1CD
:102BD000206806612A4620460A9900F083F90028F9
:102BE000DFD12068016841F4807101600095002206
:102BF000594620460A9B00F097F80028B3D1216877
:102C000009F0FF0040F00100086100E007E02B46FA
:102C1000044920460A9A00F0CFF80028AAD00120E3
:102C2000A8E70000020001002DE9F843044600680F
:102C30000D46DDE9089701689846164641F4807113
:102C400001604B4600224FF001112046009700F032
:102C50006BF848B120680068C00502D54FF40070D9
:102C600020640320BDE8F883216805F0FE000861B8
:102C70003B464A461549204600F09EF888B9206830
:102C80004169806900903A464946204600F02AF999
:102C900048B1206C042804D12068016841F4007117
:102CA00001600120DEE7F5B2B8F1010F09D021681B
:102CB000300A08613A464946204600F013F90028D8
:102CC000E7D1206805610020CCE700000200010088
:102CD00070B516460D4604461EE02046FFF70FFF6E
:102CE00008B1012070BD681C16D0FEF7C5F9801B25
:102CF000A84200D885B920684069C04340070BD579
:102D0000002044F8300F20216173A073216941F045
:102D1000200121612073E4E720684069C043400737
:102D2000DBD4002070BD00002DE9F047984617461F
:102D30000D460446C1F30746DDF820902AE000BFA7
:102D4000B8F1FF3F26D0FEF797F9A0EB0901414506
:102D500002D8B8F1000F1DD12068012E16D080696D
:102D600025EA00000004000C12D00020B84211D166
:102D7000002044F8300F20216173A073216941F0D5
:102D80002001216120730120BDE8F0874069E7E759
:102D90000120EBE72068012E0AD0806925EA0000B7
:102DA0000004000C06D00020B842C9D00020EBE798
:102DB0004069F3E70120F7E72DE9F047984616460A
:102DC0000D4604464FF000094FF0200AC1F30747B3
:102DD00023E020684069C043400515D4206801689D
:102DE00041F40071016021686FF480604861C4F8AB
:102DF000309084F83DA084F83E90216C41F00401AD
:102E0000216484F83C9021E0701C06D0FEF734F970
:102E1000A0EB0800B04203D816B1012F1FD021E06B
:102E20002068012F15D0806925EA00000004000CFD
:102E300018D000BF44F8309F84F80DA084F80E909D
:102E4000216941F02001216184F80C900120BDE846
:102E5000F087406925EA00000004000CEAD12068F0
:102E6000406901E02068806925EA00000004000C48
:102E7000AFD1ECE72DE9F041002590460E4604461F
:102E8000202728E04069C043C0060CD454F8301B0A
:102E90006FF01000486144F810596777A577206AF1
:102EA0002062257714E0FEF7E7F8A0EB0800B042B7
:102EB00000D886B920684069C04340060BD544F865
:102EC000305F6773A573206940F02000206125738F
:102ED0000120BDE8F08120684169C9434906D1D489
:102EE0000020F6E770B516460D4604461EE0204663
:102EF000FFF705FE08B1012070BD681C16D0FEF773
:102F0000BBF8801BA84200D885B920684069C0433F
:102F100000060BD5002044F8300F20216173A07308
:102F2000216941F0200121612073E4E720684069B4
:102F3000C0430006DBD4002070BD00001FB5002098
:102F40008DF80C0064230222D0210848FEF75EF9B8
:102F500000280AD10121642203A88DE807000B464E
:102F60006B22D0210148FEF735FB1FBDB02A00209F
:102F700010B588B0044602220E2103A88DE8070090
:102F800001233B22D0211248FEF7F6F910B10020B0
:102F900008B010BDBDF80C0040BA2080BDF80E008E
:102FA00040BA6080BDF8100040BAA080BDF81200A1
:102FB00040BAE080BDF8140040BA2081BDF8160088
:102FC00040BA6081BDF8180040BAA0810120DFE757
:102FD000B02A00200D4808B5416941F00101416166
:102FE0004069002200F00100009011460F20FEF71A
:102FF0002FFC0F20FEF71FFC002211461120FEF7C8
:1030000027FCBDE808401120FEF715BC0010024067
:1030100010B504490448FDF784FD0249491E0870B3
:1030200010BD0000490000203400002030B585B0FC
:1030300000241C480094019402940394816941F097
:1030400010018161816901F010010491816941F0F1
:1030500020018161816901F020010491816941F0C1
:1030600004018161816901F004010491816941F0E9
:103070000801816180690C4D00F008000490012274
:1030800010212846FDF7F2FF102000900120CDE925
:1030900001040220039069462846FDF7F7FE05B0BB
:1030A00030BD000000100240000801400D4810B57E
:1030B0000B4901600C49416000214FF4804281605E
:1030C000C0E9031241618161C1610162FDF7DAFF6C
:1030D000002803D0BDE81040FDF721BD10BD000061
:1030E00000580040B02A0020801A0600104810B591
:1030F0000E4901604FF48271416000218160C1601E
:103100004FF400720161C0E905123822C0E90721BD
:10311000416281620A21C162FEF738FE002803D0B5
:10312000BDE81040FDF7FBBC10BD000000300140C1
:10313000042B002010B586B0002417480094019499
:1031400002940394049413490594016041F61F41CD
:10315000C0E90114C721C0E903148461FEF7EAFF46
:1031600008B1FDF7DCFC4FF48050009069460A4836
:10317000FFF758F808B1FDF7D2FC049404A90648FB
:103180000594FEF7A3FF002801D0FDF7C8FC06B0A8
:1031900010BD0000000400405C2B00200C4810B55E
:1031A0000A4901604FF461414160002181600C22B5
:1031B000C160C0E904128161C161FFF7CBFA002848
:1031C00003D0BDE81040FDF7AABC10BD0038014097
:1031D000A42B00200C4810B50A4901604FF461216E
:1031E0004160002181600C22C160C0E9041281614C
:1031F000C161FFF7AFFA002803D0BDE81040FDF72A
:103200008EBC10BD00440040EC2B0020FEE7FEE722
:103210002DE9F0470E4D00244FF6FF76AA274FF018
:103220005508A5F52F7900BF06EA0410C4EBC402C7
:103230002F54284409EB420180F801800E22801CA3
:10324000FDF78BF9641C322CEEDBBDE8F087000043
:103250001403002070470000012210210148FDF7EF
:1032600005BF000000080140002210210148FDF7C1
:10327000FDBE00000008014070B516460C4605462C
:10328000FFF7EAFFFF2000F0BBF8FF2000F0B8F8DE
:10329000FFF7EAFF45F0400000F0B2F8200E00F022
:1032A000AFF8C4F3074000F0ABF8C4F3072000F018
:1032B000A7F8E0B200F0A4F8304600F0A1F80C2D19
:1032C00002D1FF2000F09CF85FF00A0400F070F8D3
:1032D000010602D5641EE4B2F8D270BD70B5194C77
:1032E00088B0E07801282BD1A0780025022826D1CB
:1032F000607810B3207800B304F11C03124913481E
:10330000A26901F037FA2072021E07D010A16846A8
:10331000FCF764FF684600F08DFD0FE00EA000F0A2
:1033200089FDD4E90510814208D90E1A06493246B2
:1033300001440548FDF756F9666100E06561E570F6
:1033400008B070BD00000020341600206428002062
:10335000453A2564000000002E000000F8B515462F
:103360000E460B46009204460122022100F056F858
:1033700040B93346002280212046009500F04EF8E7
:10338000002804D0606D40F0200060650320F8BD87
:10339000064A11688B689B07FCD5C8601068816875
:1033A000C907FCD0C068C0B270470000042B0020E1
:1033B0000EB5FF208DF8040064200090012302AABE
:1033C00001A90448FEF774FD08B1FF200EBD9DF869
:1033D00008000EBD042B002010B5084C21680A68B7
:1033E00022F040020A60E0612046FEF7CFFC206830
:1033F000016841F04001016010BD0000042B002075
:1034000001B582B064200090012301AA02A90248FC
:10341000FEF74EFD0EBD0000042B00202DE9F84301
:103420001E46914688460446089DFDF725FE401B32
:10343000351AFDF721FE074625480068C0F3CB305A
:10344000684338E0701C37D0FDF716FEC01BA84259
:1034500003D215B1009860B32CE02068416821F0D8
:10346000E00141606068B0F5827F0BD1A068B0F5E3
:10347000004F02D0B0F5806F04D12068016821F0C0
:1034800040010160A06AB0F5005F09D120680168C1
:1034900021F4005101602068016841F4005101608D
:1034A000012084F85100002084F850000320BDE87A
:1034B000F8830025401E00902068816838EA0100EA
:1034C00004D000214945BDD10020F0E70121F9E7F2
:1034D0002C0000207047FEF745B930B58FB0282189
:1034E0006846FDF7C1F814210AA8FDF7BDF80121CF
:1034F0000804CDE900100024029402250491CDE9CE
:1035000007504FF4E01009906846FEF7AFFA0F201D
:10351000CDE90A056802CDE90C4002210AA80E9403
:10352000FEF7C8F90FB030BD704700000148FEF744
:10353000E8BE00005C2B0020F0B50268194B1A4C65
:103540001A4D4FF08047984205D0B84203D0A042B0
:1035500001D0A84203D122F070064A683243984253
:1035600005D0B84203D0A04201D0A84203D122F432
:103570004074CA6822434C6922F0800222430260F0
:103580008A68C2620A688262984201D1096901634D
:10359000012141610169C90703D0016921F00101DD
:1035A0000161F0BD002C0140000400400008004013
:1035B00010B5846842EA032224F47F440A4322437C
:1035C000826010BD826822F070020A4342F0070157
:1035D0008160704710B5036A046A24F00104046234
:1035E000846924F0F00444EA021423F00A020A4336
:1035F0008461026210BD10B5036A046A24F01004ED
:103600000462846923F0A00324F4704444EA023283
:1036100043EA01118261016210BD10B5406A0021C8
:10362000C185C184FEF74EFF10BD70B5446A2068A5
:10363000406994F84110C0F3C0100025212904D13D
:1036400018B1E584204600F08EF82068406994F8AF
:103650004210C0F38010222904D118B1E58520461C
:1036600000F05AF8606C40F0100060642046FEF7ED
:1036700029FF70BD10B50146406A096809684FF01E
:10368000000289062ED4C28501680C3151E8003F42
:1036900023F4807341E80034002CF5D10168143123
:1036A00051E8003F23F0010341E80034002CF5D13C
:1036B0000168143151E8003F23F0400341E8003431
:1036C000002CF5D1202180F84210016B012909D18D
:1036D00001680C3151E8003F23F0100341E8003449
:1036E000002CF5D14263016B012902D0FFF71EF9CE
:1036F00010BD818DFEF7ADFE10BD10B5406A0121F1
:103700004163016B012902D0FFF7A6F910BD818D3D
:103710004908FEF79EFE10BD01680C3151E8002FEC
:1037200022F4907241E80023002BF5D10168143196
:1037300051E8002F22F0010241E80023002BF5D1CF
:10374000016B012909D101680C3151E8002F22F0E9
:10375000100241E80023002BF5D1202180F842100F
:1037600000210163704701680C3151E8002F22F0FD
:10377000C00241E80023002BF5D1202180F8411040
:10378000704708B590F84210222901D0022008BDE8
:1037900082684FF480539A4201D1016921B1816A54
:1037A0009A421BD04AB10AE00268816A5268C2F3A9
:1037B00008020A80816A891C08E0026972B1026805
:1037C000526802F07F020A70816A491C8162C18DD1
:1037D000491E0904090CC18503D01BE00268526828
:1037E000F1E70168CA6822F02002CA600168CA686D
:1037F00022F48072CA6001684A6922F001024A61BB
:10380000202180F8421000214163026B012A03D07D
:10381000FFF78CF8002008BD016301680C3151E806
:10382000002F22F0100241E80023002BF5D101689F
:103830000A68D20602D50A6849680091818DFEF7B0
:1038400008FEE7E770B5044600680169E26821F404
:103850004051114301612169A0680843616908432F
:103860002168CA6841F20C639A430243CA60206827
:103870004169A26921F44071114341611E492068E8
:10388000884202D1FEF7BCF801E0FEF7A9F800EB90
:10389000C00101EB0012606864218000B2FBF0F30C
:1038A000B3FBF1F36FF018067343B2FBF0F5B2FB14
:1038B000F0F605EB8305322303EB0515B5FBF1F5B7
:1038C000B6FBF1F605F0F00505EB0615B2FBF0F6D8
:1038D000B2FBF0F0B0FBF1F06FF01802504306EBD2
:1038E000800003EB0010B0FBF1F0216800F00F0046
:1038F0002844886070BD00000038014038B58162FE
:1039000004468285002013466064222284F8422007
:10391000E56B1B4AAA62E56B1A4AEA62E56B1A4A32
:103920002A63E26B50630A462168E06B091DFDF7CC
:1039300063FA2068016840680090206948B12068F7
:103940000C3050E8001F41F4807140E80012002A5A
:10395000F5D12068143050E8001F41F0010140E823
:103960000012002AF5D12068143050E8001F41F001
:10397000400140E80012002AF5D1002038BD0000C7
:1039800075360008FB3600082B36000881628285F8
:10399000C28500214164222180F84210016921B1D1
:1039A0000168CA6842F48072CA6001684A6942F0DC
:1039B00001024A610068C16841F02001C160002035
:1039C00070472DE9F843984617460D460446089E71
:1039D00024E0701C22D0FDF74FFBA0EB0800B042A2
:1039E0001AD8CEB12068C168490717D5802D15D0E7
:1039F000402D13D00168C94309070FD40168002581
:103A0000406800902046FFF787FE0820606484F835
:103A100040500120BDE8F8830320FBE720680068E0
:103A200035EA000004D00020B842D2D00020F1E7EF
:103A30000120F9E70148FEF757BD0000A42B002044
:103A40000148FEF751BD0000EC2B00202DE9F843A2
:103A500010B10120BDE8F883FFF7FEFB0024FF2032
:103A6000FFF7CEFC641CE4B20A2CF8D33820FFF731
:103A7000B3FCC824002195220846FFF7FDFB01286E
:103A800008D0641EA4B2F5D2FFF7E6FB1820FFF7BA
:103A9000A3FCDEE7444D002687226E704FF4D571FB
:103AA0000820FFF7E9FB44F620644FF001080128E5
:103AB0001CD0012200213720FFF7DEFB012200216C
:103AC0002920FFF7D9FB012849D80220687001227C
:103AD00000213720FFF7D0FB012200212920FFF72A
:103AE000CBFBC0B3641EA4B2F1D243E000266F4604
:103AF000FFF75EFCB855761CF6B2042EF8D39DF89D
:103B0000020001283ED19DF80300AA283AD14607B9
:103B1000012200213720FFF7AFFB01223146292087
:103B2000FFF7AAFB10B1641EA4B2F1D254B3012274
:103B300000213A20FFF7A0FB20BB0024FFF738FC50
:103B40003855641CE4B2042CF8D39DF800004006FC
:103B500002D5062001E00DE00420687012E085F82F
:103B60000180012200211046FFF786FB10B1641E80
:103B7000A4B2F6D22CB1012251021020FFF77CFB37
:103B800000B16E70FFF768FBFF20FFF739FC1820CB
:103B9000FFF722FC687818B1287820F0010000E0D7
:103BA00040462870287855E73000002070B5012481
:103BB00008B1042070BD31B1012915D0022916D0F9
:103BC000032918D119E0FFF74FFB6FF07F4500BFC5
:103BD000FFF7EEFBFF2802D06D1EF9D200E005B121
:103BE0000024FFF739FB06E04FF4000006E04FF435
:103BF000007010800024204670BD01201060F9E79D
:103C00002DE9F0471D4617460E4638B935B13A48FA
:103C10000178C90704D00320BDE8F0870420FBE742
:103C20004078062802D0042800D05702FFF71CFB7A
:103C30004CF250344FF40079012D4FF00102394617
:103C400004D01220FFF718FB38B34AE01120FFF729
:103C500013FBE8BBFFF7ACFBFE2802D0641EF9D2D1
:103C600000E0A4B100244D46FF20FFF791FB305542
:103C7000641CAC42F8DBFF20FFF78AFBFF20FFF754
:103C800087FBFFF7E9FAFF20FFF7BAFB31E0FFF708
:103C9000E3FAFF20FFF7B4FB29E0A0464F46444675
:103CA000FFF786FBFE2802D0641EF9D200E09CB12B
:103CB0000024FF20FFF76CFB3055641CBC42F8DB8E
:103CC000FF20FFF765FBFF20FFF762FB6D1E00E0A2
:103CD00007E006F50076E2D1012200210C20FFF773
:103CE000CBFAFFF7B9FAFF20FFF78AFB0DB10120ED
:103CF00092E7002090E700003000002001480078A3
:103D000070470000300000202DE9F0411C461746A6
:103D10000D4638B934B1454E3078C00704D0032081
:103D2000BDE8F0810420FBE73078400701D5022090
:103D3000F6E77078062802D0042800D05702FFF773
:103D400093FA4FF40078012C13D07078800709D5CE
:103D5000012200213720FFF78FFA01222146172088
:103D6000FFF78AFA012239461920FFF785FA40B396
:103D70004BE0012239461820FFF77EFA00BBFF20F6
:103D8000FFF73EFBFF20FFF73BFBFF20FFF738FB71
:103D9000FE20FFF735FB00264746A85DFFF7F8FA3F
:103DA000761CBE42F9DBFF20FFF7F2FAFF20FFF797
:103DB000EFFAFFF7FDFA00F01F00052825D10024D7
:103DC00023E04746FF20FFF71BFBFF20FFF718FB10
:103DD000FC20FFF715FB0026A85DFFF7D9FA761C3B
:103DE000BE42F9DBFF20FFF70BFBFF20FFF708FBCC
:103DF000FFF7DEFA00F01F00052803D1641E05F569
:103E00000075DFD1FD20FFF7FBFA094DFFF7D0FA6F
:103E1000FF2801D06D1EF9D2FFF71EFAFF20FFF731
:103E2000EFFA0CB101207BE7002079E73000002099
:103E3000400D030010B504460748006800280AD06A
:103E40002046FCF76BFB214682B2BDE8104064239C
:103E50000148FEF702BE10BDEC2B0020FEE709076B
:103E6000090E002804DB00F1E02080F80014704700
:103E700000F00F0000F1E02080F8141D704730388A
:103E80000A2801D2012070470020704710B504466F
:103E9000002084F80402401EC4F82C02204601F0E1
:103EA0003FF908B1032010BDB4F8FE01A0F52A4186
:103EB000553901D0022010BD94F8360094F839101D
:103EC00094F8372040EA016194F83800000440EA91
:103ED000022001430A48B0EB012F0DD014F8521F05
:103EE000E278637841EA0261A278120442EA03228E
:103EF0001143B0EB012F01D1002010BD012010BDF6
:103F000000464154F0B50022184B144602EB42061D
:103F100053F8265085B1D0F80072BD420DD103EBA5
:103F20008605D0F808626F68B74206D12D89B0F8CF
:103F30000662B54204D000E00124521C022AE5D3F7
:103F4000022A01D079B904E05CB9022909D0122013
:103F5000F0BD02EB420003EB80004089B0F5807FAA
:103F600001D00020F0BD1020F0BD0000BC2C0020CE
:103F700030B50021064A0C4601EB410352F82350AC
:103F8000854201D142F82340491C0229F4D330BDB7
:103F9000BC2C0020D0F82422D0F80002490A90F866
:103FA0000202B1FBF0F0121D02CA19B1884203D31C
:103FB000401AF8E700207047116808447047D0F8AD
:103FC0001422891E921E8A4201D800207047D0F820
:103FD000282290F8020201FB002070472DE9F041F1
:103FE0000F00054606D000F079FE02280BD2012012
:103FF000BDE8F081D5F80C621EB1D5F81402B042CC
:1040000008D8012606E0411CF2D0D5F814128142EE
:10401000EED83E463446D5F81402641CA04202D8BD
:104020000224022E0AD32146284600F057FE38B15A
:10403000411CDDD00128DBD0B442ECD10020D7E711
:104040006FF070422146284601F085F830B957B12B
:1040500022463946284601F07EF820B1012812D0C8
:1040600001242046C4E7C5F80C42D5F81002411CD3
:10407000F7D0401EC5F8100295F8050240F0010087
:1040800085F80502EDE74FF0FF34EAE72DE9F04748
:1040900089460C6800E0641C21782F29FBD05C293C
:1040A000F9D0D0F818520B222021284601F031F81F
:1040B000002001460B460826E25C5B1C202A35D90D
:1040C0002F2A33D05C2A31D02E2A01D0B04208D317
:1040D000082E38D12E2A36D108200B268906090E43
:1040E000EAE7802A05D3244F41F003013A4412F84D
:1040F000802C22A700E07F1C97F800C0BCF1000FC5
:1041000002D09445F7D11EE0A2F14107192F02D841
:1041100041F0020107E0A2F16107192F03D8203A0C
:1041200041F00101D2B22A54401CC5E71C44C9F831
:104130000040202A01D8042200E0002218B128788B
:10414000E52803D004E00620BDE8F08705202870AC
:10415000082E01D18806010E01F00300012801D1CB
:1041600042F01002C1F38100012801D142F008029F
:10417000EA720020E8E7000036540008222A2B2CBF
:104180003A3B3C3D3E3F5B5D7C7F0000401E022889
:1041900015D20C4B00EB400203EB82014889B0F5CD
:1041A000807F05D008B1401E80B2488110B104E084
:1041B0000020FAE7002043F8220000207047022088
:1041C00070470000BC2C00202DE9F041B0F80662D9
:1041D0000446761C30040F46000C37D0D4F8100289
:1041E00098B3310773D1401CC4F81002D4F80C12F4
:1041F000D4F8000231B190F80222521E12EA161FC2
:1042000005D064E0B0F80802B0421FD95FE000F0CA
:1042100065FD054601281ED9681C3AD0D4F8000275
:10422000D0F81412A94249D87FB1D4F80C12FFF784
:10423000D5FE05000DD0012D0DD0681C29D0D4F875
:10424000000201F09DF820BB07E0FFE70420BDE875
:10425000F0810720FBE70220F9E74FF4007200210C
:10426000D4F8000200F055FF2946D4F80002FFF709
:10427000A6FED4F8001200274FF00108C1F82C0266
:1042800011E000BF80F80482D4F8000201F078F851
:1042900008B10120DBE7D4F80002D0F82C12491C49
:1042A0007F1CC0F82C12D4F8000290F80212B94218
:1042B000E8D8D0F82C12C91BC0F82C12C4F80C5244
:1042C0002946D4F80002FFF77AFEC4F81002A4F8D9
:1042D0000662D4F8000206F00F0100EB4110C4F8AA
:1042E00014020020B3E770B50446002100F036F850
:1042F00010E0D4F81012D4F8000200F011FF58B901
:10430000D4F814020078E52809D040B101212046F4
:10431000FFF75AFF0028ECD0042809D009E0D4F8B0
:104320001012D4F8000200F0FBFE050003D013E0E9
:104330000720054610E0D4F814022022002104F5DD
:10434000007400F0E6FED4E905010B2200F0D8FE6F
:104350002168012081F80402284670BD70B5A0F8DC
:104360000612D0F808320D460446012B40D0D4F88E
:104370000002D0F8141299423AD933B990F80012D9
:10438000032906D1D0F824321BB190F802020601AD
:1043900014E0B0F80812A9422AD9D0F8240214E097
:1043A00000F09CFC0346401C20D0022B20D3D4F804
:1043B0000002D0F8140298421AD9AD1BD4F80002BA
:1043C000B5421946ECD2FFF7FAFDC4F80C3278B1C9
:1043D00000EB1510C4F81002D4F8000205F00F012C
:1043E00000EB4110C4F81402002070BD012070BD24
:1043F000022070BD084910B50B5C002253B90122A0
:104400000A540A1801EB8000127A406801681046CD
:1044100088470246104610BDD42C002030B4054C0D
:10442000231804EB80001B7A406804691846A446F0
:1044300030BC6047D42C002030B4054D2C1805EB5F
:104440008000247A406885682046AC4630BC6047CE
:10445000D42C0020044A111802EB8000097A40682D
:104460004268084610470000D42C002030B4054DA7
:104470002C1805EB8000247A4068C5682046AC46BD
:1044800030BC6047D42C002010B5044600F016F96B
:1044900000280DD1204600F0A3FF002808D1D4F851
:1044A0002802FFF773FE002802D10021C4F8001291
:1044B00010BD00002DE9F74181B0904602980090B0
:1044C000684600F073FC040003D50B2004B0BDE87F
:1044D000F0810E4E002756F8245025B12846FFF7EC
:1044E00047FD85F800720198002801D080F800721D
:1044F00046F8240002D0B8F1010F01D00020E5E712
:10450000002202A901A800F021FADFE754000020F0
:104510002DE9F747ADF50B7D06000ED04FF00008F2
:1045200002F01F0727F001028CA980A8C6F80082BC
:1045300000F00CFA040005D0B9E009200DF50E7D5D
:10454000BDE8F08788A8869068468C9900F066FBE5
:10455000859D04000BD11DB1780803D0012102E034
:10456000062404E000216846FFF7CCFC044617F05F
:104570001C0F5FD04FF0010AD4B1042C13D10020DE
:104580004D4902E0401C022805D200EB400251F8E0
:104590002220002AF6D1022804D06846FFF7A3FEA5
:1045A000044600E01224859D47F0080754B17EE0E0
:1045B000E87A10F0110F01D0072478E0780701D5D0
:1045C000082474E0380743D500F0EEFBA873010A15
:1045D000E973010C2974000E687485F80B8085F866
:1045E0001C8085F81D8085F81E8085F81F8029466F
:1045F000809800F049FC81460021284600F05DFECD
:104600008099B9F1000F81F804A21FD08098494623
:10461000D0F82CA200F01AFE040048D18099A9F12C
:104620000100C1F80C025146809800F079FD0400A9
:104630000AD03CE0DCBBE87AC10601D5042436E0B0
:10464000B90701D5C007B7D1380701D547F0200712
:104650008098D0F82C02C6E98705780801D001219E
:1046600000E00021684600F0BFFBC6F8280200B356
:1046700086F8067286F807824746294606F50076D0
:10468000809800F001FC3061287FE97F6A7F40EA72
:104690000160A97F090441EA02210843C6E90270CA
:1046A000B761776280983060B0F80602B08020462B
:1046B00044E70224FBE70000BC2C002070B5044650
:1046C00000F08EFE002811D194F806128A060DD54E
:1046D000480612D5D4F800020123214690F80102C1
:1046E000D4F81822FFF7C2FE08B1012070BD94F87B
:1046F000060220F0400084F80602D4F81C12D4F818
:10470000000200F00DFD0028F0D1D4F82052E87A24
:1047100040F02000E87294F80C022877B4F80C02FC
:10472000000A6877D4F80C02000CA877D4F80C02C1
:10473000000EE877D4F81012284604F5007400F053
:10474000BCFD00F031FBA875010AE975010C297662
:10475000000E68760020A874E874A07920F020008C
:10476000A0712168012081F804022068BDE8704032
:1047700000F0ABBD2DE9F84F88460021994615465B
:104780000446196000F02CFE002808D194F80702B6
:10479000002804D194F80602800702D40720BDE85F
:1047A000F88FD4F80802012741194FF0020A81421C
:1047B0007BD3B9E0D4F80812C80577D1D4F8002229
:1047C00092F80202401E00EA512010F0FF061ED1AE
:1047D00031B1D4F8240240B12046FFF7DBFB09E0F9
:1047E000D4F8100240B9002101E0D4F814121046A8
:1047F000FFF7F4FB002858D001283DD0411C6CD0B5
:10480000C4F81402D4F8101209B9C4F8100294F8CC
:104810000602400610D5D4F800020123214690F884
:104820000102D4F81822FFF721FEE8BB94F8060233
:1048300020F0400084F80602D4F81412D4F80002E4
:10484000FFF7BDFBC0B130440090680A5FEA000B7F
:1048500030D0D4F8000206EB0B0290F802128A4224
:1048600001D9A1EB060B90F801025B464146009A84
:10487000FFF7FCFDC0B903E084F807A202208EE731
:10488000D4F818120098081A58450CD208EB4021A9
:104890004FF40072204600F033FC94F8060220F03A
:1048A000400084F8060202E017E040E01CE04FEA16
:1048B0004B262DE0D4F818120098814211D0D4E98B
:1048C000820188420DD2D4F800020123214690F8DB
:1048D0000102009AFFF7B0FD18B184F807720120B9
:1048E0005DE70098C4F81802B4F80802C0F30800A5
:1048F000C0F50076AE4200D92E46204432464146ED
:1049000000F0FEFB94F8060240F0400084F8060236
:10491000D4F80802B0443044C4F80802D9F80000C2
:104920008119AD1BC9F80010002D7FF443AFD4E905
:104930008201884201D9C4F80C0294F8060240F0C2
:10494000200084F80602002029E700002DE9FF4737
:104950004FF000090746C0F800901646084600F0E0
:1049600025FA050003D50B2004B0BDE8F087A84860
:1049700050F82540A4B13C6094F8000228B194F8A6
:104980000102FFF767FDC1070CD084F80092E8B27E
:1049900084F80102FFF72EFDC10708D00320E3E7EA
:1049A0000C20E1E70EB1400704D40020DCE71EB183
:1049B000400701D50A20D7E7002529462046FFF702
:1049C00065FA012827D100214FEA0D0704EB0110F9
:1049D00090F8C22100F5DF704AB1027AC37A42EA48
:1049E0000362837A407A1B0443EA0020024347F8BB
:1049F0002120491C0429E9D35FF0000657F826500E
:104A00002DB129462046FFF741FA08B909E00220F6
:104A1000761C042EF2D3032801D0E8BB01E001206C
:104A2000A2E7B4F80B00B0F5007F70D1E28A6AB952
:104A300094F8240094F8271040EA016294F82600C4
:104A400094F82510000440EA01200243C4F818221B
:104A5000217C84F80312012901D0022957D1607BFF
:104A6000514384F80202B8B1431E18424FD1B4F842
:104A70001130A4F808321E0749D1B4F813607EB98A
:104A800094F8206094F8237094F821C046EA0766F1
:104A900094F822703F0400E039E047EA0C273E43D7
:104AA000B4F80EC0BCF1000F31D00CEB010707EBDE
:104AB0001317BE422BD3F61BB6FBF0F038B301261A
:104AC00040F6F678404500D302264FF6F67840458A
:104AD00000D30326801C2F44C4F82872AC44C4F8C9
:104AE0001402C4E9875C032E13D083B16144C4F877
:104AF0002412022E21D000F0010100EB400001EB56
:104B0000500000BF00F2FF10B2EB502F17D20D2063
:104B10002AE7002BFBD194F82C1094F82F3094F84E
:104B20002D7041EA036194F82E301B0443EA0723F9
:104B300019438000C4F82412E4E74000E2E74FF094
:104B4000FF30C4F81002C4F80C02802084F805027B
:104B5000032E4FD1208E01284CD12046691C00F035
:104B6000DFFAE0BB84F80592B4F8FE01A0F52A4113
:104B700055393FD12078E178627840EA0160A17828
:104B8000090441EA022108432249884232D194F8BB
:104B9000E40194F8E71194F8E52140EA016094F803
:104BA000E611090441EA022108431B49884221D148
:104BB00094F8E80194F8EB1194F8E92140EA0160D7
:104BC00094F8EA11090441EA02210843C4F81002EA
:104BD00094F8EC0194F8EF1140EA016000E009E07C
:104BE00094F8EE1194F8ED21090441EA02210843FA
:104BF000C4F80C02064984F80062091F0888401CAA
:104C00000880A4F806022046FFF7B2F9CDE60000BE
:104C100054000020525261417272416173B50446E2
:104C2000019908782F2801D05C2801D1491C0191F5
:104C30000025C4F8085201980078202806D20021E7
:104C40002046FFF78BFBC4F814527CBD01A9204617
:104C5000FFF71CFA0028F8D100212046FFF77EFB61
:104C600020BB00BFD4F81012D4F8000200F058FAAC
:104C7000E0B9D4F814120A7832B1CA7A12070FD404
:104C80000A23D4F8182203E004200FE05B1E06D3A9
:104C900011F8015B12F8016BAD1BF7D000E02DB1EC
:104CA00000212046FFF790FA0028DBD0D4F8181234
:104CB000C97A28B10428C8D14907C6D405207CBDCB
:104CC0004907FCD4D4F81412C87AC006F6D5D4F833
:104CD000000200F0D9F8C4F80802B7E72DE9F04166
:104CE0000D46044602290DD3D4F81402A84209D96E
:104CF00094F800024FF0FF36012807D002282AD08E
:104D0000032836D001263046BDE8F081D4F82002D1
:104D100005EB550700EB5721204600F001FA00286B
:104D2000F1D1C7F308007F1C14F80080D4F82002EA
:104D300000EB5721204600F0F3F90028E3D1C7F338
:104D40000800215C48EA0120E90701D00609DAE7FA
:104D5000C0F30B06D7E7D4F8200200EB152120465C
:104D600000F0DEF90028CED1E8B204EB400006885E
:104D7000C9E7D4F8200200EBD511204600F0D0F9A5
:104D80000028C0D140F2FF1000EA850020440178DD
:104D9000C27841EA026182784078120442EA002037
:104DA000014321F07046AEE70020704710B504467D
:104DB0004FF0FF302268002A13D0114600E0491C52
:104DC0000B78212B0ED33A2BF9D112F8013B303B53
:104DD0000A2B06D28A4204D1002B02D1491C184664
:104DE000216010BD002010BDF0B50346254AD3F860
:104DF0000042002000EB400552F82560A6420BD18E
:104E000002EB8505D3F808626F68B74204D12D899B
:104E1000B3F80662B54202D0401C0228EAD3022849
:104E20001AD1002002E0401C022805D200EB400508
:104E300052F82550002DF6D1022815D000EB400580
:104E400042F8254002EB8504D3F808626660B3F8A7
:104E50000632238100236381002900EB400102EB2D
:104E60008101498902D019B10020F0BD491C01E03F
:104E70004FF4807100EB400302EB8302401C518130
:104E8000F0BD0000BC2C00200246488B92F80022A6
:104E9000032A02D1898A40EA014070478CB0FCF7AE
:104EA00069FCFEF71AFBFEF7C1F8FEF793F8FEF770
:104EB000FDF8FEF73FF9FEF719F9FEF7A9F800250E
:104EC00008200127CDE90805CDE90A7508A9694838
:104ED000FBF7DCFF4FF4FA60FBF7C6FFFEF75EF965
:104EE000FEF778F96448006801684068634C0090F8
:104EF000A57020216248FBF7B7FB257161A0FEF782
:104F000099FF012264A16548FFF7D4FA20720028B6
:104F100060D0257062A000BFFEF78CFFFEF70EF890
:104F20005649012209315448FDF7F2FC6048FDF76B
:104F30004DF9604E306801684068DFF87C81009070
:104F4000FEF7CCF9A0780228E07946D00128F7D105
:104F50005848FDF77FFAE571F06B006840682269F8
:104F6000C0F58050904205D9801A81B208EB02004A
:104F7000FBF78CFD60780028E2D0626942B13F4BBC
:104F80004E491C334E48FFF7F5FB60780028D7D018
:104F90004CA0FEF74FFF2520FCF73CFC1D20FCF742
:104FA00039FC3220FBF760FF4548FFF76DFA2072AD
:104FB0002520FCF740FC1D20FCF73DFC227A002A4E
:104FC00056D044A16846FBF709F96846FEF732FF60
:104FD0006570B5E7277042A09EE778B93068016830
:104FE0004168019101684068009025614FF480524A
:104FF00031493048E560FDF77DFCE771F06B0068F2
:105000004068C0F58051E1602069814213D004D925
:10501000A1EB000189B2404409E0C0F5805189B29A
:105020004044FBF733FDE06818B181B22248FBF73A
:105030002DFDE0682061A079002881D0A5716079FC
:105040002A49C0EBC00001EB4000FDF791FF0128A9
:1050500002D16079401C607160793228B9D36571E2
:10506000FEF7D6F84FF448712148FBF70FFD67E7CC
:1050700020A0ABE700080140EC2B0020000000203E
:10508000902A00200D0A3D3D3D20524541445920C3
:105090003D3D3D0D0A0000000000000034260020C8
:1050A0004D6F756E74204661696C210D0A00000019
:1050B0005C2B0020A42B0020340600203416002096
:1050C000642800200D0A436C6F73696E672E2E2EC4
:1050D0000D0A00004572723A2025640D0A00000096
:1050E0004D6F756E74204F4B2E0D0A005800002036
:1050F00014030020434C4F5345442E0D0A0000007A
:1051000004E000BF11F8013B00F8013B521EF9D248
:105110007047C9B201E000F8011B521EFBD2704774
:1051200070B50546D0F82C020C460026A04210D0DF
:10513000284600F025F906000BD195F8010201235D
:1051400022462946FFF778F908B1741E0126C5F8F2
:105150002C42304670BD2DE9F04717460D460446F7
:10516000022903D3D4F81402A84202D80220BDE8D1
:10517000F08794F8001207F0FF084FF001090129A9
:105180001FD002294FD00329F0D1D4F8200200EB20
:10519000D5112046FFF7C4FF0028E8D140F2FF11E7
:1051A00001EA85010A194FF07043D17803EA0161E1
:1051B000394311700B0A53700B0C9370090ED170A8
:1051C00041E0D4F8200205EB550600EB56212046BD
:1051D000FFF7A6FF0028CAD1C6F30800761C2044BA
:1051E000E90703D0017868F31F1100E03946017028
:1051F00084F80492D4F8200200EB56212046FFF7F1
:105200008FFF0028B3D1C6F308012144EA0702D07A
:10521000C7F3071205E00A78C7F3032302F0F00290
:105220001A430A700FE0D4F8200200EB1521204643
:10523000FFF776FF00289AD1E9B204EB41013A0A60
:1052400081F800804A7084F8049290E72DE9F041DB
:105250000F460646022917D3D6F81402B84213D9CE
:10526000002523E039463046FFF738FD040021D001
:10527000012C09D0601C09D0002239463046FFF7C6
:105280006AFF050016D103E0022513E0012511E0B5
:10529000D6F81002411C08D0401CC6F8100296F83F
:1052A000050240F0010086F805022746D6F81402F0
:1052B000B842D7D82846BDE8F08181760A0AC2767E
:1052C0000A0C0275090E4175704770B5044600F06E
:1052D00057F8050052D194F80002032846D194F8FB
:1052E0000502012842D1420200212046FFF711FFAA
:1052F000552084F8FE01AA2084F8FF015220207076
:1053000060706120A0704121E170722284F8E42174
:1053100084F8E52184F8E61184F8E701D4F8100256
:1053200084F8E801010A84F8E911010C84F8EA1113
:10533000000E84F8EB01D4F80C0284F8EC01010AA9
:1053400084F8ED11010C84F8EE11000E84F8EF01E1
:10535000D4F81C220123521CC4F82C2294F8010218
:105360002146FFF783F8002084F80502002294F814
:1053700001021146FFF752F800B10125284670BD21
:105380002DE9F041044690F80402002728B3D4F830
:105390002C5294F8010201232A462146FFF766F8B1
:1053A00008B1012719E0002084F80402D4F8200293
:1053B000D4F81812281A88420FD294F803620AE02F
:1053C000D4F818020123054494F801022A46214624
:1053D000FFF74CF8761E022EF2D23846BDE8F08177
:1053E00010B588B1D0F8001271B191F800225AB10D
:1053F000B1F80622B0F80402824205D191F8010208
:10540000FFF728F8C00700D0092010BD01020203F1
:105410000405060708090A0B0C0D0E0F10100000FA
:105420000000000000000102030406070809000054
:10543000000001020304809A90B68EB78F80D2D309
:10544000D4D8D7DE8E8F909292E299E3EAEB599905
:105450009A9D9C9D9E9FB5D6E0E9A5A5A6A7A8A963
:10546000AAABAC21AEAFB0B1B2B3B4B5B6B7B8B9B0
:10547000BABBBCBDBEBFC0C1C2C3C4C5C7C7C8C913
:10548000CACBCCCDCECFD0D1D2D3D4D5D6D7D8D904
:10549000DADBDCDDDEDFE0E1E2E3E5E5E6E7E7E9F4
:1054A000EAEBEDEDEEEFF0F1F2F3F4F5F6F7F8F9E3
:1054B000FAFBFCFDFEFF000400020001800040003A
:1054C00020001000080004000200000000800040DE
:1054D0000020001000080040002000100008000418
:1054E00000023031323334353637383941424344A3
:1054F000454640305800303132333435363738394C
:105500006162636465664030780004000008000052
:105510000000000000020001000010003C550008DF
:1055200000000020580000002801000894550008E1
:1055300058000020E832000044010008000000008C
:10554000000000000000000000000000000000005B
:10555000000000000000000000000000010000004A
:10556000100000000000000000127A00010000009E
:105570004D3A0008FD3C0008013C0008093D0008C8
:10558000AD3B00080000000000000000000000002B
:045590000000000017
:04000005080000ED02
:00000001FF
